{
  "contractName": "dender",
  "abi": [
    {
      "inputs": [],
      "stateMutability": "nonpayable",
      "type": "constructor"
    },
    {
      "inputs": [
        {
          "internalType": "address",
          "name": "",
          "type": "address"
        }
      ],
      "name": "bidders",
      "outputs": [
        {
          "internalType": "string",
          "name": "bidderName",
          "type": "string"
        },
        {
          "internalType": "bool",
          "name": "bidded",
          "type": "bool"
        },
        {
          "internalType": "uint256",
          "name": "bidAmt",
          "type": "uint256"
        }
      ],
      "stateMutability": "view",
      "type": "function",
      "constant": true
    },
    {
      "inputs": [],
      "name": "manager",
      "outputs": [
        {
          "internalType": "address",
          "name": "",
          "type": "address"
        }
      ],
      "stateMutability": "view",
      "type": "function",
      "constant": true
    },
    {
      "inputs": [
        {
          "internalType": "uint256",
          "name": "",
          "type": "uint256"
        }
      ],
      "name": "tdrs",
      "outputs": [
        {
          "internalType": "uint256",
          "name": "id",
          "type": "uint256"
        },
        {
          "internalType": "string",
          "name": "title",
          "type": "string"
        },
        {
          "internalType": "string",
          "name": "desc",
          "type": "string"
        },
        {
          "internalType": "uint256",
          "name": "startTime",
          "type": "uint256"
        },
        {
          "internalType": "uint256",
          "name": "endTime",
          "type": "uint256"
        },
        {
          "internalType": "uint256",
          "name": "accBal",
          "type": "uint256"
        },
        {
          "internalType": "uint256",
          "name": "maxBid",
          "type": "uint256"
        },
        {
          "internalType": "address",
          "name": "highestBidder",
          "type": "address"
        }
      ],
      "stateMutability": "view",
      "type": "function",
      "constant": true
    },
    {
      "inputs": [
        {
          "internalType": "string",
          "name": "_title",
          "type": "string"
        },
        {
          "internalType": "uint256",
          "name": "_bidO",
          "type": "uint256"
        },
        {
          "internalType": "uint256",
          "name": "_bidC",
          "type": "uint256"
        },
        {
          "internalType": "string",
          "name": "_description",
          "type": "string"
        }
      ],
      "name": "createTender",
      "outputs": [],
      "stateMutability": "nonpayable",
      "type": "function"
    },
    {
      "inputs": [
        {
          "internalType": "uint256",
          "name": "_amt",
          "type": "uint256"
        },
        {
          "internalType": "uint256",
          "name": "_tdrID",
          "type": "uint256"
        },
        {
          "internalType": "string",
          "name": "_name",
          "type": "string"
        }
      ],
      "name": "bid",
      "outputs": [],
      "stateMutability": "payable",
      "type": "function",
      "payable": true
    }
  ],
  "bytecode": "0x608060405234801561001057600080fd5b5033600260006101000a81548173ffffffffffffffffffffffffffffffffffffffff021916908373ffffffffffffffffffffffffffffffffffffffff1602179055506112a6806100616000396000f3fe60806040526004361061004a5760003560e01c80633130a9d01461004f578063481c6a751461007857806376d4fc57146100a3578063ebaaa7f8146100bf578063fcc8f79314610103575b600080fd5b34801561005b57600080fd5b5061007660048036038101906100719190610a1a565b610142565b005b34801561008457600080fd5b5061008d6102cb565b60405161009a9190610afa565b60405180910390f35b6100bd60048036038101906100b89190610b15565b6102f1565b005b3480156100cb57600080fd5b506100e660048036038101906100e19190610b84565b610653565b6040516100fa989796959493929190610c3f565b60405180910390f35b34801561010f57600080fd5b5061012a60048036038101906101259190610cf7565b6107cb565b60405161013993929190610d3f565b60405180910390f35b600260009054906101000a900473ffffffffffffffffffffffffffffffffffffffff1673ffffffffffffffffffffffffffffffffffffffff163373ffffffffffffffffffffffffffffffffffffffff161461019c57600080fd5b60405180610100016040528060035481526020018581526020018281526020018481526020018381526020016000815260200160008152602001600073ffffffffffffffffffffffffffffffffffffffff1681525060008060035481526020019081526020016000206000820151816000015560208201518160010190816102249190610f89565b50604082015181600201908161023a9190610f89565b50606082015181600301556080820151816004015560a0820151816005015560c0820151816006015560e08201518160070160006101000a81548173ffffffffffffffffffffffffffffffffffffffff021916908373ffffffffffffffffffffffffffffffffffffffff160217905550905050600360008154809291906102c09061108a565b919050555050505050565b600260009054906101000a900473ffffffffffffffffffffffffffffffffffffffff1681565b426000808481526020019081526020016000206003015410610348576040517f08c379a000000000000000000000000000000000000000000000000000000000815260040161033f9061111e565b60405180910390fd5b42600080848152602001908152602001600020600401541161039f576040517f08c379a00000000000000000000000000000000000000000000000000000000081526004016103969061118a565b60405180910390fd5b600160003373ffffffffffffffffffffffffffffffffffffffff1673ffffffffffffffffffffffffffffffffffffffff16815260200190815260200160002060010160009054906101000a900460ff161561044d57600160003373ffffffffffffffffffffffffffffffffffffffff1673ffffffffffffffffffffffffffffffffffffffff168152602001908152602001600020600201548361044291906111aa565b600581905550610455565b826005819055505b60008083815260200190815260200160002060060154600554116104ae576040517f08c379a00000000000000000000000000000000000000000000000000000000081526004016104a590611250565b60405180910390fd5b6040518060600160405280828152602001600115158152602001600554815250600160003373ffffffffffffffffffffffffffffffffffffffff1673ffffffffffffffffffffffffffffffffffffffff16815260200190815260200160002060008201518160000190816105229190610f89565b5060208201518160010160006101000a81548160ff02191690831515021790555060408201518160020155905050600554600080848152602001908152602001600020600501600082825461057791906111aa565b9250508190555060008083815260200190815260200160002060060154600160003373ffffffffffffffffffffffffffffffffffffffff1673ffffffffffffffffffffffffffffffffffffffff16815260200190815260200160002060020154111561064e57600554600080848152602001908152602001600020600601819055503360008084815260200190815260200160002060070160006101000a81548173ffffffffffffffffffffffffffffffffffffffff021916908373ffffffffffffffffffffffffffffffffffffffff1602179055505b505050565b600060205280600052604060002060009150905080600001549080600101805461067c90610dac565b80601f01602080910402602001604051908101604052809291908181526020018280546106a890610dac565b80156106f55780601f106106ca576101008083540402835291602001916106f5565b820191906000526020600020905b8154815290600101906020018083116106d857829003601f168201915b50505050509080600201805461070a90610dac565b80601f016020809104026020016040519081016040528092919081815260200182805461073690610dac565b80156107835780601f1061075857610100808354040283529160200191610783565b820191906000526020600020905b81548152906001019060200180831161076657829003601f168201915b5050505050908060030154908060040154908060050154908060060154908060070160009054906101000a900473ffffffffffffffffffffffffffffffffffffffff16905088565b60016020528060005260406000206000915090508060000180546107ee90610dac565b80601f016020809104026020016040519081016040528092919081815260200182805461081a90610dac565b80156108675780601f1061083c57610100808354040283529160200191610867565b820191906000526020600020905b81548152906001019060200180831161084a57829003601f168201915b5050505050908060010160009054906101000a900460ff16908060020154905083565b6000604051905090565b600080fd5b600080fd5b600080fd5b600080fd5b6000601f19601f8301169050919050565b7f4e487b7100000000000000000000000000000000000000000000000000000000600052604160045260246000fd5b6108f1826108a8565b810181811067ffffffffffffffff821117156109105761090f6108b9565b5b80604052505050565b600061092361088a565b905061092f82826108e8565b919050565b600067ffffffffffffffff82111561094f5761094e6108b9565b5b610958826108a8565b9050602081019050919050565b82818337600083830152505050565b600061098761098284610934565b610919565b9050828152602081018484840111156109a3576109a26108a3565b5b6109ae848285610965565b509392505050565b600082601f8301126109cb576109ca61089e565b5b81356109db848260208601610974565b91505092915050565b6000819050919050565b6109f7816109e4565b8114610a0257600080fd5b50565b600081359050610a14816109ee565b92915050565b60008060008060808587031215610a3457610a33610894565b5b600085013567ffffffffffffffff811115610a5257610a51610899565b5b610a5e878288016109b6565b9450506020610a6f87828801610a05565b9350506040610a8087828801610a05565b925050606085013567ffffffffffffffff811115610aa157610aa0610899565b5b610aad878288016109b6565b91505092959194509250565b600073ffffffffffffffffffffffffffffffffffffffff82169050919050565b6000610ae482610ab9565b9050919050565b610af481610ad9565b82525050565b6000602082019050610b0f6000830184610aeb565b92915050565b600080600060608486031215610b2e57610b2d610894565b5b6000610b3c86828701610a05565b9350506020610b4d86828701610a05565b925050604084013567ffffffffffffffff811115610b6e57610b6d610899565b5b610b7a868287016109b6565b9150509250925092565b600060208284031215610b9a57610b99610894565b5b6000610ba884828501610a05565b91505092915050565b610bba816109e4565b82525050565b600081519050919050565b600082825260208201905092915050565b60005b83811015610bfa578082015181840152602081019050610bdf565b60008484015250505050565b6000610c1182610bc0565b610c1b8185610bcb565b9350610c2b818560208601610bdc565b610c34816108a8565b840191505092915050565b600061010082019050610c55600083018b610bb1565b8181036020830152610c67818a610c06565b90508181036040830152610c7b8189610c06565b9050610c8a6060830188610bb1565b610c976080830187610bb1565b610ca460a0830186610bb1565b610cb160c0830185610bb1565b610cbe60e0830184610aeb565b9998505050505050505050565b610cd481610ad9565b8114610cdf57600080fd5b50565b600081359050610cf181610ccb565b92915050565b600060208284031215610d0d57610d0c610894565b5b6000610d1b84828501610ce2565b91505092915050565b60008115159050919050565b610d3981610d24565b82525050565b60006060820190508181036000830152610d598186610c06565b9050610d686020830185610d30565b610d756040830184610bb1565b949350505050565b7f4e487b7100000000000000000000000000000000000000000000000000000000600052602260045260246000fd5b60006002820490506001821680610dc457607f821691505b602082108103610dd757610dd6610d7d565b5b50919050565b60008190508160005260206000209050919050565b60006020601f8301049050919050565b600082821b905092915050565b600060088302610e3f7fffffffffffffffffffffffffffffffffffffffffffffffffffffffffffffffff82610e02565b610e498683610e02565b95508019841693508086168417925050509392505050565b6000819050919050565b6000610e86610e81610e7c846109e4565b610e61565b6109e4565b9050919050565b6000819050919050565b610ea083610e6b565b610eb4610eac82610e8d565b848454610e0f565b825550505050565b600090565b610ec9610ebc565b610ed4818484610e97565b505050565b5b81811015610ef857610eed600082610ec1565b600181019050610eda565b5050565b601f821115610f3d57610f0e81610ddd565b610f1784610df2565b81016020851015610f26578190505b610f3a610f3285610df2565b830182610ed9565b50505b505050565b600082821c905092915050565b6000610f6060001984600802610f42565b1980831691505092915050565b6000610f798383610f4f565b9150826002028217905092915050565b610f9282610bc0565b67ffffffffffffffff811115610fab57610faa6108b9565b5b610fb58254610dac565b610fc0828285610efc565b600060209050601f831160018114610ff35760008415610fe1578287015190505b610feb8582610f6d565b865550611053565b601f19841661100186610ddd565b60005b8281101561102957848901518255600182019150602085019450602081019050611004565b868310156110465784890151611042601f891682610f4f565b8355505b6001600288020188555050505b505050505050565b7f4e487b7100000000000000000000000000000000000000000000000000000000600052601160045260246000fd5b6000611095826109e4565b91507fffffffffffffffffffffffffffffffffffffffffffffffffffffffffffffffff82036110c7576110c661105b565b5b600182019050919050565b7f42696420686173206e6f7420737461727465642e000000000000000000000000600082015250565b6000611108601483610bcb565b9150611113826110d2565b602082019050919050565b60006020820190508181036000830152611137816110fb565b9050919050565b7f4269642068617320656e6465642e000000000000000000000000000000000000600082015250565b6000611174600e83610bcb565b915061117f8261113e565b602082019050919050565b600060208201905081810360008301526111a381611167565b9050919050565b60006111b5826109e4565b91506111c0836109e4565b92508282019050808211156111d8576111d761105b565b5b92915050565b7f426964206973206c6f776572207468616e207468652063757272656e7420626960008201527f642e000000000000000000000000000000000000000000000000000000000000602082015250565b600061123a602283610bcb565b9150611245826111de565b604082019050919050565b600060208201905081810360008301526112698161122d565b905091905056fea2646970667358221220d45545cfc3953059a7ee3830910d2fbd94171e57361656b31d0db47c64d1eafe64736f6c63430008110033",
  "immutableReferences": {},
  "source": "// SPDX-License-Identifier: GPL-3.0\r\npragma solidity ^0.8.11;\r\n\r\ncontract dender{\r\n\r\n    struct tdr {\r\n        uint id;\r\n        string title;\r\n        //address mngr;\r\n        string desc;\r\n        uint startTime;\r\n        uint endTime;\r\n        uint accBal;\r\n        uint maxBid;\r\n        address highestBidder;\r\n    }\r\n\r\n    struct bidder {\r\n        string bidderName;\r\n        bool bidded;\r\n        uint bidAmt;\r\n    }\r\n\r\n    mapping(uint => tdr) public tdrs;\r\n    mapping(address => bidder) public bidders;\r\n\r\n    address public manager;\r\n    uint tdrCounts;\r\n    uint time;\r\n    uint amt;\r\n\r\n    modifier onlyOfficial(){\r\n        require(msg.sender == manager);\r\n        _; \r\n    }\r\n\r\n    constructor(){\r\n        manager= msg.sender;\r\n    }\r\n\r\n    function createTender (string memory _title,uint _bidO,uint _bidC,string memory _description)\r\n    public\r\n    onlyOfficial\r\n    {\r\n        tdrs[tdrCounts] = tdr(tdrCounts,_title,_description,_bidO,_bidC,0,0,0x0000000000000000000000000000000000000000);\r\n        tdrCounts++;\r\n    }\r\n\r\n   function bid (uint _amt, uint _tdrID, string memory _name)\r\n   public\r\n   payable\r\n   {\r\n       require(tdrs[_tdrID].startTime<block.timestamp, \"Bid has not started.\");\r\n       require(tdrs[_tdrID].endTime>block.timestamp, \"Bid has ended.\");\r\n       if(bidders[msg.sender].bidded){\r\n           amt=_amt+bidders[msg.sender].bidAmt;\r\n       }else{\r\n           amt=_amt;\r\n       }\r\n       require(amt>tdrs[_tdrID].maxBid, \"Bid is lower than the current bid.\");\r\n       bidders[msg.sender] = bidder(_name, true, amt);\r\n       tdrs[_tdrID].accBal+=amt;\r\n       if(bidders[msg.sender].bidAmt>tdrs[_tdrID].maxBid){\r\n           tdrs[_tdrID].maxBid = amt;\r\n           tdrs[_tdrID].highestBidder = msg.sender;\r\n       }\r\n   }\r\n\r\n}",
  "sourcePath": "C:\\Users\\akash\\OneDrive\\Documents\\project\\D-Ender-Ethereum-dApp\\src\\contracts\\dender.sol",
  "compiler": {
    "name": "solc",
    "version": "0.8.17+commit.8df45f5f.Emscripten.clang"
  },
  "schemaVersion": "3.4.11",
  "updatedAt": "2023-02-21T11:08:57.441Z",
  "networkType": "ethereum",
  "devdoc": {
    "kind": "dev",
    "methods": {},
    "version": 1
  },
  "userdoc": {
    "kind": "user",
    "methods": {},
    "version": 1
  }
}