{
  "contractName": "openDender",
  "abi": [
    {
      "inputs": [],
      "stateMutability": "nonpayable",
      "type": "constructor"
    },
    {
      "inputs": [
        {
          "internalType": "address",
          "name": "",
          "type": "address"
        }
      ],
      "name": "bidders",
      "outputs": [
        {
          "internalType": "string",
          "name": "bidderName",
          "type": "string"
        },
        {
          "internalType": "bool",
          "name": "bidded",
          "type": "bool"
        }
      ],
      "stateMutability": "view",
      "type": "function"
    },
    {
      "inputs": [],
      "name": "manager",
      "outputs": [
        {
          "internalType": "address",
          "name": "",
          "type": "address"
        }
      ],
      "stateMutability": "view",
      "type": "function"
    },
    {
      "inputs": [
        {
          "internalType": "uint256",
          "name": "",
          "type": "uint256"
        }
      ],
      "name": "tdrs",
      "outputs": [
        {
          "internalType": "uint256",
          "name": "id",
          "type": "uint256"
        },
        {
          "internalType": "string",
          "name": "title",
          "type": "string"
        },
        {
          "internalType": "address",
          "name": "mngr",
          "type": "address"
        },
        {
          "internalType": "string",
          "name": "desc",
          "type": "string"
        },
        {
          "internalType": "uint256",
          "name": "startTime",
          "type": "uint256"
        },
        {
          "internalType": "uint256",
          "name": "endTime",
          "type": "uint256"
        },
        {
          "internalType": "uint256",
          "name": "accBal",
          "type": "uint256"
        },
        {
          "internalType": "uint256",
          "name": "maxBid",
          "type": "uint256"
        },
        {
          "internalType": "address",
          "name": "highestBidder",
          "type": "address"
        },
        {
          "internalType": "uint256",
          "name": "bidCount",
          "type": "uint256"
        }
      ],
      "stateMutability": "view",
      "type": "function"
    },
    {
      "inputs": [
        {
          "internalType": "string",
          "name": "_title",
          "type": "string"
        },
        {
          "internalType": "uint256",
          "name": "_bidO",
          "type": "uint256"
        },
        {
          "internalType": "uint256",
          "name": "_bidC",
          "type": "uint256"
        },
        {
          "internalType": "string",
          "name": "_description",
          "type": "string"
        }
      ],
      "name": "createTender",
      "outputs": [],
      "stateMutability": "nonpayable",
      "type": "function"
    },
    {
      "inputs": [
        {
          "internalType": "uint256",
          "name": "_tdrID",
          "type": "uint256"
        },
        {
          "internalType": "string",
          "name": "_name",
          "type": "string"
        }
      ],
      "name": "bid",
      "outputs": [],
      "stateMutability": "payable",
      "type": "function"
    },
    {
      "inputs": [
        {
          "internalType": "uint256",
          "name": "_tdrID",
          "type": "uint256"
        }
      ],
      "name": "withdrawFunds",
      "outputs": [],
      "stateMutability": "payable",
      "type": "function"
    },
    {
      "inputs": [
        {
          "internalType": "uint256",
          "name": "_tdrID",
          "type": "uint256"
        }
      ],
      "name": "payTdrMngr",
      "outputs": [],
      "stateMutability": "payable",
      "type": "function"
    },
    {
      "inputs": [],
      "name": "getTdrCount",
      "outputs": [
        {
          "internalType": "uint256",
          "name": "count",
          "type": "uint256"
        }
      ],
      "stateMutability": "view",
      "type": "function"
    },
    {
      "inputs": [
        {
          "internalType": "uint256",
          "name": "_tdrID",
          "type": "uint256"
        }
      ],
      "name": "highestBidOfTdr",
      "outputs": [
        {
          "internalType": "uint256",
          "name": "highestBid",
          "type": "uint256"
        }
      ],
      "stateMutability": "view",
      "type": "function"
    },
    {
      "inputs": [
        {
          "internalType": "uint256",
          "name": "_tdrID",
          "type": "uint256"
        }
      ],
      "name": "highestBidderOfTdr",
      "outputs": [
        {
          "internalType": "address",
          "name": "highestBidderAdr",
          "type": "address"
        }
      ],
      "stateMutability": "view",
      "type": "function"
    },
    {
      "inputs": [
        {
          "internalType": "uint256",
          "name": "_tdrID",
          "type": "uint256"
        }
      ],
      "name": "getTdrInfo",
      "outputs": [
        {
          "internalType": "uint256",
          "name": "id",
          "type": "uint256"
        },
        {
          "internalType": "string",
          "name": "title",
          "type": "string"
        },
        {
          "internalType": "string",
          "name": "desc",
          "type": "string"
        },
        {
          "internalType": "uint256",
          "name": "startTime",
          "type": "uint256"
        },
        {
          "internalType": "uint256",
          "name": "endTime",
          "type": "uint256"
        },
        {
          "internalType": "uint256",
          "name": "maxBid",
          "type": "uint256"
        },
        {
          "internalType": "uint256",
          "name": "currentTime",
          "type": "uint256"
        }
      ],
      "stateMutability": "view",
      "type": "function"
    },
    {
      "inputs": [
        {
          "internalType": "uint256",
          "name": "_tdrID",
          "type": "uint256"
        }
      ],
      "name": "getWinningBid",
      "outputs": [
        {
          "internalType": "address",
          "name": "winnerAddress",
          "type": "address"
        },
        {
          "internalType": "uint256",
          "name": "winningBidAmt",
          "type": "uint256"
        }
      ],
      "stateMutability": "view",
      "type": "function"
    },
    {
      "inputs": [
        {
          "internalType": "uint256",
          "name": "_tdrID",
          "type": "uint256"
        },
        {
          "internalType": "uint256",
          "name": "_bidID",
          "type": "uint256"
        }
      ],
      "name": "getBiddersOfTdr",
      "outputs": [
        {
          "internalType": "address",
          "name": "bidderAdr",
          "type": "address"
        },
        {
          "internalType": "uint256",
          "name": "bidAmt",
          "type": "uint256"
        }
      ],
      "stateMutability": "view",
      "type": "function"
    },
    {
      "inputs": [
        {
          "internalType": "uint256",
          "name": "_tdrID",
          "type": "uint256"
        }
      ],
      "name": "getBidderCountofTdr",
      "outputs": [
        {
          "internalType": "uint256",
          "name": "count",
          "type": "uint256"
        }
      ],
      "stateMutability": "view",
      "type": "function"
    }
  ],
  "bytecode": "0x608060405234801561001057600080fd5b5033600260006101000a81548173ffffffffffffffffffffffffffffffffffffffff021916908373ffffffffffffffffffffffffffffffffffffffff1602179055506122c2806100616000396000f3fe6080604052600436106100dd5760003560e01c80636891939d1161007f578063a09bff4111610059578063a09bff41146102b1578063c1b80d44146102ee578063ebaaa7f81461032b578063fcc8f79314610371576100dd565b80636891939d146101f25780637220a9a01461023057806398bddce814610273576100dd565b8063263b20bd116100bb578063263b20bd146101365780633130a9d01461017357806345ae5daf1461019c578063481c6a75146101c7576100dd565b80630fc55fd1146100e2578063155dd5ee146100fe57806325f084d51461011a575b600080fd5b6100fc60048036038101906100f791906116c2565b6103af565b005b6101186004803603810190610113919061171e565b610949565b005b610134600480360381019061012f919061171e565b610bde565b005b34801561014257600080fd5b5061015d6004803603810190610158919061171e565b610db6565b60405161016a919061175a565b60405180910390f35b34801561017f57600080fd5b5061019a60048036038101906101959190611775565b610dd5565b005b3480156101a857600080fd5b506101b1610eea565b6040516101be919061175a565b60405180910390f35b3480156101d357600080fd5b506101dc610ef4565b6040516101e99190611855565b60405180910390f35b3480156101fe57600080fd5b506102196004803603810190610214919061171e565b610f1a565b604051610227929190611870565b60405180910390f35b34801561023c57600080fd5b506102576004803603810190610252919061171e565b610fc9565b60405161026a9796959493929190611918565b60405180910390f35b34801561027f57600080fd5b5061029a60048036038101906102959190611995565b611188565b6040516102a8929190611870565b60405180910390f35b3480156102bd57600080fd5b506102d860048036038101906102d3919061171e565b611277565b6040516102e5919061175a565b60405180910390f35b3480156102fa57600080fd5b506103156004803603810190610310919061171e565b611296565b6040516103229190611855565b60405180910390f35b34801561033757600080fd5b50610352600480360381019061034d919061171e565b6112d5565b6040516103689a999897969594939291906119d5565b60405180910390f35b34801561037d57600080fd5b5061039860048036038101906103939190611aab565b611479565b6040516103a6929190611af3565b60405180910390f35b426000808481526020019081526020016000206004015410610406576040517f08c379a00000000000000000000000000000000000000000000000000000000081526004016103fd90611b6f565b60405180910390fd5b42600080848152602001908152602001600020600501541161045d576040517f08c379a000000000000000000000000000000000000000000000000000000000815260040161045490611bdb565b60405180910390fd5b600160003373ffffffffffffffffffffffffffffffffffffffff1673ffffffffffffffffffffffffffffffffffffffff16815260200190815260200160002060010160009054906101000a900460ff161561061d57600160003373ffffffffffffffffffffffffffffffffffffffff1673ffffffffffffffffffffffffffffffffffffffff168152602001908152602001600020600201600083815260200190815260200160002054346105119190611c2a565b6005819055506000600160003373ffffffffffffffffffffffffffffffffffffffff1673ffffffffffffffffffffffffffffffffffffffff168152602001908152602001600020600201600084815260200190815260200160002054036106185733600080848152602001908152602001600020600a01600080600086815260200190815260200160002060090154815260200190815260200160002060006101000a81548173ffffffffffffffffffffffffffffffffffffffff021916908373ffffffffffffffffffffffffffffffffffffffff160217905550600080838152602001908152602001600020600901600081548092919061061290611c5e565b91905055505b6106ca565b3460058190555033600080848152602001908152602001600020600a01600080600086815260200190815260200160002060090154815260200190815260200160002060006101000a81548173ffffffffffffffffffffffffffffffffffffffff021916908373ffffffffffffffffffffffffffffffffffffffff16021790555060008083815260200190815260200160002060090160008154809291906106c490611c5e565b91905055505b6000808381526020019081526020016000206007015460055411610723576040517f08c379a000000000000000000000000000000000000000000000000000000000815260040161071a90611d18565b60405180910390fd5b6000600160003373ffffffffffffffffffffffffffffffffffffffff1673ffffffffffffffffffffffffffffffffffffffff1681526020019081526020016000209050818160000190816107779190611f44565b5060018160010160006101000a81548160ff0219169083151502179055506005548160020160008581526020019081526020016000208190555060055460008085815260200190815260200160002060060160008282546107d89190611c2a565b9250508190555060008084815260200190815260200160002060070154600160003373ffffffffffffffffffffffffffffffffffffffff1673ffffffffffffffffffffffffffffffffffffffff16815260200190815260200160002060020160008581526020019081526020016000205411156108c057600554600080858152602001908152602001600020600701819055503360008085815260200190815260200160002060080160006101000a81548173ffffffffffffffffffffffffffffffffffffffff021916908373ffffffffffffffffffffffffffffffffffffffff1602179055505b61025842600080868152602001908152602001600020600501546108e49190612016565b101561094457426000808581526020019081526020016000206005015461090b9190612016565b6102586109189190612016565b600080858152602001908152602001600020600501600082825461093c9190611c2a565b925050819055505b505050565b4260008083815260200190815260200160002060050154106109a0576040517f08c379a000000000000000000000000000000000000000000000000000000000815260040161099790612096565b60405180910390fd5b6000600160003373ffffffffffffffffffffffffffffffffffffffff1673ffffffffffffffffffffffffffffffffffffffff16815260200190815260200160002060020160008381526020019081526020016000205411610a36576040517f08c379a0000000000000000000000000000000000000000000000000000000008152600401610a2d90612128565b60405180910390fd5b60003373ffffffffffffffffffffffffffffffffffffffff166108fc600160003373ffffffffffffffffffffffffffffffffffffffff1673ffffffffffffffffffffffffffffffffffffffff1681526020019081526020016000206002016000858152602001908152602001600020549081150290604051600060405180830381858888f19350505050905080610b02576040517f08c379a0000000000000000000000000000000000000000000000000000000008152600401610af990612194565b60405180910390fd5b600160003373ffffffffffffffffffffffffffffffffffffffff1673ffffffffffffffffffffffffffffffffffffffff1681526020019081526020016000206002016000838152602001908152602001600020546000808481526020019081526020016000206006016000828254610b7a9190612016565b925050819055506000600160003373ffffffffffffffffffffffffffffffffffffffff1673ffffffffffffffffffffffffffffffffffffffff1681526020019081526020016000206002016000848152602001908152602001600020819055505050565b600260009054906101000a900473ffffffffffffffffffffffffffffffffffffffff1673ffffffffffffffffffffffffffffffffffffffff163373ffffffffffffffffffffffffffffffffffffffff1614610c3857600080fd5b426000808381526020019081526020016000206005015410610c8f576040517f08c379a0000000000000000000000000000000000000000000000000000000008152600401610c8690612096565b60405180910390fd5b60008060008381526020019081526020016000206007015411610ce7576040517f08c379a0000000000000000000000000000000000000000000000000000000008152600401610cde90612200565b60405180910390fd5b6000600260009054906101000a900473ffffffffffffffffffffffffffffffffffffffff1673ffffffffffffffffffffffffffffffffffffffff166108fc600080858152602001908152602001600020600701549081150290604051600060405180830381858888f19350505050905080610d97576040517f08c379a0000000000000000000000000000000000000000000000000000000008152600401610d8e9061226c565b60405180910390fd5b6000806000848152602001908152602001600020600701819055505050565b6000806000838152602001908152602001600020600901549050919050565b600260009054906101000a900473ffffffffffffffffffffffffffffffffffffffff1673ffffffffffffffffffffffffffffffffffffffff163373ffffffffffffffffffffffffffffffffffffffff1614610e2f57600080fd5b600080600060035481526020019081526020016000209050600354816000018190555084816001019081610e639190611f44565b5081816003019081610e759190611f44565b50838160040181905550828160050181905550338160020160006101000a81548173ffffffffffffffffffffffffffffffffffffffff021916908373ffffffffffffffffffffffffffffffffffffffff16021790555060036000815480929190610ede90611c5e565b91905055505050505050565b6000600354905090565b600260009054906101000a900473ffffffffffffffffffffffffffffffffffffffff1681565b600080426000808581526020019081526020016000206005015410610f74576040517f08c379a0000000000000000000000000000000000000000000000000000000008152600401610f6b90612096565b60405180910390fd5b60008084815260200190815260200160002060080160009054906101000a900473ffffffffffffffffffffffffffffffffffffffff166000808581526020019081526020016000206007015491509150915091565b6000606080600080600080600080898152602001908152602001600020600001546000808a81526020019081526020016000206001016000808b81526020019081526020016000206003016000808c8152602001908152602001600020600401546000808d8152602001908152602001600020600501546000808e8152602001908152602001600020600701544285805461106390611d67565b80601f016020809104026020016040519081016040528092919081815260200182805461108f90611d67565b80156110dc5780601f106110b1576101008083540402835291602001916110dc565b820191906000526020600020905b8154815290600101906020018083116110bf57829003601f168201915b505050505095508480546110ef90611d67565b80601f016020809104026020016040519081016040528092919081815260200182805461111b90611d67565b80156111685780601f1061113d57610100808354040283529160200191611168565b820191906000526020600020905b81548152906001019060200180831161114b57829003601f168201915b505050505094509650965096509650965096509650919395979092949650565b600080600080858152602001908152602001600020600a01600084815260200190815260200160002060009054906101000a900473ffffffffffffffffffffffffffffffffffffffff1660016000806000888152602001908152602001600020600a01600087815260200190815260200160002060009054906101000a900473ffffffffffffffffffffffffffffffffffffffff1673ffffffffffffffffffffffffffffffffffffffff1673ffffffffffffffffffffffffffffffffffffffff168152602001908152602001600020600201600086815260200190815260200160002054915091509250929050565b6000806000838152602001908152602001600020600701549050919050565b600080600083815260200190815260200160002060080160009054906101000a900473ffffffffffffffffffffffffffffffffffffffff169050919050565b60006020528060005260406000206000915090508060000154908060010180546112fe90611d67565b80601f016020809104026020016040519081016040528092919081815260200182805461132a90611d67565b80156113775780601f1061134c57610100808354040283529160200191611377565b820191906000526020600020905b81548152906001019060200180831161135a57829003601f168201915b5050505050908060020160009054906101000a900473ffffffffffffffffffffffffffffffffffffffff16908060030180546113b290611d67565b80601f01602080910402602001604051908101604052809291908181526020018280546113de90611d67565b801561142b5780601f106114005761010080835404028352916020019161142b565b820191906000526020600020905b81548152906001019060200180831161140e57829003601f168201915b5050505050908060040154908060050154908060060154908060070154908060080160009054906101000a900473ffffffffffffffffffffffffffffffffffffffff1690806009015490508a565b600160205280600052604060002060009150905080600001805461149c90611d67565b80601f01602080910402602001604051908101604052809291908181526020018280546114c890611d67565b80156115155780601f106114ea57610100808354040283529160200191611515565b820191906000526020600020905b8154815290600101906020018083116114f857829003601f168201915b5050505050908060010160009054906101000a900460ff16905082565b6000604051905090565b600080fd5b600080fd5b6000819050919050565b61155981611546565b811461156457600080fd5b50565b60008135905061157681611550565b92915050565b600080fd5b600080fd5b6000601f19601f8301169050919050565b7f4e487b7100000000000000000000000000000000000000000000000000000000600052604160045260246000fd5b6115cf82611586565b810181811067ffffffffffffffff821117156115ee576115ed611597565b5b80604052505050565b6000611601611532565b905061160d82826115c6565b919050565b600067ffffffffffffffff82111561162d5761162c611597565b5b61163682611586565b9050602081019050919050565b82818337600083830152505050565b600061166561166084611612565b6115f7565b90508281526020810184848401111561168157611680611581565b5b61168c848285611643565b509392505050565b600082601f8301126116a9576116a861157c565b5b81356116b9848260208601611652565b91505092915050565b600080604083850312156116d9576116d861153c565b5b60006116e785828601611567565b925050602083013567ffffffffffffffff81111561170857611707611541565b5b61171485828601611694565b9150509250929050565b6000602082840312156117345761173361153c565b5b600061174284828501611567565b91505092915050565b61175481611546565b82525050565b600060208201905061176f600083018461174b565b92915050565b6000806000806080858703121561178f5761178e61153c565b5b600085013567ffffffffffffffff8111156117ad576117ac611541565b5b6117b987828801611694565b94505060206117ca87828801611567565b93505060406117db87828801611567565b925050606085013567ffffffffffffffff8111156117fc576117fb611541565b5b61180887828801611694565b91505092959194509250565b600073ffffffffffffffffffffffffffffffffffffffff82169050919050565b600061183f82611814565b9050919050565b61184f81611834565b82525050565b600060208201905061186a6000830184611846565b92915050565b60006040820190506118856000830185611846565b611892602083018461174b565b9392505050565b600081519050919050565b600082825260208201905092915050565b60005b838110156118d35780820151818401526020810190506118b8565b60008484015250505050565b60006118ea82611899565b6118f481856118a4565b93506119048185602086016118b5565b61190d81611586565b840191505092915050565b600060e08201905061192d600083018a61174b565b818103602083015261193f81896118df565b9050818103604083015261195381886118df565b9050611962606083018761174b565b61196f608083018661174b565b61197c60a083018561174b565b61198960c083018461174b565b98975050505050505050565b600080604083850312156119ac576119ab61153c565b5b60006119ba85828601611567565b92505060206119cb85828601611567565b9150509250929050565b6000610140820190506119eb600083018d61174b565b81810360208301526119fd818c6118df565b9050611a0c604083018b611846565b8181036060830152611a1e818a6118df565b9050611a2d608083018961174b565b611a3a60a083018861174b565b611a4760c083018761174b565b611a5460e083018661174b565b611a62610100830185611846565b611a7061012083018461174b565b9b9a5050505050505050505050565b611a8881611834565b8114611a9357600080fd5b50565b600081359050611aa581611a7f565b92915050565b600060208284031215611ac157611ac061153c565b5b6000611acf84828501611a96565b91505092915050565b60008115159050919050565b611aed81611ad8565b82525050565b60006040820190508181036000830152611b0d81856118df565b9050611b1c6020830184611ae4565b9392505050565b7f42696420686173206e6f7420737461727465642e000000000000000000000000600082015250565b6000611b596014836118a4565b9150611b6482611b23565b602082019050919050565b60006020820190508181036000830152611b8881611b4c565b9050919050565b7f4269642068617320656e6465642e000000000000000000000000000000000000600082015250565b6000611bc5600e836118a4565b9150611bd082611b8f565b602082019050919050565b60006020820190508181036000830152611bf481611bb8565b9050919050565b7f4e487b7100000000000000000000000000000000000000000000000000000000600052601160045260246000fd5b6000611c3582611546565b9150611c4083611546565b9250828201905080821115611c5857611c57611bfb565b5b92915050565b6000611c6982611546565b91507fffffffffffffffffffffffffffffffffffffffffffffffffffffffffffffffff8203611c9b57611c9a611bfb565b5b600182019050919050565b7f426964206973206c6f776572207468616e207468652063757272656e7420626960008201527f642e000000000000000000000000000000000000000000000000000000000000602082015250565b6000611d026022836118a4565b9150611d0d82611ca6565b604082019050919050565b60006020820190508181036000830152611d3181611cf5565b9050919050565b7f4e487b7100000000000000000000000000000000000000000000000000000000600052602260045260246000fd5b60006002820490506001821680611d7f57607f821691505b602082108103611d9257611d91611d38565b5b50919050565b60008190508160005260206000209050919050565b60006020601f8301049050919050565b600082821b905092915050565b600060088302611dfa7fffffffffffffffffffffffffffffffffffffffffffffffffffffffffffffffff82611dbd565b611e048683611dbd565b95508019841693508086168417925050509392505050565b6000819050919050565b6000611e41611e3c611e3784611546565b611e1c565b611546565b9050919050565b6000819050919050565b611e5b83611e26565b611e6f611e6782611e48565b848454611dca565b825550505050565b600090565b611e84611e77565b611e8f818484611e52565b505050565b5b81811015611eb357611ea8600082611e7c565b600181019050611e95565b5050565b601f821115611ef857611ec981611d98565b611ed284611dad565b81016020851015611ee1578190505b611ef5611eed85611dad565b830182611e94565b50505b505050565b600082821c905092915050565b6000611f1b60001984600802611efd565b1980831691505092915050565b6000611f348383611f0a565b9150826002028217905092915050565b611f4d82611899565b67ffffffffffffffff811115611f6657611f65611597565b5b611f708254611d67565b611f7b828285611eb7565b600060209050601f831160018114611fae5760008415611f9c578287015190505b611fa68582611f28565b86555061200e565b601f198416611fbc86611d98565b60005b82811015611fe457848901518255600182019150602085019450602081019050611fbf565b868310156120015784890151611ffd601f891682611f0a565b8355505b6001600288020188555050505b505050505050565b600061202182611546565b915061202c83611546565b925082820390508181111561204457612043611bfb565b5b92915050565b7f42696420686173206e6f7420656e6465642e0000000000000000000000000000600082015250565b60006120806012836118a4565b915061208b8261204a565b602082019050919050565b600060208201905081810360008301526120af81612073565b9050919050565b7f596f7520646f206e6f74206861766520616e796d6f726520657468657220746f60008201527f2077697468647261772066726f6d2074686520636f6e74726163742e00000000602082015250565b6000612112603c836118a4565b915061211d826120b6565b604082019050919050565b6000602082019050818103600083015261214181612105565b9050919050565b7f4572726f72000000000000000000000000000000000000000000000000000000600082015250565b600061217e6005836118a4565b915061218982612148565b602082019050919050565b600060208201905081810360008301526121ad81612171565b9050919050565b7f4e6f206269647320706c616365642e0000000000000000000000000000000000600082015250565b60006121ea600f836118a4565b91506121f5826121b4565b602082019050919050565b60006020820190508181036000830152612219816121dd565b9050919050565b7f5061796d656e74206661696c6564000000000000000000000000000000000000600082015250565b6000612256600e836118a4565b915061226182612220565b602082019050919050565b6000602082019050818103600083015261228581612249565b905091905056fea2646970667358221220c0d3124255925aa3ebfc987fa12700e2ebed25c36eaf341dc4c9c24b4eb666d564736f6c63430008110033",
  "immutableReferences": {},
  "source": "    // SPDX-License-Identifier: GPL-3.0\r\n    pragma solidity ^0.8.11;\r\n\r\n    contract openDender{\r\n\r\n        struct tdr {\r\n            uint id;\r\n            string title;\r\n            address mngr;\r\n            string desc;\r\n            uint startTime;\r\n            uint endTime;\r\n            uint accBal;\r\n            uint maxBid;\r\n            address highestBidder;\r\n            uint bidCount;\r\n            mapping(uint => address) bidders;\r\n        }\r\n\r\n        struct bidder {\r\n            string bidderName;\r\n            bool bidded;\r\n            mapping(uint => uint) bidAmt;\r\n        }\r\n\r\n        mapping(uint => tdr) public tdrs;\r\n        mapping(address => bidder) public bidders;\r\n\r\n        address public manager;\r\n        uint tdrCount;\r\n        uint time;\r\n        uint amt;\r\n\r\n        modifier onlyOfficial(){\r\n            require(msg.sender == manager);\r\n            _; \r\n        }\r\n\r\n        constructor(){\r\n            manager= msg.sender;\r\n        }\r\n\r\n        function createTender (string memory _title,uint _bidO,uint _bidC,string memory _description)\r\n        public\r\n        onlyOfficial\r\n        {\r\n            tdr storage t= tdrs[tdrCount];\r\n            t.id=tdrCount;\r\n            t.title=_title;\r\n            t.desc=_description;\r\n            t.startTime=_bidO;\r\n            t.endTime=_bidC;\r\n            t.mngr = msg.sender;\r\n            tdrCount++;\r\n        }\r\n\r\n        function bid (uint _tdrID, string memory _name)\r\n        public\r\n        payable\r\n        {\r\n            require(tdrs[_tdrID].startTime < block.timestamp, \"Bid has not started.\");\r\n            require(tdrs[_tdrID].endTime > block.timestamp, \"Bid has ended.\");\r\n            if(bidders[msg.sender].bidded){\r\n                amt=msg.value+bidders[msg.sender].bidAmt[_tdrID];\r\n                if(bidders[msg.sender].bidAmt[_tdrID]==0){\r\n                    tdrs[_tdrID].bidders[tdrs[_tdrID].bidCount]=msg.sender;\r\n                    tdrs[_tdrID].bidCount++;\r\n                }\r\n            }else{\r\n                amt=msg.value;\r\n                tdrs[_tdrID].bidders[tdrs[_tdrID].bidCount]=msg.sender;\r\n                tdrs[_tdrID].bidCount++;\r\n            }\r\n            \r\n            require(amt>tdrs[_tdrID].maxBid, \"Bid is lower than the current bid.\");\r\n            bidder storage b = bidders[msg.sender];\r\n            b.bidderName = _name;\r\n            b.bidded = true;\r\n            b.bidAmt[_tdrID] = amt;\r\n            tdrs[_tdrID].accBal += amt;\r\n            if(bidders[msg.sender].bidAmt[_tdrID] > tdrs[_tdrID].maxBid){\r\n                tdrs[_tdrID].maxBid = amt;\r\n                tdrs[_tdrID].highestBidder = msg.sender;\r\n            }\r\n\r\n            if(tdrs[_tdrID].endTime-block.timestamp < 600){\r\n                tdrs[_tdrID].endTime+= 600-(tdrs[_tdrID].endTime-block.timestamp);\r\n            }\r\n        }\r\n\r\n        function withdrawFunds (uint _tdrID) \r\n        public\r\n        payable\r\n        {\r\n                require(tdrs[_tdrID].endTime < block.timestamp, \"Bid has not ended.\");\r\n                require(bidders[msg.sender].bidAmt[_tdrID] > 0, \"You do not have anymore ether to withdraw from the contract.\");\r\n                bool sent = payable(msg.sender).send(bidders[msg.sender].bidAmt[_tdrID]);\r\n                require(sent,\"Error\");\r\n                tdrs[_tdrID].accBal-=bidders[msg.sender].bidAmt[_tdrID];\r\n                bidders[msg.sender].bidAmt[_tdrID]=0;\r\n        }\r\n\r\n        function payTdrMngr (uint _tdrID)\r\n        public\r\n        payable\r\n        onlyOfficial\r\n        {\r\n            require(tdrs[_tdrID].endTime < block.timestamp, \"Bid has not ended.\");\r\n            require(tdrs[_tdrID].maxBid > 0, \"No bids placed.\");\r\n            bool sent = payable(manager).send(tdrs[_tdrID].maxBid);\r\n            require(sent,\"Payment failed\");\r\n            tdrs[_tdrID].maxBid=0;\r\n        }\r\n\r\n        function getTdrCount ()\r\n        public\r\n        view \r\n        returns(uint count)\r\n        {\r\n            return tdrCount;\r\n        }\r\n        \r\n\r\n        function highestBidOfTdr (uint _tdrID)\r\n        public\r\n        view\r\n        returns(uint highestBid)\r\n        {\r\n            return tdrs[_tdrID].maxBid;\r\n        }\r\n\r\n        function highestBidderOfTdr (uint _tdrID)\r\n        public\r\n        view\r\n        returns(address highestBidderAdr)\r\n        {\r\n            return tdrs[_tdrID].highestBidder;\r\n        }\r\n\r\n        function getTdrInfo (uint _tdrID)\r\n        public\r\n        view\r\n        returns(uint id,string memory title, string memory desc, uint startTime, uint endTime, uint maxBid, uint currentTime)\r\n        {\r\n            return(tdrs[_tdrID].id ,tdrs[_tdrID].title, tdrs[_tdrID].desc, tdrs[_tdrID].startTime, tdrs[_tdrID].endTime, tdrs[_tdrID].maxBid, block.timestamp);\r\n        }\r\n\r\n        function getWinningBid (uint _tdrID)\r\n        public\r\n        view\r\n        returns(address winnerAddress, uint winningBidAmt)\r\n        {   \r\n            require(tdrs[_tdrID].endTime < block.timestamp, \"Bid has not ended.\");\r\n            return(tdrs[_tdrID].highestBidder, tdrs[_tdrID].maxBid);\r\n        }\r\n\r\n        function getBiddersOfTdr (uint _tdrID, uint _bidID)\r\n        public\r\n        view\r\n        returns(address bidderAdr, uint bidAmt)\r\n        {\r\n            return(tdrs[_tdrID].bidders[_bidID], bidders[tdrs[_tdrID].bidders[_bidID]].bidAmt[_tdrID]);\r\n        }\r\n         \r\n        function getBidderCountofTdr (uint _tdrID) \r\n        public\r\n        view\r\n        returns(uint count)\r\n        {\r\n            return tdrs[_tdrID].bidCount;\r\n        }\r\n\r\n    }",
  "sourcePath": "C:\\Users\\akash\\OneDrive\\Documents\\project\\D-Ender-Ethereum-dApp\\src\\contracts\\openDender.sol",
  "compiler": {
    "name": "solc",
    "version": "0.8.17+commit.8df45f5f.Emscripten.clang"
  },
  "schemaVersion": "3.4.11",
  "updatedAt": "2023-05-23T21:59:18.813Z",
  "devdoc": {
    "kind": "dev",
    "methods": {},
    "version": 1
  },
  "userdoc": {
    "kind": "user",
    "methods": {},
    "version": 1
  }
}