{
  "contractName": "openDender",
  "abi": [
    {
      "inputs": [],
      "stateMutability": "nonpayable",
      "type": "constructor"
    },
    {
      "inputs": [
        {
          "internalType": "address",
          "name": "",
          "type": "address"
        }
      ],
      "name": "bidders",
      "outputs": [
        {
          "internalType": "string",
          "name": "bidderName",
          "type": "string"
        },
        {
          "internalType": "bool",
          "name": "bidded",
          "type": "bool"
        }
      ],
      "stateMutability": "view",
      "type": "function",
      "constant": true
    },
    {
      "inputs": [],
      "name": "manager",
      "outputs": [
        {
          "internalType": "address",
          "name": "",
          "type": "address"
        }
      ],
      "stateMutability": "view",
      "type": "function",
      "constant": true
    },
    {
      "inputs": [
        {
          "internalType": "uint256",
          "name": "",
          "type": "uint256"
        }
      ],
      "name": "tdrs",
      "outputs": [
        {
          "internalType": "uint256",
          "name": "id",
          "type": "uint256"
        },
        {
          "internalType": "string",
          "name": "title",
          "type": "string"
        },
        {
          "internalType": "address",
          "name": "mngr",
          "type": "address"
        },
        {
          "internalType": "string",
          "name": "desc",
          "type": "string"
        },
        {
          "internalType": "uint256",
          "name": "startTime",
          "type": "uint256"
        },
        {
          "internalType": "uint256",
          "name": "endTime",
          "type": "uint256"
        },
        {
          "internalType": "uint256",
          "name": "accBal",
          "type": "uint256"
        },
        {
          "internalType": "uint256",
          "name": "maxBid",
          "type": "uint256"
        },
        {
          "internalType": "address",
          "name": "highestBidder",
          "type": "address"
        }
      ],
      "stateMutability": "view",
      "type": "function",
      "constant": true
    },
    {
      "inputs": [
        {
          "internalType": "string",
          "name": "_title",
          "type": "string"
        },
        {
          "internalType": "uint256",
          "name": "_bidO",
          "type": "uint256"
        },
        {
          "internalType": "uint256",
          "name": "_bidC",
          "type": "uint256"
        },
        {
          "internalType": "string",
          "name": "_description",
          "type": "string"
        }
      ],
      "name": "createTender",
      "outputs": [],
      "stateMutability": "nonpayable",
      "type": "function"
    },
    {
      "inputs": [
        {
          "internalType": "uint256",
          "name": "_tdrID",
          "type": "uint256"
        },
        {
          "internalType": "string",
          "name": "_name",
          "type": "string"
        }
      ],
      "name": "bid",
      "outputs": [],
      "stateMutability": "payable",
      "type": "function",
      "payable": true
    },
    {
      "inputs": [
        {
          "internalType": "uint256",
          "name": "_tdrID",
          "type": "uint256"
        }
      ],
      "name": "withdrawFunds",
      "outputs": [],
      "stateMutability": "payable",
      "type": "function",
      "payable": true
    },
    {
      "inputs": [
        {
          "internalType": "uint256",
          "name": "_tdrID",
          "type": "uint256"
        }
      ],
      "name": "payTdrMngr",
      "outputs": [],
      "stateMutability": "payable",
      "type": "function",
      "payable": true
    },
    {
      "inputs": [
        {
          "internalType": "uint256",
          "name": "_tdrID",
          "type": "uint256"
        }
      ],
      "name": "highestBidOfTdr",
      "outputs": [
        {
          "internalType": "uint256",
          "name": "highestBid",
          "type": "uint256"
        }
      ],
      "stateMutability": "view",
      "type": "function",
      "constant": true
    },
    {
      "inputs": [
        {
          "internalType": "uint256",
          "name": "_tdrID",
          "type": "uint256"
        }
      ],
      "name": "highestBidderOfTdr",
      "outputs": [
        {
          "internalType": "address",
          "name": "highestBidderAdr",
          "type": "address"
        }
      ],
      "stateMutability": "view",
      "type": "function",
      "constant": true
    },
    {
      "inputs": [
        {
          "internalType": "uint256",
          "name": "_tdrID",
          "type": "uint256"
        }
      ],
      "name": "getTdrInfo",
      "outputs": [
        {
          "internalType": "string",
          "name": "title",
          "type": "string"
        },
        {
          "internalType": "string",
          "name": "desc",
          "type": "string"
        },
        {
          "internalType": "uint256",
          "name": "startTime",
          "type": "uint256"
        },
        {
          "internalType": "uint256",
          "name": "endTime",
          "type": "uint256"
        },
        {
          "internalType": "uint256",
          "name": "maxBid",
          "type": "uint256"
        }
      ],
      "stateMutability": "view",
      "type": "function",
      "constant": true
    },
    {
      "inputs": [
        {
          "internalType": "uint256",
          "name": "_tdrID",
          "type": "uint256"
        }
      ],
      "name": "getWinningBid",
      "outputs": [
        {
          "internalType": "address",
          "name": "winnerAddress",
          "type": "address"
        },
        {
          "internalType": "uint256",
          "name": "winningBidAmt",
          "type": "uint256"
        }
      ],
      "stateMutability": "view",
      "type": "function",
      "constant": true
    }
  ],
  "bytecode": "0x608060405234801561001057600080fd5b5033600260006101000a81548173ffffffffffffffffffffffffffffffffffffffff021916908373ffffffffffffffffffffffffffffffffffffffff160217905550611e46806100616000396000f3fe60806040526004361061009c5760003560e01c80636891939d116100645780636891939d146101495780637220a9a014610187578063a09bff41146101c8578063c1b80d4414610205578063ebaaa7f814610242578063fcc8f793146102875761009c565b80630fc55fd1146100a1578063155dd5ee146100bd57806325f084d5146100d95780633130a9d0146100f5578063481c6a751461011e575b600080fd5b6100bb60048036038101906100b691906112b1565b6102c5565b005b6100d760048036038101906100d2919061130d565b6106b9565b005b6100f360048036038101906100ee919061130d565b61094e565b005b34801561010157600080fd5b5061011c6004803603810190610117919061133a565b610b26565b005b34801561012a57600080fd5b50610133610bf8565b604051610140919061141a565b60405180910390f35b34801561015557600080fd5b50610170600480360381019061016b919061130d565b610c1e565b60405161017e929190611444565b60405180910390f35b34801561019357600080fd5b506101ae60048036038101906101a9919061130d565b610ccd565b6040516101bf9594939291906114ec565b60405180910390f35b3480156101d457600080fd5b506101ef60048036038101906101ea919061130d565b610e6c565b6040516101fc919061154d565b60405180910390f35b34801561021157600080fd5b5061022c6004803603810190610227919061130d565b610e8b565b604051610239919061141a565b60405180910390f35b34801561024e57600080fd5b506102696004803603810190610264919061130d565b610eca565b60405161027e99989796959493929190611568565b60405180910390f35b34801561029357600080fd5b506102ae60048036038101906102a9919061162f565b611068565b6040516102bc929190611677565b60405180910390f35b42600080848152602001908152602001600020600401541061031c576040517f08c379a0000000000000000000000000000000000000000000000000000000008152600401610313906116f3565b60405180910390fd5b426000808481526020019081526020016000206005015411610373576040517f08c379a000000000000000000000000000000000000000000000000000000000815260040161036a9061175f565b60405180910390fd5b600160003373ffffffffffffffffffffffffffffffffffffffff1673ffffffffffffffffffffffffffffffffffffffff16815260200190815260200160002060010160009054906101000a900460ff161561043257600160003373ffffffffffffffffffffffffffffffffffffffff1673ffffffffffffffffffffffffffffffffffffffff1681526020019081526020016000206002016000838152602001908152602001600020543461042791906117ae565b60058190555061043a565b346005819055505b6000808381526020019081526020016000206007015460055411610493576040517f08c379a000000000000000000000000000000000000000000000000000000000815260040161048a90611854565b60405180910390fd5b6000600160003373ffffffffffffffffffffffffffffffffffffffff1673ffffffffffffffffffffffffffffffffffffffff1681526020019081526020016000209050818160000190816104e79190611a80565b5060018160010160006101000a81548160ff02191690831515021790555060055481600201600085815260200190815260200160002081905550600554600080858152602001908152602001600020600601600082825461054891906117ae565b9250508190555060008084815260200190815260200160002060070154600160003373ffffffffffffffffffffffffffffffffffffffff1673ffffffffffffffffffffffffffffffffffffffff168152602001908152602001600020600201600085815260200190815260200160002054111561063057600554600080858152602001908152602001600020600701819055503360008085815260200190815260200160002060080160006101000a81548173ffffffffffffffffffffffffffffffffffffffff021916908373ffffffffffffffffffffffffffffffffffffffff1602179055505b61025842600080868152602001908152602001600020600501546106549190611b52565b10156106b457426000808581526020019081526020016000206005015461067b9190611b52565b6102586106889190611b52565b60008085815260200190815260200160002060050160008282546106ac91906117ae565b925050819055505b505050565b426000808381526020019081526020016000206005015410610710576040517f08c379a000000000000000000000000000000000000000000000000000000000815260040161070790611bd2565b60405180910390fd5b6000600160003373ffffffffffffffffffffffffffffffffffffffff1673ffffffffffffffffffffffffffffffffffffffff168152602001908152602001600020600201600083815260200190815260200160002054116107a6576040517f08c379a000000000000000000000000000000000000000000000000000000000815260040161079d90611c64565b60405180910390fd5b60003373ffffffffffffffffffffffffffffffffffffffff166108fc600160003373ffffffffffffffffffffffffffffffffffffffff1673ffffffffffffffffffffffffffffffffffffffff1681526020019081526020016000206002016000858152602001908152602001600020549081150290604051600060405180830381858888f19350505050905080610872576040517f08c379a000000000000000000000000000000000000000000000000000000000815260040161086990611cd0565b60405180910390fd5b600160003373ffffffffffffffffffffffffffffffffffffffff1673ffffffffffffffffffffffffffffffffffffffff16815260200190815260200160002060020160008381526020019081526020016000205460008084815260200190815260200160002060060160008282546108ea9190611b52565b925050819055506000600160003373ffffffffffffffffffffffffffffffffffffffff1673ffffffffffffffffffffffffffffffffffffffff1681526020019081526020016000206002016000848152602001908152602001600020819055505050565b600260009054906101000a900473ffffffffffffffffffffffffffffffffffffffff1673ffffffffffffffffffffffffffffffffffffffff163373ffffffffffffffffffffffffffffffffffffffff16146109a857600080fd5b4260008083815260200190815260200160002060050154106109ff576040517f08c379a00000000000000000000000000000000000000000000000000000000081526004016109f690611bd2565b60405180910390fd5b60008060008381526020019081526020016000206007015411610a57576040517f08c379a0000000000000000000000000000000000000000000000000000000008152600401610a4e90611d3c565b60405180910390fd5b6000600260009054906101000a900473ffffffffffffffffffffffffffffffffffffffff1673ffffffffffffffffffffffffffffffffffffffff166108fc600080858152602001908152602001600020600701549081150290604051600060405180830381858888f19350505050905080610b07576040517f08c379a0000000000000000000000000000000000000000000000000000000008152600401610afe90611da8565b60405180910390fd5b6000806000848152602001908152602001600020600701819055505050565b600260009054906101000a900473ffffffffffffffffffffffffffffffffffffffff1673ffffffffffffffffffffffffffffffffffffffff163373ffffffffffffffffffffffffffffffffffffffff1614610b8057600080fd5b600080600060035481526020019081526020016000209050600354816000018190555084816001019081610bb49190611a80565b5081816003019081610bc69190611a80565b5083816004018190555082816005018190555060036000815480929190610bec90611dc8565b91905055505050505050565b600260009054906101000a900473ffffffffffffffffffffffffffffffffffffffff1681565b600080426000808581526020019081526020016000206005015410610c78576040517f08c379a0000000000000000000000000000000000000000000000000000000008152600401610c6f90611bd2565b60405180910390fd5b60008084815260200190815260200160002060080160009054906101000a900473ffffffffffffffffffffffffffffffffffffffff166000808581526020019081526020016000206007015491509150915091565b6060806000806000806000878152602001908152602001600020600101600080888152602001908152602001600020600301600080898152602001908152602001600020600401546000808a8152602001908152602001600020600501546000808b815260200190815260200160002060070154848054610d4d906118a3565b80601f0160208091040260200160405190810160405280929190818152602001828054610d79906118a3565b8015610dc65780601f10610d9b57610100808354040283529160200191610dc6565b820191906000526020600020905b815481529060010190602001808311610da957829003601f168201915b50505050509450838054610dd9906118a3565b80601f0160208091040260200160405190810160405280929190818152602001828054610e05906118a3565b8015610e525780601f10610e2757610100808354040283529160200191610e52565b820191906000526020600020905b815481529060010190602001808311610e3557829003601f168201915b505050505093509450945094509450945091939590929450565b6000806000838152602001908152602001600020600701549050919050565b600080600083815260200190815260200160002060080160009054906101000a900473ffffffffffffffffffffffffffffffffffffffff169050919050565b6000602052806000526040600020600091509050806000015490806001018054610ef3906118a3565b80601f0160208091040260200160405190810160405280929190818152602001828054610f1f906118a3565b8015610f6c5780601f10610f4157610100808354040283529160200191610f6c565b820191906000526020600020905b815481529060010190602001808311610f4f57829003601f168201915b5050505050908060020160009054906101000a900473ffffffffffffffffffffffffffffffffffffffff1690806003018054610fa7906118a3565b80601f0160208091040260200160405190810160405280929190818152602001828054610fd3906118a3565b80156110205780601f10610ff557610100808354040283529160200191611020565b820191906000526020600020905b81548152906001019060200180831161100357829003601f168201915b5050505050908060040154908060050154908060060154908060070154908060080160009054906101000a900473ffffffffffffffffffffffffffffffffffffffff16905089565b600160205280600052604060002060009150905080600001805461108b906118a3565b80601f01602080910402602001604051908101604052809291908181526020018280546110b7906118a3565b80156111045780601f106110d957610100808354040283529160200191611104565b820191906000526020600020905b8154815290600101906020018083116110e757829003601f168201915b5050505050908060010160009054906101000a900460ff16905082565b6000604051905090565b600080fd5b600080fd5b6000819050919050565b61114881611135565b811461115357600080fd5b50565b6000813590506111658161113f565b92915050565b600080fd5b600080fd5b6000601f19601f8301169050919050565b7f4e487b7100000000000000000000000000000000000000000000000000000000600052604160045260246000fd5b6111be82611175565b810181811067ffffffffffffffff821117156111dd576111dc611186565b5b80604052505050565b60006111f0611121565b90506111fc82826111b5565b919050565b600067ffffffffffffffff82111561121c5761121b611186565b5b61122582611175565b9050602081019050919050565b82818337600083830152505050565b600061125461124f84611201565b6111e6565b9050828152602081018484840111156112705761126f611170565b5b61127b848285611232565b509392505050565b600082601f8301126112985761129761116b565b5b81356112a8848260208601611241565b91505092915050565b600080604083850312156112c8576112c761112b565b5b60006112d685828601611156565b925050602083013567ffffffffffffffff8111156112f7576112f6611130565b5b61130385828601611283565b9150509250929050565b6000602082840312156113235761132261112b565b5b600061133184828501611156565b91505092915050565b600080600080608085870312156113545761135361112b565b5b600085013567ffffffffffffffff81111561137257611371611130565b5b61137e87828801611283565b945050602061138f87828801611156565b93505060406113a087828801611156565b925050606085013567ffffffffffffffff8111156113c1576113c0611130565b5b6113cd87828801611283565b91505092959194509250565b600073ffffffffffffffffffffffffffffffffffffffff82169050919050565b6000611404826113d9565b9050919050565b611414816113f9565b82525050565b600060208201905061142f600083018461140b565b92915050565b61143e81611135565b82525050565b6000604082019050611459600083018561140b565b6114666020830184611435565b9392505050565b600081519050919050565b600082825260208201905092915050565b60005b838110156114a757808201518184015260208101905061148c565b60008484015250505050565b60006114be8261146d565b6114c88185611478565b93506114d8818560208601611489565b6114e181611175565b840191505092915050565b600060a082019050818103600083015261150681886114b3565b9050818103602083015261151a81876114b3565b90506115296040830186611435565b6115366060830185611435565b6115436080830184611435565b9695505050505050565b60006020820190506115626000830184611435565b92915050565b60006101208201905061157e600083018c611435565b8181036020830152611590818b6114b3565b905061159f604083018a61140b565b81810360608301526115b181896114b3565b90506115c06080830188611435565b6115cd60a0830187611435565b6115da60c0830186611435565b6115e760e0830185611435565b6115f561010083018461140b565b9a9950505050505050505050565b61160c816113f9565b811461161757600080fd5b50565b60008135905061162981611603565b92915050565b6000602082840312156116455761164461112b565b5b60006116538482850161161a565b91505092915050565b60008115159050919050565b6116718161165c565b82525050565b6000604082019050818103600083015261169181856114b3565b90506116a06020830184611668565b9392505050565b7f42696420686173206e6f7420737461727465642e000000000000000000000000600082015250565b60006116dd601483611478565b91506116e8826116a7565b602082019050919050565b6000602082019050818103600083015261170c816116d0565b9050919050565b7f4269642068617320656e6465642e000000000000000000000000000000000000600082015250565b6000611749600e83611478565b915061175482611713565b602082019050919050565b600060208201905081810360008301526117788161173c565b9050919050565b7f4e487b7100000000000000000000000000000000000000000000000000000000600052601160045260246000fd5b60006117b982611135565b91506117c483611135565b92508282019050808211156117dc576117db61177f565b5b92915050565b7f426964206973206c6f776572207468616e207468652063757272656e7420626960008201527f642e000000000000000000000000000000000000000000000000000000000000602082015250565b600061183e602283611478565b9150611849826117e2565b604082019050919050565b6000602082019050818103600083015261186d81611831565b9050919050565b7f4e487b7100000000000000000000000000000000000000000000000000000000600052602260045260246000fd5b600060028204905060018216806118bb57607f821691505b6020821081036118ce576118cd611874565b5b50919050565b60008190508160005260206000209050919050565b60006020601f8301049050919050565b600082821b905092915050565b6000600883026119367fffffffffffffffffffffffffffffffffffffffffffffffffffffffffffffffff826118f9565b61194086836118f9565b95508019841693508086168417925050509392505050565b6000819050919050565b600061197d61197861197384611135565b611958565b611135565b9050919050565b6000819050919050565b61199783611962565b6119ab6119a382611984565b848454611906565b825550505050565b600090565b6119c06119b3565b6119cb81848461198e565b505050565b5b818110156119ef576119e46000826119b8565b6001810190506119d1565b5050565b601f821115611a3457611a05816118d4565b611a0e846118e9565b81016020851015611a1d578190505b611a31611a29856118e9565b8301826119d0565b50505b505050565b600082821c905092915050565b6000611a5760001984600802611a39565b1980831691505092915050565b6000611a708383611a46565b9150826002028217905092915050565b611a898261146d565b67ffffffffffffffff811115611aa257611aa1611186565b5b611aac82546118a3565b611ab78282856119f3565b600060209050601f831160018114611aea5760008415611ad8578287015190505b611ae28582611a64565b865550611b4a565b601f198416611af8866118d4565b60005b82811015611b2057848901518255600182019150602085019450602081019050611afb565b86831015611b3d5784890151611b39601f891682611a46565b8355505b6001600288020188555050505b505050505050565b6000611b5d82611135565b9150611b6883611135565b9250828203905081811115611b8057611b7f61177f565b5b92915050565b7f42696420686173206e6f7420656e6465642e0000000000000000000000000000600082015250565b6000611bbc601283611478565b9150611bc782611b86565b602082019050919050565b60006020820190508181036000830152611beb81611baf565b9050919050565b7f596f7520646f206e6f74206861766520616e796d6f726520657468657220746f60008201527f2077697468647261772066726f6d2074686520636f6e74726163742e00000000602082015250565b6000611c4e603c83611478565b9150611c5982611bf2565b604082019050919050565b60006020820190508181036000830152611c7d81611c41565b9050919050565b7f4572726f72000000000000000000000000000000000000000000000000000000600082015250565b6000611cba600583611478565b9150611cc582611c84565b602082019050919050565b60006020820190508181036000830152611ce981611cad565b9050919050565b7f4e6f206269647320706c616365642e0000000000000000000000000000000000600082015250565b6000611d26600f83611478565b9150611d3182611cf0565b602082019050919050565b60006020820190508181036000830152611d5581611d19565b9050919050565b7f5061796d656e74206661696c6564000000000000000000000000000000000000600082015250565b6000611d92600e83611478565b9150611d9d82611d5c565b602082019050919050565b60006020820190508181036000830152611dc181611d85565b9050919050565b6000611dd382611135565b91507fffffffffffffffffffffffffffffffffffffffffffffffffffffffffffffffff8203611e0557611e0461177f565b5b60018201905091905056fea2646970667358221220a678ebd5c28d2d291ebc9815ff055a839246c92162d23551471831f5ed48c15864736f6c63430008110033",
  "immutableReferences": {},
  "source": "    // SPDX-License-Identifier: GPL-3.0\r\n    pragma solidity ^0.8.11;\r\n\r\n    contract openDender{\r\n\r\n        struct tdr {\r\n            uint id;\r\n            string title;\r\n            address mngr;\r\n            string desc;\r\n            uint startTime;\r\n            uint endTime;\r\n            uint accBal;\r\n            uint maxBid;\r\n            address highestBidder;\r\n        }\r\n\r\n        struct bidder {\r\n            string bidderName;\r\n            bool bidded;\r\n            mapping(uint => uint) bidAmt;\r\n        }\r\n\r\n        mapping(uint => tdr) public tdrs;\r\n        mapping(address => bidder) public bidders;\r\n\r\n        address public manager;\r\n        uint tdrCount;\r\n        uint time;\r\n        uint amt;\r\n\r\n        modifier onlyOfficial(){\r\n            require(msg.sender == manager);\r\n            _; \r\n        }\r\n\r\n        constructor(){\r\n            manager= msg.sender;\r\n        }\r\n\r\n        function createTender (string memory _title,uint _bidO,uint _bidC,string memory _description)\r\n        public\r\n        onlyOfficial\r\n        {\r\n            tdr storage t= tdrs[tdrCount];\r\n            t.id=tdrCount;\r\n            t.title=_title;\r\n            t.desc=_description;\r\n            t.startTime=_bidO;\r\n            t.endTime=_bidC;\r\n            tdrCount++;\r\n        }\r\n\r\n        function bid (uint _tdrID, string memory _name)\r\n        public\r\n        payable\r\n        {\r\n            require(tdrs[_tdrID].startTime < block.timestamp, \"Bid has not started.\");\r\n            require(tdrs[_tdrID].endTime > block.timestamp, \"Bid has ended.\");\r\n            if(bidders[msg.sender].bidded){\r\n                amt=msg.value+bidders[msg.sender].bidAmt[_tdrID];\r\n            }else{\r\n                amt=msg.value;\r\n            }\r\n            \r\n            require(amt>tdrs[_tdrID].maxBid, \"Bid is lower than the current bid.\");\r\n            bidder storage b = bidders[msg.sender];\r\n            b.bidderName = _name;\r\n            b.bidded = true;\r\n            b.bidAmt[_tdrID] = amt;\r\n            tdrs[_tdrID].accBal += amt;\r\n            if(bidders[msg.sender].bidAmt[_tdrID] > tdrs[_tdrID].maxBid){\r\n                tdrs[_tdrID].maxBid = amt;\r\n                tdrs[_tdrID].highestBidder = msg.sender;\r\n            }\r\n\r\n            if(tdrs[_tdrID].endTime-block.timestamp < 600){\r\n                tdrs[_tdrID].endTime+= 600-(tdrs[_tdrID].endTime-block.timestamp);\r\n            }\r\n        }\r\n\r\n    function withdrawFunds (uint _tdrID) \r\n    public\r\n    payable\r\n    {\r\n            require(tdrs[_tdrID].endTime < block.timestamp, \"Bid has not ended.\");\r\n            require(bidders[msg.sender].bidAmt[_tdrID] > 0, \"You do not have anymore ether to withdraw from the contract.\");\r\n            bool sent = payable(msg.sender).send(bidders[msg.sender].bidAmt[_tdrID]);\r\n            require(sent,\"Error\");\r\n            tdrs[_tdrID].accBal-=bidders[msg.sender].bidAmt[_tdrID];\r\n            bidders[msg.sender].bidAmt[_tdrID]=0;\r\n    }\r\n\r\n        function payTdrMngr (uint _tdrID)\r\n        public\r\n        payable\r\n        onlyOfficial\r\n        {\r\n            require(tdrs[_tdrID].endTime < block.timestamp, \"Bid has not ended.\");\r\n            require(tdrs[_tdrID].maxBid > 0, \"No bids placed.\");\r\n            bool sent = payable(manager).send(tdrs[_tdrID].maxBid);\r\n            require(sent,\"Payment failed\");\r\n            tdrs[_tdrID].maxBid=0;\r\n        }\r\n\r\n        function highestBidOfTdr (uint _tdrID)\r\n        public\r\n        view\r\n        returns(uint highestBid)\r\n        {\r\n            return tdrs[_tdrID].maxBid;\r\n        }\r\n\r\n        function highestBidderOfTdr (uint _tdrID)\r\n        public\r\n        view\r\n        returns(address highestBidderAdr)\r\n        {\r\n            return tdrs[_tdrID].highestBidder;\r\n        }\r\n\r\n        function getTdrInfo (uint _tdrID)\r\n        public\r\n        view\r\n        returns(string memory title, string memory desc, uint startTime, uint endTime, uint maxBid)\r\n        {\r\n            return(tdrs[_tdrID].title, tdrs[_tdrID].desc, tdrs[_tdrID].startTime, tdrs[_tdrID].endTime, tdrs[_tdrID].maxBid);\r\n        }\r\n\r\n        function getWinningBid (uint _tdrID)\r\n        public\r\n        view\r\n        returns(address winnerAddress, uint winningBidAmt)\r\n        {   \r\n            require(tdrs[_tdrID].endTime < block.timestamp, \"Bid has not ended.\");\r\n            return(tdrs[_tdrID].highestBidder, tdrs[_tdrID].maxBid);\r\n        }\r\n\r\n\r\n        // function testbids (uint _id) \r\n        // public\r\n        // view\r\n        // returns(uint, string memory)\r\n        // {\r\n        //     return (bidders[msg.sender].bidAmt[_id], tdrs[_id].title);\r\n        // }\r\n\r\n\r\n    }",
  "sourcePath": "C:\\Users\\akash\\OneDrive\\Documents\\project\\D-Ender-Ethereum-dApp\\src\\contracts\\openDender.sol",
  "compiler": {
    "name": "solc",
    "version": "0.8.17+commit.8df45f5f.Emscripten.clang"
  },
  "schemaVersion": "3.4.11",
  "updatedAt": "2023-03-05T13:16:27.156Z",
  "networkType": "ethereum",
  "devdoc": {
    "kind": "dev",
    "methods": {},
    "version": 1
  },
  "userdoc": {
    "kind": "user",
    "methods": {},
    "version": 1
  }
}