{
  "contractName": "openDender",
  "abi": [
    {
      "inputs": [],
      "stateMutability": "nonpayable",
      "type": "constructor"
    },
    {
      "inputs": [
        {
          "internalType": "address",
          "name": "",
          "type": "address"
        }
      ],
      "name": "bidders",
      "outputs": [
        {
          "internalType": "string",
          "name": "bidderName",
          "type": "string"
        },
        {
          "internalType": "bool",
          "name": "bidded",
          "type": "bool"
        }
      ],
      "stateMutability": "view",
      "type": "function",
      "constant": true
    },
    {
      "inputs": [],
      "name": "manager",
      "outputs": [
        {
          "internalType": "address",
          "name": "",
          "type": "address"
        }
      ],
      "stateMutability": "view",
      "type": "function",
      "constant": true
    },
    {
      "inputs": [
        {
          "internalType": "uint256",
          "name": "",
          "type": "uint256"
        }
      ],
      "name": "tdrs",
      "outputs": [
        {
          "internalType": "uint256",
          "name": "id",
          "type": "uint256"
        },
        {
          "internalType": "string",
          "name": "title",
          "type": "string"
        },
        {
          "internalType": "address",
          "name": "mngr",
          "type": "address"
        },
        {
          "internalType": "string",
          "name": "desc",
          "type": "string"
        },
        {
          "internalType": "uint256",
          "name": "startTime",
          "type": "uint256"
        },
        {
          "internalType": "uint256",
          "name": "endTime",
          "type": "uint256"
        },
        {
          "internalType": "uint256",
          "name": "accBal",
          "type": "uint256"
        },
        {
          "internalType": "uint256",
          "name": "maxBid",
          "type": "uint256"
        },
        {
          "internalType": "address",
          "name": "highestBidder",
          "type": "address"
        },
        {
          "internalType": "uint256",
          "name": "bidCount",
          "type": "uint256"
        }
      ],
      "stateMutability": "view",
      "type": "function",
      "constant": true
    },
    {
      "inputs": [
        {
          "internalType": "string",
          "name": "_title",
          "type": "string"
        },
        {
          "internalType": "uint256",
          "name": "_bidO",
          "type": "uint256"
        },
        {
          "internalType": "uint256",
          "name": "_bidC",
          "type": "uint256"
        },
        {
          "internalType": "string",
          "name": "_description",
          "type": "string"
        }
      ],
      "name": "createTender",
      "outputs": [],
      "stateMutability": "nonpayable",
      "type": "function"
    },
    {
      "inputs": [
        {
          "internalType": "uint256",
          "name": "_tdrID",
          "type": "uint256"
        },
        {
          "internalType": "string",
          "name": "_name",
          "type": "string"
        }
      ],
      "name": "bid",
      "outputs": [],
      "stateMutability": "payable",
      "type": "function",
      "payable": true
    },
    {
      "inputs": [
        {
          "internalType": "uint256",
          "name": "_tdrID",
          "type": "uint256"
        }
      ],
      "name": "withdrawFunds",
      "outputs": [],
      "stateMutability": "payable",
      "type": "function",
      "payable": true
    },
    {
      "inputs": [
        {
          "internalType": "uint256",
          "name": "_tdrID",
          "type": "uint256"
        }
      ],
      "name": "payTdrMngr",
      "outputs": [],
      "stateMutability": "payable",
      "type": "function",
      "payable": true
    },
    {
      "inputs": [],
      "name": "getTdrCount",
      "outputs": [
        {
          "internalType": "uint256",
          "name": "count",
          "type": "uint256"
        }
      ],
      "stateMutability": "view",
      "type": "function",
      "constant": true
    },
    {
      "inputs": [
        {
          "internalType": "uint256",
          "name": "_tdrID",
          "type": "uint256"
        }
      ],
      "name": "highestBidOfTdr",
      "outputs": [
        {
          "internalType": "uint256",
          "name": "highestBid",
          "type": "uint256"
        }
      ],
      "stateMutability": "view",
      "type": "function",
      "constant": true
    },
    {
      "inputs": [
        {
          "internalType": "uint256",
          "name": "_tdrID",
          "type": "uint256"
        }
      ],
      "name": "highestBidderOfTdr",
      "outputs": [
        {
          "internalType": "address",
          "name": "highestBidderAdr",
          "type": "address"
        }
      ],
      "stateMutability": "view",
      "type": "function",
      "constant": true
    },
    {
      "inputs": [
        {
          "internalType": "uint256",
          "name": "_tdrID",
          "type": "uint256"
        }
      ],
      "name": "getTdrInfo",
      "outputs": [
        {
          "internalType": "uint256",
          "name": "id",
          "type": "uint256"
        },
        {
          "internalType": "string",
          "name": "title",
          "type": "string"
        },
        {
          "internalType": "string",
          "name": "desc",
          "type": "string"
        },
        {
          "internalType": "uint256",
          "name": "startTime",
          "type": "uint256"
        },
        {
          "internalType": "uint256",
          "name": "endTime",
          "type": "uint256"
        },
        {
          "internalType": "uint256",
          "name": "maxBid",
          "type": "uint256"
        },
        {
          "internalType": "uint256",
          "name": "currentTime",
          "type": "uint256"
        }
      ],
      "stateMutability": "view",
      "type": "function",
      "constant": true
    },
    {
      "inputs": [
        {
          "internalType": "uint256",
          "name": "_tdrID",
          "type": "uint256"
        }
      ],
      "name": "getWinningBid",
      "outputs": [
        {
          "internalType": "address",
          "name": "winnerAddress",
          "type": "address"
        },
        {
          "internalType": "uint256",
          "name": "winningBidAmt",
          "type": "uint256"
        }
      ],
      "stateMutability": "view",
      "type": "function",
      "constant": true
    },
    {
      "inputs": [
        {
          "internalType": "uint256",
          "name": "_tdrID",
          "type": "uint256"
        },
        {
          "internalType": "uint256",
          "name": "_bidID",
          "type": "uint256"
        }
      ],
      "name": "getBiddersOfTdr",
      "outputs": [
        {
          "internalType": "address",
          "name": "bidder",
          "type": "address"
        },
        {
          "internalType": "uint256",
          "name": "bidAmt",
          "type": "uint256"
        }
      ],
      "stateMutability": "view",
      "type": "function",
      "constant": true
    }
  ],
  "bytecode": "0x608060405234801561001057600080fd5b5033600260006101000a81548173ffffffffffffffffffffffffffffffffffffffff021916908373ffffffffffffffffffffffffffffffffffffffff16021790555061214a806100616000396000f3fe6080604052600436106100c25760003560e01c80636891939d1161007f578063a09bff4111610059578063a09bff4114610259578063c1b80d4414610296578063ebaaa7f8146102d3578063fcc8f79314610319576100c2565b80636891939d1461019a5780637220a9a0146101d857806398bddce81461021b576100c2565b80630fc55fd1146100c7578063155dd5ee146100e357806325f084d5146100ff5780633130a9d01461011b57806345ae5daf14610144578063481c6a751461016f575b600080fd5b6100e160048036038101906100dc919061154a565b610357565b005b6100fd60048036038101906100f891906115a6565b6107f0565b005b610119600480360381019061011491906115a6565b610a85565b005b34801561012757600080fd5b50610142600480360381019061013d91906115d3565b610c5d565b005b34801561015057600080fd5b50610159610d72565b6040516101669190611681565b60405180910390f35b34801561017b57600080fd5b50610184610d7c565b60405161019191906116dd565b60405180910390f35b3480156101a657600080fd5b506101c160048036038101906101bc91906115a6565b610da2565b6040516101cf9291906116f8565b60405180910390f35b3480156101e457600080fd5b506101ff60048036038101906101fa91906115a6565b610e51565b60405161021297969594939291906117a0565b60405180910390f35b34801561022757600080fd5b50610242600480360381019061023d919061181d565b611010565b6040516102509291906116f8565b60405180910390f35b34801561026557600080fd5b50610280600480360381019061027b91906115a6565b6110ff565b60405161028d9190611681565b60405180910390f35b3480156102a257600080fd5b506102bd60048036038101906102b891906115a6565b61111e565b6040516102ca91906116dd565b60405180910390f35b3480156102df57600080fd5b506102fa60048036038101906102f591906115a6565b61115d565b6040516103109a9998979695949392919061185d565b60405180910390f35b34801561032557600080fd5b50610340600480360381019061033b9190611933565b611301565b60405161034e92919061197b565b60405180910390f35b4260008084815260200190815260200160002060040154106103ae576040517f08c379a00000000000000000000000000000000000000000000000000000000081526004016103a5906119f7565b60405180910390fd5b426000808481526020019081526020016000206005015411610405576040517f08c379a00000000000000000000000000000000000000000000000000000000081526004016103fc90611a63565b60405180910390fd5b600160003373ffffffffffffffffffffffffffffffffffffffff1673ffffffffffffffffffffffffffffffffffffffff16815260200190815260200160002060010160009054906101000a900460ff16156104c457600160003373ffffffffffffffffffffffffffffffffffffffff1673ffffffffffffffffffffffffffffffffffffffff168152602001908152602001600020600201600083815260200190815260200160002054346104b99190611ab2565b600581905550610571565b3460058190555033600080848152602001908152602001600020600a01600080600086815260200190815260200160002060090154815260200190815260200160002060006101000a81548173ffffffffffffffffffffffffffffffffffffffff021916908373ffffffffffffffffffffffffffffffffffffffff160217905550600080838152602001908152602001600020600901600081548092919061056b90611ae6565b91905055505b60008083815260200190815260200160002060070154600554116105ca576040517f08c379a00000000000000000000000000000000000000000000000000000000081526004016105c190611ba0565b60405180910390fd5b6000600160003373ffffffffffffffffffffffffffffffffffffffff1673ffffffffffffffffffffffffffffffffffffffff16815260200190815260200160002090508181600001908161061e9190611dcc565b5060018160010160006101000a81548160ff02191690831515021790555060055481600201600085815260200190815260200160002081905550600554600080858152602001908152602001600020600601600082825461067f9190611ab2565b9250508190555060008084815260200190815260200160002060070154600160003373ffffffffffffffffffffffffffffffffffffffff1673ffffffffffffffffffffffffffffffffffffffff168152602001908152602001600020600201600085815260200190815260200160002054111561076757600554600080858152602001908152602001600020600701819055503360008085815260200190815260200160002060080160006101000a81548173ffffffffffffffffffffffffffffffffffffffff021916908373ffffffffffffffffffffffffffffffffffffffff1602179055505b610258426000808681526020019081526020016000206005015461078b9190611e9e565b10156107eb5742600080858152602001908152602001600020600501546107b29190611e9e565b6102586107bf9190611e9e565b60008085815260200190815260200160002060050160008282546107e39190611ab2565b925050819055505b505050565b426000808381526020019081526020016000206005015410610847576040517f08c379a000000000000000000000000000000000000000000000000000000000815260040161083e90611f1e565b60405180910390fd5b6000600160003373ffffffffffffffffffffffffffffffffffffffff1673ffffffffffffffffffffffffffffffffffffffff168152602001908152602001600020600201600083815260200190815260200160002054116108dd576040517f08c379a00000000000000000000000000000000000000000000000000000000081526004016108d490611fb0565b60405180910390fd5b60003373ffffffffffffffffffffffffffffffffffffffff166108fc600160003373ffffffffffffffffffffffffffffffffffffffff1673ffffffffffffffffffffffffffffffffffffffff1681526020019081526020016000206002016000858152602001908152602001600020549081150290604051600060405180830381858888f193505050509050806109a9576040517f08c379a00000000000000000000000000000000000000000000000000000000081526004016109a09061201c565b60405180910390fd5b600160003373ffffffffffffffffffffffffffffffffffffffff1673ffffffffffffffffffffffffffffffffffffffff1681526020019081526020016000206002016000838152602001908152602001600020546000808481526020019081526020016000206006016000828254610a219190611e9e565b925050819055506000600160003373ffffffffffffffffffffffffffffffffffffffff1673ffffffffffffffffffffffffffffffffffffffff1681526020019081526020016000206002016000848152602001908152602001600020819055505050565b600260009054906101000a900473ffffffffffffffffffffffffffffffffffffffff1673ffffffffffffffffffffffffffffffffffffffff163373ffffffffffffffffffffffffffffffffffffffff1614610adf57600080fd5b426000808381526020019081526020016000206005015410610b36576040517f08c379a0000000000000000000000000000000000000000000000000000000008152600401610b2d90611f1e565b60405180910390fd5b60008060008381526020019081526020016000206007015411610b8e576040517f08c379a0000000000000000000000000000000000000000000000000000000008152600401610b8590612088565b60405180910390fd5b6000600260009054906101000a900473ffffffffffffffffffffffffffffffffffffffff1673ffffffffffffffffffffffffffffffffffffffff166108fc600080858152602001908152602001600020600701549081150290604051600060405180830381858888f19350505050905080610c3e576040517f08c379a0000000000000000000000000000000000000000000000000000000008152600401610c35906120f4565b60405180910390fd5b6000806000848152602001908152602001600020600701819055505050565b600260009054906101000a900473ffffffffffffffffffffffffffffffffffffffff1673ffffffffffffffffffffffffffffffffffffffff163373ffffffffffffffffffffffffffffffffffffffff1614610cb757600080fd5b600080600060035481526020019081526020016000209050600354816000018190555084816001019081610ceb9190611dcc565b5081816003019081610cfd9190611dcc565b50838160040181905550828160050181905550338160020160006101000a81548173ffffffffffffffffffffffffffffffffffffffff021916908373ffffffffffffffffffffffffffffffffffffffff16021790555060036000815480929190610d6690611ae6565b91905055505050505050565b6000600354905090565b600260009054906101000a900473ffffffffffffffffffffffffffffffffffffffff1681565b600080426000808581526020019081526020016000206005015410610dfc576040517f08c379a0000000000000000000000000000000000000000000000000000000008152600401610df390611f1e565b60405180910390fd5b60008084815260200190815260200160002060080160009054906101000a900473ffffffffffffffffffffffffffffffffffffffff166000808581526020019081526020016000206007015491509150915091565b6000606080600080600080600080898152602001908152602001600020600001546000808a81526020019081526020016000206001016000808b81526020019081526020016000206003016000808c8152602001908152602001600020600401546000808d8152602001908152602001600020600501546000808e81526020019081526020016000206007015442858054610eeb90611bef565b80601f0160208091040260200160405190810160405280929190818152602001828054610f1790611bef565b8015610f645780601f10610f3957610100808354040283529160200191610f64565b820191906000526020600020905b815481529060010190602001808311610f4757829003601f168201915b50505050509550848054610f7790611bef565b80601f0160208091040260200160405190810160405280929190818152602001828054610fa390611bef565b8015610ff05780601f10610fc557610100808354040283529160200191610ff0565b820191906000526020600020905b815481529060010190602001808311610fd357829003601f168201915b505050505094509650965096509650965096509650919395979092949650565b600080600080858152602001908152602001600020600a01600084815260200190815260200160002060009054906101000a900473ffffffffffffffffffffffffffffffffffffffff1660016000806000888152602001908152602001600020600a01600087815260200190815260200160002060009054906101000a900473ffffffffffffffffffffffffffffffffffffffff1673ffffffffffffffffffffffffffffffffffffffff1673ffffffffffffffffffffffffffffffffffffffff168152602001908152602001600020600201600086815260200190815260200160002054915091509250929050565b6000806000838152602001908152602001600020600701549050919050565b600080600083815260200190815260200160002060080160009054906101000a900473ffffffffffffffffffffffffffffffffffffffff169050919050565b600060205280600052604060002060009150905080600001549080600101805461118690611bef565b80601f01602080910402602001604051908101604052809291908181526020018280546111b290611bef565b80156111ff5780601f106111d4576101008083540402835291602001916111ff565b820191906000526020600020905b8154815290600101906020018083116111e257829003601f168201915b5050505050908060020160009054906101000a900473ffffffffffffffffffffffffffffffffffffffff169080600301805461123a90611bef565b80601f016020809104026020016040519081016040528092919081815260200182805461126690611bef565b80156112b35780601f10611288576101008083540402835291602001916112b3565b820191906000526020600020905b81548152906001019060200180831161129657829003601f168201915b5050505050908060040154908060050154908060060154908060070154908060080160009054906101000a900473ffffffffffffffffffffffffffffffffffffffff1690806009015490508a565b600160205280600052604060002060009150905080600001805461132490611bef565b80601f016020809104026020016040519081016040528092919081815260200182805461135090611bef565b801561139d5780601f106113725761010080835404028352916020019161139d565b820191906000526020600020905b81548152906001019060200180831161138057829003601f168201915b5050505050908060010160009054906101000a900460ff16905082565b6000604051905090565b600080fd5b600080fd5b6000819050919050565b6113e1816113ce565b81146113ec57600080fd5b50565b6000813590506113fe816113d8565b92915050565b600080fd5b600080fd5b6000601f19601f8301169050919050565b7f4e487b7100000000000000000000000000000000000000000000000000000000600052604160045260246000fd5b6114578261140e565b810181811067ffffffffffffffff821117156114765761147561141f565b5b80604052505050565b60006114896113ba565b9050611495828261144e565b919050565b600067ffffffffffffffff8211156114b5576114b461141f565b5b6114be8261140e565b9050602081019050919050565b82818337600083830152505050565b60006114ed6114e88461149a565b61147f565b90508281526020810184848401111561150957611508611409565b5b6115148482856114cb565b509392505050565b600082601f83011261153157611530611404565b5b81356115418482602086016114da565b91505092915050565b60008060408385031215611561576115606113c4565b5b600061156f858286016113ef565b925050602083013567ffffffffffffffff8111156115905761158f6113c9565b5b61159c8582860161151c565b9150509250929050565b6000602082840312156115bc576115bb6113c4565b5b60006115ca848285016113ef565b91505092915050565b600080600080608085870312156115ed576115ec6113c4565b5b600085013567ffffffffffffffff81111561160b5761160a6113c9565b5b6116178782880161151c565b9450506020611628878288016113ef565b9350506040611639878288016113ef565b925050606085013567ffffffffffffffff81111561165a576116596113c9565b5b6116668782880161151c565b91505092959194509250565b61167b816113ce565b82525050565b60006020820190506116966000830184611672565b92915050565b600073ffffffffffffffffffffffffffffffffffffffff82169050919050565b60006116c78261169c565b9050919050565b6116d7816116bc565b82525050565b60006020820190506116f260008301846116ce565b92915050565b600060408201905061170d60008301856116ce565b61171a6020830184611672565b9392505050565b600081519050919050565b600082825260208201905092915050565b60005b8381101561175b578082015181840152602081019050611740565b60008484015250505050565b600061177282611721565b61177c818561172c565b935061178c81856020860161173d565b6117958161140e565b840191505092915050565b600060e0820190506117b5600083018a611672565b81810360208301526117c78189611767565b905081810360408301526117db8188611767565b90506117ea6060830187611672565b6117f76080830186611672565b61180460a0830185611672565b61181160c0830184611672565b98975050505050505050565b60008060408385031215611834576118336113c4565b5b6000611842858286016113ef565b9250506020611853858286016113ef565b9150509250929050565b600061014082019050611873600083018d611672565b8181036020830152611885818c611767565b9050611894604083018b6116ce565b81810360608301526118a6818a611767565b90506118b56080830189611672565b6118c260a0830188611672565b6118cf60c0830187611672565b6118dc60e0830186611672565b6118ea6101008301856116ce565b6118f8610120830184611672565b9b9a5050505050505050505050565b611910816116bc565b811461191b57600080fd5b50565b60008135905061192d81611907565b92915050565b600060208284031215611949576119486113c4565b5b60006119578482850161191e565b91505092915050565b60008115159050919050565b61197581611960565b82525050565b600060408201905081810360008301526119958185611767565b90506119a4602083018461196c565b9392505050565b7f42696420686173206e6f7420737461727465642e000000000000000000000000600082015250565b60006119e160148361172c565b91506119ec826119ab565b602082019050919050565b60006020820190508181036000830152611a10816119d4565b9050919050565b7f4269642068617320656e6465642e000000000000000000000000000000000000600082015250565b6000611a4d600e8361172c565b9150611a5882611a17565b602082019050919050565b60006020820190508181036000830152611a7c81611a40565b9050919050565b7f4e487b7100000000000000000000000000000000000000000000000000000000600052601160045260246000fd5b6000611abd826113ce565b9150611ac8836113ce565b9250828201905080821115611ae057611adf611a83565b5b92915050565b6000611af1826113ce565b91507fffffffffffffffffffffffffffffffffffffffffffffffffffffffffffffffff8203611b2357611b22611a83565b5b600182019050919050565b7f426964206973206c6f776572207468616e207468652063757272656e7420626960008201527f642e000000000000000000000000000000000000000000000000000000000000602082015250565b6000611b8a60228361172c565b9150611b9582611b2e565b604082019050919050565b60006020820190508181036000830152611bb981611b7d565b9050919050565b7f4e487b7100000000000000000000000000000000000000000000000000000000600052602260045260246000fd5b60006002820490506001821680611c0757607f821691505b602082108103611c1a57611c19611bc0565b5b50919050565b60008190508160005260206000209050919050565b60006020601f8301049050919050565b600082821b905092915050565b600060088302611c827fffffffffffffffffffffffffffffffffffffffffffffffffffffffffffffffff82611c45565b611c8c8683611c45565b95508019841693508086168417925050509392505050565b6000819050919050565b6000611cc9611cc4611cbf846113ce565b611ca4565b6113ce565b9050919050565b6000819050919050565b611ce383611cae565b611cf7611cef82611cd0565b848454611c52565b825550505050565b600090565b611d0c611cff565b611d17818484611cda565b505050565b5b81811015611d3b57611d30600082611d04565b600181019050611d1d565b5050565b601f821115611d8057611d5181611c20565b611d5a84611c35565b81016020851015611d69578190505b611d7d611d7585611c35565b830182611d1c565b50505b505050565b600082821c905092915050565b6000611da360001984600802611d85565b1980831691505092915050565b6000611dbc8383611d92565b9150826002028217905092915050565b611dd582611721565b67ffffffffffffffff811115611dee57611ded61141f565b5b611df88254611bef565b611e03828285611d3f565b600060209050601f831160018114611e365760008415611e24578287015190505b611e2e8582611db0565b865550611e96565b601f198416611e4486611c20565b60005b82811015611e6c57848901518255600182019150602085019450602081019050611e47565b86831015611e895784890151611e85601f891682611d92565b8355505b6001600288020188555050505b505050505050565b6000611ea9826113ce565b9150611eb4836113ce565b9250828203905081811115611ecc57611ecb611a83565b5b92915050565b7f42696420686173206e6f7420656e6465642e0000000000000000000000000000600082015250565b6000611f0860128361172c565b9150611f1382611ed2565b602082019050919050565b60006020820190508181036000830152611f3781611efb565b9050919050565b7f596f7520646f206e6f74206861766520616e796d6f726520657468657220746f60008201527f2077697468647261772066726f6d2074686520636f6e74726163742e00000000602082015250565b6000611f9a603c8361172c565b9150611fa582611f3e565b604082019050919050565b60006020820190508181036000830152611fc981611f8d565b9050919050565b7f4572726f72000000000000000000000000000000000000000000000000000000600082015250565b600061200660058361172c565b915061201182611fd0565b602082019050919050565b6000602082019050818103600083015261203581611ff9565b9050919050565b7f4e6f206269647320706c616365642e0000000000000000000000000000000000600082015250565b6000612072600f8361172c565b915061207d8261203c565b602082019050919050565b600060208201905081810360008301526120a181612065565b9050919050565b7f5061796d656e74206661696c6564000000000000000000000000000000000000600082015250565b60006120de600e8361172c565b91506120e9826120a8565b602082019050919050565b6000602082019050818103600083015261210d816120d1565b905091905056fea26469706673582212209f23bab6e5b652c5b57e9da08a9332a259d40a09acdee8ebba4fa6742a31bd9a64736f6c63430008110033",
  "immutableReferences": {},
  "source": "    // SPDX-License-Identifier: GPL-3.0\r\n    pragma solidity ^0.8.11;\r\n\r\n    contract openDender{\r\n\r\n        struct tdr {\r\n            uint id;\r\n            string title;\r\n            address mngr;\r\n            string desc;\r\n            uint startTime;\r\n            uint endTime;\r\n            uint accBal;\r\n            uint maxBid;\r\n            address highestBidder;\r\n            uint bidCount;\r\n            mapping(uint => address) bidders;\r\n        }\r\n\r\n        struct bidder {\r\n            string bidderName;\r\n            bool bidded;\r\n            mapping(uint => uint) bidAmt;\r\n        }\r\n\r\n        mapping(uint => tdr) public tdrs;\r\n        mapping(address => bidder) public bidders;\r\n\r\n        address public manager;\r\n        uint tdrCount;\r\n        uint time;\r\n        uint amt;\r\n\r\n        modifier onlyOfficial(){\r\n            require(msg.sender == manager);\r\n            _; \r\n        }\r\n\r\n        constructor(){\r\n            manager= msg.sender;\r\n        }\r\n\r\n        function createTender (string memory _title,uint _bidO,uint _bidC,string memory _description)\r\n        public\r\n        onlyOfficial\r\n        {\r\n            tdr storage t= tdrs[tdrCount];\r\n            t.id=tdrCount;\r\n            t.title=_title;\r\n            t.desc=_description;\r\n            t.startTime=_bidO;\r\n            t.endTime=_bidC;\r\n            t.mngr = msg.sender;\r\n            tdrCount++;\r\n        }\r\n\r\n        function bid (uint _tdrID, string memory _name)\r\n        public\r\n        payable\r\n        {\r\n            require(tdrs[_tdrID].startTime < block.timestamp, \"Bid has not started.\");\r\n            require(tdrs[_tdrID].endTime > block.timestamp, \"Bid has ended.\");\r\n            if(bidders[msg.sender].bidded){\r\n                amt=msg.value+bidders[msg.sender].bidAmt[_tdrID];\r\n            }else{\r\n                amt=msg.value;\r\n                tdrs[_tdrID].bidders[tdrs[_tdrID].bidCount]=msg.sender;\r\n                tdrs[_tdrID].bidCount++;\r\n            }\r\n            \r\n            require(amt>tdrs[_tdrID].maxBid, \"Bid is lower than the current bid.\");\r\n            bidder storage b = bidders[msg.sender];\r\n            b.bidderName = _name;\r\n            b.bidded = true;\r\n            b.bidAmt[_tdrID] = amt;\r\n            tdrs[_tdrID].accBal += amt;\r\n            if(bidders[msg.sender].bidAmt[_tdrID] > tdrs[_tdrID].maxBid){\r\n                tdrs[_tdrID].maxBid = amt;\r\n                tdrs[_tdrID].highestBidder = msg.sender;\r\n            }\r\n\r\n            if(tdrs[_tdrID].endTime-block.timestamp < 600){\r\n                tdrs[_tdrID].endTime+= 600-(tdrs[_tdrID].endTime-block.timestamp);\r\n            }\r\n        }\r\n\r\n        function withdrawFunds (uint _tdrID) \r\n        public\r\n        payable\r\n        {\r\n                require(tdrs[_tdrID].endTime < block.timestamp, \"Bid has not ended.\");\r\n                require(bidders[msg.sender].bidAmt[_tdrID] > 0, \"You do not have anymore ether to withdraw from the contract.\");\r\n                bool sent = payable(msg.sender).send(bidders[msg.sender].bidAmt[_tdrID]);\r\n                require(sent,\"Error\");\r\n                tdrs[_tdrID].accBal-=bidders[msg.sender].bidAmt[_tdrID];\r\n                bidders[msg.sender].bidAmt[_tdrID]=0;\r\n        }\r\n\r\n        function payTdrMngr (uint _tdrID)\r\n        public\r\n        payable\r\n        onlyOfficial\r\n        {\r\n            require(tdrs[_tdrID].endTime < block.timestamp, \"Bid has not ended.\");\r\n            require(tdrs[_tdrID].maxBid > 0, \"No bids placed.\");\r\n            bool sent = payable(manager).send(tdrs[_tdrID].maxBid);\r\n            require(sent,\"Payment failed\");\r\n            tdrs[_tdrID].maxBid=0;\r\n        }\r\n\r\n        function getTdrCount ()\r\n        public\r\n        view \r\n        returns(uint count)\r\n        {\r\n            return tdrCount;\r\n        }\r\n        \r\n\r\n        function highestBidOfTdr (uint _tdrID)\r\n        public\r\n        view\r\n        returns(uint highestBid)\r\n        {\r\n            return tdrs[_tdrID].maxBid;\r\n        }\r\n\r\n        function highestBidderOfTdr (uint _tdrID)\r\n        public\r\n        view\r\n        returns(address highestBidderAdr)\r\n        {\r\n            return tdrs[_tdrID].highestBidder;\r\n        }\r\n\r\n        function getTdrInfo (uint _tdrID)\r\n        public\r\n        view\r\n        returns(uint id,string memory title, string memory desc, uint startTime, uint endTime, uint maxBid, uint currentTime)\r\n        {\r\n            return(tdrs[_tdrID].id ,tdrs[_tdrID].title, tdrs[_tdrID].desc, tdrs[_tdrID].startTime, tdrs[_tdrID].endTime, tdrs[_tdrID].maxBid, block.timestamp);\r\n        }\r\n\r\n        function getWinningBid (uint _tdrID)\r\n        public\r\n        view\r\n        returns(address winnerAddress, uint winningBidAmt)\r\n        {   \r\n            require(tdrs[_tdrID].endTime < block.timestamp, \"Bid has not ended.\");\r\n            return(tdrs[_tdrID].highestBidder, tdrs[_tdrID].maxBid);\r\n        }\r\n\r\n        function getBiddersOfTdr (uint _tdrID, uint _bidID)\r\n        public\r\n        view\r\n        returns(address bidder, uint bidAmt)\r\n        {\r\n            return(tdrs[_tdrID].bidders[_bidID], bidders[tdrs[_tdrID].bidders[_bidID]].bidAmt[_tdrID]);\r\n        }\r\n\r\n    }",
  "sourcePath": "C:\\Users\\akash\\OneDrive\\Documents\\project\\D-Ender-Ethereum-dApp\\src\\contracts\\openDender.sol",
  "compiler": {
    "name": "solc",
    "version": "0.8.17+commit.8df45f5f.Emscripten.clang"
  },
  "schemaVersion": "3.4.11",
  "updatedAt": "2023-03-14T18:13:20.581Z",
  "networkType": "ethereum",
  "devdoc": {
    "kind": "dev",
    "methods": {},
    "version": 1
  },
  "userdoc": {
    "kind": "user",
    "methods": {},
    "version": 1
  }
}