{
  "contractName": "openDender",
  "abi": [
    {
      "inputs": [],
      "stateMutability": "nonpayable",
      "type": "constructor"
    },
    {
      "inputs": [
        {
          "internalType": "address",
          "name": "",
          "type": "address"
        }
      ],
      "name": "bidders",
      "outputs": [
        {
          "internalType": "string",
          "name": "bidderName",
          "type": "string"
        },
        {
          "internalType": "bool",
          "name": "bidded",
          "type": "bool"
        }
      ],
      "stateMutability": "view",
      "type": "function",
      "constant": true
    },
    {
      "inputs": [],
      "name": "manager",
      "outputs": [
        {
          "internalType": "address",
          "name": "",
          "type": "address"
        }
      ],
      "stateMutability": "view",
      "type": "function",
      "constant": true
    },
    {
      "inputs": [
        {
          "internalType": "uint256",
          "name": "",
          "type": "uint256"
        }
      ],
      "name": "tdrs",
      "outputs": [
        {
          "internalType": "uint256",
          "name": "id",
          "type": "uint256"
        },
        {
          "internalType": "string",
          "name": "title",
          "type": "string"
        },
        {
          "internalType": "address",
          "name": "mngr",
          "type": "address"
        },
        {
          "internalType": "string",
          "name": "desc",
          "type": "string"
        },
        {
          "internalType": "uint256",
          "name": "startTime",
          "type": "uint256"
        },
        {
          "internalType": "uint256",
          "name": "endTime",
          "type": "uint256"
        },
        {
          "internalType": "uint256",
          "name": "accBal",
          "type": "uint256"
        },
        {
          "internalType": "uint256",
          "name": "maxBid",
          "type": "uint256"
        },
        {
          "internalType": "address",
          "name": "highestBidder",
          "type": "address"
        }
      ],
      "stateMutability": "view",
      "type": "function",
      "constant": true
    },
    {
      "inputs": [
        {
          "internalType": "string",
          "name": "_title",
          "type": "string"
        },
        {
          "internalType": "uint256",
          "name": "_bidO",
          "type": "uint256"
        },
        {
          "internalType": "uint256",
          "name": "_bidC",
          "type": "uint256"
        },
        {
          "internalType": "string",
          "name": "_description",
          "type": "string"
        }
      ],
      "name": "createTender",
      "outputs": [],
      "stateMutability": "nonpayable",
      "type": "function"
    },
    {
      "inputs": [
        {
          "internalType": "uint256",
          "name": "_tdrID",
          "type": "uint256"
        },
        {
          "internalType": "string",
          "name": "_name",
          "type": "string"
        }
      ],
      "name": "bid",
      "outputs": [],
      "stateMutability": "payable",
      "type": "function",
      "payable": true
    },
    {
      "inputs": [
        {
          "internalType": "uint256",
          "name": "_tdrID",
          "type": "uint256"
        }
      ],
      "name": "withdrawFunds",
      "outputs": [],
      "stateMutability": "payable",
      "type": "function",
      "payable": true
    },
    {
      "inputs": [
        {
          "internalType": "uint256",
          "name": "_tdrID",
          "type": "uint256"
        }
      ],
      "name": "payTdrMngr",
      "outputs": [],
      "stateMutability": "payable",
      "type": "function",
      "payable": true
    },
    {
      "inputs": [],
      "name": "getTdrCount",
      "outputs": [
        {
          "internalType": "uint256",
          "name": "count",
          "type": "uint256"
        }
      ],
      "stateMutability": "view",
      "type": "function",
      "constant": true
    },
    {
      "inputs": [
        {
          "internalType": "uint256",
          "name": "_tdrID",
          "type": "uint256"
        }
      ],
      "name": "highestBidOfTdr",
      "outputs": [
        {
          "internalType": "uint256",
          "name": "highestBid",
          "type": "uint256"
        }
      ],
      "stateMutability": "view",
      "type": "function",
      "constant": true
    },
    {
      "inputs": [
        {
          "internalType": "uint256",
          "name": "_tdrID",
          "type": "uint256"
        }
      ],
      "name": "highestBidderOfTdr",
      "outputs": [
        {
          "internalType": "address",
          "name": "highestBidderAdr",
          "type": "address"
        }
      ],
      "stateMutability": "view",
      "type": "function",
      "constant": true
    },
    {
      "inputs": [
        {
          "internalType": "uint256",
          "name": "_tdrID",
          "type": "uint256"
        }
      ],
      "name": "getTdrInfo",
      "outputs": [
        {
          "internalType": "uint256",
          "name": "id",
          "type": "uint256"
        },
        {
          "internalType": "string",
          "name": "title",
          "type": "string"
        },
        {
          "internalType": "string",
          "name": "desc",
          "type": "string"
        },
        {
          "internalType": "uint256",
          "name": "startTime",
          "type": "uint256"
        },
        {
          "internalType": "uint256",
          "name": "endTime",
          "type": "uint256"
        },
        {
          "internalType": "uint256",
          "name": "maxBid",
          "type": "uint256"
        },
        {
          "internalType": "uint256",
          "name": "currentTime",
          "type": "uint256"
        }
      ],
      "stateMutability": "view",
      "type": "function",
      "constant": true
    },
    {
      "inputs": [
        {
          "internalType": "uint256",
          "name": "_tdrID",
          "type": "uint256"
        }
      ],
      "name": "getWinningBid",
      "outputs": [
        {
          "internalType": "address",
          "name": "winnerAddress",
          "type": "address"
        },
        {
          "internalType": "uint256",
          "name": "winningBidAmt",
          "type": "uint256"
        }
      ],
      "stateMutability": "view",
      "type": "function",
      "constant": true
    }
  ],
  "bytecode": "0x608060405234801561001057600080fd5b5033600260006101000a81548173ffffffffffffffffffffffffffffffffffffffff021916908373ffffffffffffffffffffffffffffffffffffffff160217905550611f07806100616000396000f3fe6080604052600436106100a75760003560e01c80636891939d116100645780636891939d1461017f5780637220a9a0146101bd578063a09bff4114610200578063c1b80d441461023d578063ebaaa7f81461027a578063fcc8f793146102bf576100a7565b80630fc55fd1146100ac578063155dd5ee146100c857806325f084d5146100e45780633130a9d01461010057806345ae5daf14610129578063481c6a7514610154575b600080fd5b6100c660048036038101906100c19190611356565b6102fd565b005b6100e260048036038101906100dd91906113b2565b6106f1565b005b6100fe60048036038101906100f991906113b2565b610986565b005b34801561010c57600080fd5b50610127600480360381019061012291906113df565b610b5e565b005b34801561013557600080fd5b5061013e610c73565b60405161014b919061148d565b60405180910390f35b34801561016057600080fd5b50610169610c7d565b60405161017691906114e9565b60405180910390f35b34801561018b57600080fd5b506101a660048036038101906101a191906113b2565b610ca3565b6040516101b4929190611504565b60405180910390f35b3480156101c957600080fd5b506101e460048036038101906101df91906113b2565b610d52565b6040516101f797969594939291906115ac565b60405180910390f35b34801561020c57600080fd5b50610227600480360381019061022291906113b2565b610f11565b604051610234919061148d565b60405180910390f35b34801561024957600080fd5b50610264600480360381019061025f91906113b2565b610f30565b60405161027191906114e9565b60405180910390f35b34801561028657600080fd5b506102a1600480360381019061029c91906113b2565b610f6f565b6040516102b699989796959493929190611629565b60405180910390f35b3480156102cb57600080fd5b506102e660048036038101906102e191906116f0565b61110d565b6040516102f4929190611738565b60405180910390f35b426000808481526020019081526020016000206004015410610354576040517f08c379a000000000000000000000000000000000000000000000000000000000815260040161034b906117b4565b60405180910390fd5b4260008084815260200190815260200160002060050154116103ab576040517f08c379a00000000000000000000000000000000000000000000000000000000081526004016103a290611820565b60405180910390fd5b600160003373ffffffffffffffffffffffffffffffffffffffff1673ffffffffffffffffffffffffffffffffffffffff16815260200190815260200160002060010160009054906101000a900460ff161561046a57600160003373ffffffffffffffffffffffffffffffffffffffff1673ffffffffffffffffffffffffffffffffffffffff1681526020019081526020016000206002016000838152602001908152602001600020543461045f919061186f565b600581905550610472565b346005819055505b60008083815260200190815260200160002060070154600554116104cb576040517f08c379a00000000000000000000000000000000000000000000000000000000081526004016104c290611915565b60405180910390fd5b6000600160003373ffffffffffffffffffffffffffffffffffffffff1673ffffffffffffffffffffffffffffffffffffffff16815260200190815260200160002090508181600001908161051f9190611b41565b5060018160010160006101000a81548160ff021916908315150217905550600554816002016000858152602001908152602001600020819055506005546000808581526020019081526020016000206006016000828254610580919061186f565b9250508190555060008084815260200190815260200160002060070154600160003373ffffffffffffffffffffffffffffffffffffffff1673ffffffffffffffffffffffffffffffffffffffff168152602001908152602001600020600201600085815260200190815260200160002054111561066857600554600080858152602001908152602001600020600701819055503360008085815260200190815260200160002060080160006101000a81548173ffffffffffffffffffffffffffffffffffffffff021916908373ffffffffffffffffffffffffffffffffffffffff1602179055505b610258426000808681526020019081526020016000206005015461068c9190611c13565b10156106ec5742600080858152602001908152602001600020600501546106b39190611c13565b6102586106c09190611c13565b60008085815260200190815260200160002060050160008282546106e4919061186f565b925050819055505b505050565b426000808381526020019081526020016000206005015410610748576040517f08c379a000000000000000000000000000000000000000000000000000000000815260040161073f90611c93565b60405180910390fd5b6000600160003373ffffffffffffffffffffffffffffffffffffffff1673ffffffffffffffffffffffffffffffffffffffff168152602001908152602001600020600201600083815260200190815260200160002054116107de576040517f08c379a00000000000000000000000000000000000000000000000000000000081526004016107d590611d25565b60405180910390fd5b60003373ffffffffffffffffffffffffffffffffffffffff166108fc600160003373ffffffffffffffffffffffffffffffffffffffff1673ffffffffffffffffffffffffffffffffffffffff1681526020019081526020016000206002016000858152602001908152602001600020549081150290604051600060405180830381858888f193505050509050806108aa576040517f08c379a00000000000000000000000000000000000000000000000000000000081526004016108a190611d91565b60405180910390fd5b600160003373ffffffffffffffffffffffffffffffffffffffff1673ffffffffffffffffffffffffffffffffffffffff16815260200190815260200160002060020160008381526020019081526020016000205460008084815260200190815260200160002060060160008282546109229190611c13565b925050819055506000600160003373ffffffffffffffffffffffffffffffffffffffff1673ffffffffffffffffffffffffffffffffffffffff1681526020019081526020016000206002016000848152602001908152602001600020819055505050565b600260009054906101000a900473ffffffffffffffffffffffffffffffffffffffff1673ffffffffffffffffffffffffffffffffffffffff163373ffffffffffffffffffffffffffffffffffffffff16146109e057600080fd5b426000808381526020019081526020016000206005015410610a37576040517f08c379a0000000000000000000000000000000000000000000000000000000008152600401610a2e90611c93565b60405180910390fd5b60008060008381526020019081526020016000206007015411610a8f576040517f08c379a0000000000000000000000000000000000000000000000000000000008152600401610a8690611dfd565b60405180910390fd5b6000600260009054906101000a900473ffffffffffffffffffffffffffffffffffffffff1673ffffffffffffffffffffffffffffffffffffffff166108fc600080858152602001908152602001600020600701549081150290604051600060405180830381858888f19350505050905080610b3f576040517f08c379a0000000000000000000000000000000000000000000000000000000008152600401610b3690611e69565b60405180910390fd5b6000806000848152602001908152602001600020600701819055505050565b600260009054906101000a900473ffffffffffffffffffffffffffffffffffffffff1673ffffffffffffffffffffffffffffffffffffffff163373ffffffffffffffffffffffffffffffffffffffff1614610bb857600080fd5b600080600060035481526020019081526020016000209050600354816000018190555084816001019081610bec9190611b41565b5081816003019081610bfe9190611b41565b50838160040181905550828160050181905550338160020160006101000a81548173ffffffffffffffffffffffffffffffffffffffff021916908373ffffffffffffffffffffffffffffffffffffffff16021790555060036000815480929190610c6790611e89565b91905055505050505050565b6000600354905090565b600260009054906101000a900473ffffffffffffffffffffffffffffffffffffffff1681565b600080426000808581526020019081526020016000206005015410610cfd576040517f08c379a0000000000000000000000000000000000000000000000000000000008152600401610cf490611c93565b60405180910390fd5b60008084815260200190815260200160002060080160009054906101000a900473ffffffffffffffffffffffffffffffffffffffff166000808581526020019081526020016000206007015491509150915091565b6000606080600080600080600080898152602001908152602001600020600001546000808a81526020019081526020016000206001016000808b81526020019081526020016000206003016000808c8152602001908152602001600020600401546000808d8152602001908152602001600020600501546000808e81526020019081526020016000206007015442858054610dec90611964565b80601f0160208091040260200160405190810160405280929190818152602001828054610e1890611964565b8015610e655780601f10610e3a57610100808354040283529160200191610e65565b820191906000526020600020905b815481529060010190602001808311610e4857829003601f168201915b50505050509550848054610e7890611964565b80601f0160208091040260200160405190810160405280929190818152602001828054610ea490611964565b8015610ef15780601f10610ec657610100808354040283529160200191610ef1565b820191906000526020600020905b815481529060010190602001808311610ed457829003601f168201915b505050505094509650965096509650965096509650919395979092949650565b6000806000838152602001908152602001600020600701549050919050565b600080600083815260200190815260200160002060080160009054906101000a900473ffffffffffffffffffffffffffffffffffffffff169050919050565b6000602052806000526040600020600091509050806000015490806001018054610f9890611964565b80601f0160208091040260200160405190810160405280929190818152602001828054610fc490611964565b80156110115780601f10610fe657610100808354040283529160200191611011565b820191906000526020600020905b815481529060010190602001808311610ff457829003601f168201915b5050505050908060020160009054906101000a900473ffffffffffffffffffffffffffffffffffffffff169080600301805461104c90611964565b80601f016020809104026020016040519081016040528092919081815260200182805461107890611964565b80156110c55780601f1061109a576101008083540402835291602001916110c5565b820191906000526020600020905b8154815290600101906020018083116110a857829003601f168201915b5050505050908060040154908060050154908060060154908060070154908060080160009054906101000a900473ffffffffffffffffffffffffffffffffffffffff16905089565b600160205280600052604060002060009150905080600001805461113090611964565b80601f016020809104026020016040519081016040528092919081815260200182805461115c90611964565b80156111a95780601f1061117e576101008083540402835291602001916111a9565b820191906000526020600020905b81548152906001019060200180831161118c57829003601f168201915b5050505050908060010160009054906101000a900460ff16905082565b6000604051905090565b600080fd5b600080fd5b6000819050919050565b6111ed816111da565b81146111f857600080fd5b50565b60008135905061120a816111e4565b92915050565b600080fd5b600080fd5b6000601f19601f8301169050919050565b7f4e487b7100000000000000000000000000000000000000000000000000000000600052604160045260246000fd5b6112638261121a565b810181811067ffffffffffffffff821117156112825761128161122b565b5b80604052505050565b60006112956111c6565b90506112a1828261125a565b919050565b600067ffffffffffffffff8211156112c1576112c061122b565b5b6112ca8261121a565b9050602081019050919050565b82818337600083830152505050565b60006112f96112f4846112a6565b61128b565b90508281526020810184848401111561131557611314611215565b5b6113208482856112d7565b509392505050565b600082601f83011261133d5761133c611210565b5b813561134d8482602086016112e6565b91505092915050565b6000806040838503121561136d5761136c6111d0565b5b600061137b858286016111fb565b925050602083013567ffffffffffffffff81111561139c5761139b6111d5565b5b6113a885828601611328565b9150509250929050565b6000602082840312156113c8576113c76111d0565b5b60006113d6848285016111fb565b91505092915050565b600080600080608085870312156113f9576113f86111d0565b5b600085013567ffffffffffffffff811115611417576114166111d5565b5b61142387828801611328565b9450506020611434878288016111fb565b9350506040611445878288016111fb565b925050606085013567ffffffffffffffff811115611466576114656111d5565b5b61147287828801611328565b91505092959194509250565b611487816111da565b82525050565b60006020820190506114a2600083018461147e565b92915050565b600073ffffffffffffffffffffffffffffffffffffffff82169050919050565b60006114d3826114a8565b9050919050565b6114e3816114c8565b82525050565b60006020820190506114fe60008301846114da565b92915050565b600060408201905061151960008301856114da565b611526602083018461147e565b9392505050565b600081519050919050565b600082825260208201905092915050565b60005b8381101561156757808201518184015260208101905061154c565b60008484015250505050565b600061157e8261152d565b6115888185611538565b9350611598818560208601611549565b6115a18161121a565b840191505092915050565b600060e0820190506115c1600083018a61147e565b81810360208301526115d38189611573565b905081810360408301526115e78188611573565b90506115f6606083018761147e565b611603608083018661147e565b61161060a083018561147e565b61161d60c083018461147e565b98975050505050505050565b60006101208201905061163f600083018c61147e565b8181036020830152611651818b611573565b9050611660604083018a6114da565b81810360608301526116728189611573565b9050611681608083018861147e565b61168e60a083018761147e565b61169b60c083018661147e565b6116a860e083018561147e565b6116b66101008301846114da565b9a9950505050505050505050565b6116cd816114c8565b81146116d857600080fd5b50565b6000813590506116ea816116c4565b92915050565b600060208284031215611706576117056111d0565b5b6000611714848285016116db565b91505092915050565b60008115159050919050565b6117328161171d565b82525050565b600060408201905081810360008301526117528185611573565b90506117616020830184611729565b9392505050565b7f42696420686173206e6f7420737461727465642e000000000000000000000000600082015250565b600061179e601483611538565b91506117a982611768565b602082019050919050565b600060208201905081810360008301526117cd81611791565b9050919050565b7f4269642068617320656e6465642e000000000000000000000000000000000000600082015250565b600061180a600e83611538565b9150611815826117d4565b602082019050919050565b60006020820190508181036000830152611839816117fd565b9050919050565b7f4e487b7100000000000000000000000000000000000000000000000000000000600052601160045260246000fd5b600061187a826111da565b9150611885836111da565b925082820190508082111561189d5761189c611840565b5b92915050565b7f426964206973206c6f776572207468616e207468652063757272656e7420626960008201527f642e000000000000000000000000000000000000000000000000000000000000602082015250565b60006118ff602283611538565b915061190a826118a3565b604082019050919050565b6000602082019050818103600083015261192e816118f2565b9050919050565b7f4e487b7100000000000000000000000000000000000000000000000000000000600052602260045260246000fd5b6000600282049050600182168061197c57607f821691505b60208210810361198f5761198e611935565b5b50919050565b60008190508160005260206000209050919050565b60006020601f8301049050919050565b600082821b905092915050565b6000600883026119f77fffffffffffffffffffffffffffffffffffffffffffffffffffffffffffffffff826119ba565b611a0186836119ba565b95508019841693508086168417925050509392505050565b6000819050919050565b6000611a3e611a39611a34846111da565b611a19565b6111da565b9050919050565b6000819050919050565b611a5883611a23565b611a6c611a6482611a45565b8484546119c7565b825550505050565b600090565b611a81611a74565b611a8c818484611a4f565b505050565b5b81811015611ab057611aa5600082611a79565b600181019050611a92565b5050565b601f821115611af557611ac681611995565b611acf846119aa565b81016020851015611ade578190505b611af2611aea856119aa565b830182611a91565b50505b505050565b600082821c905092915050565b6000611b1860001984600802611afa565b1980831691505092915050565b6000611b318383611b07565b9150826002028217905092915050565b611b4a8261152d565b67ffffffffffffffff811115611b6357611b6261122b565b5b611b6d8254611964565b611b78828285611ab4565b600060209050601f831160018114611bab5760008415611b99578287015190505b611ba38582611b25565b865550611c0b565b601f198416611bb986611995565b60005b82811015611be157848901518255600182019150602085019450602081019050611bbc565b86831015611bfe5784890151611bfa601f891682611b07565b8355505b6001600288020188555050505b505050505050565b6000611c1e826111da565b9150611c29836111da565b9250828203905081811115611c4157611c40611840565b5b92915050565b7f42696420686173206e6f7420656e6465642e0000000000000000000000000000600082015250565b6000611c7d601283611538565b9150611c8882611c47565b602082019050919050565b60006020820190508181036000830152611cac81611c70565b9050919050565b7f596f7520646f206e6f74206861766520616e796d6f726520657468657220746f60008201527f2077697468647261772066726f6d2074686520636f6e74726163742e00000000602082015250565b6000611d0f603c83611538565b9150611d1a82611cb3565b604082019050919050565b60006020820190508181036000830152611d3e81611d02565b9050919050565b7f4572726f72000000000000000000000000000000000000000000000000000000600082015250565b6000611d7b600583611538565b9150611d8682611d45565b602082019050919050565b60006020820190508181036000830152611daa81611d6e565b9050919050565b7f4e6f206269647320706c616365642e0000000000000000000000000000000000600082015250565b6000611de7600f83611538565b9150611df282611db1565b602082019050919050565b60006020820190508181036000830152611e1681611dda565b9050919050565b7f5061796d656e74206661696c6564000000000000000000000000000000000000600082015250565b6000611e53600e83611538565b9150611e5e82611e1d565b602082019050919050565b60006020820190508181036000830152611e8281611e46565b9050919050565b6000611e94826111da565b91507fffffffffffffffffffffffffffffffffffffffffffffffffffffffffffffffff8203611ec657611ec5611840565b5b60018201905091905056fea2646970667358221220fa83e37ef40a60198f692899de86ce09956f51b76e1fce2f64b1a37a1252dbde64736f6c63430008110033",
  "immutableReferences": {},
  "source": "    // SPDX-License-Identifier: GPL-3.0\r\n    pragma solidity ^0.8.11;\r\n\r\n    contract openDender{\r\n\r\n        struct tdr {\r\n            uint id;\r\n            string title;\r\n            address mngr;\r\n            string desc;\r\n            uint startTime;\r\n            uint endTime;\r\n            uint accBal;\r\n            uint maxBid;\r\n            address highestBidder;\r\n        }\r\n\r\n        struct bidder {\r\n            string bidderName;\r\n            bool bidded;\r\n            mapping(uint => uint) bidAmt;\r\n        }\r\n\r\n        mapping(uint => tdr) public tdrs;\r\n        mapping(address => bidder) public bidders;\r\n\r\n        address public manager;\r\n        uint tdrCount;\r\n        uint time;\r\n        uint amt;\r\n\r\n        modifier onlyOfficial(){\r\n            require(msg.sender == manager);\r\n            _; \r\n        }\r\n\r\n        constructor(){\r\n            manager= msg.sender;\r\n        }\r\n\r\n        function createTender (string memory _title,uint _bidO,uint _bidC,string memory _description)\r\n        public\r\n        onlyOfficial\r\n        {\r\n            tdr storage t= tdrs[tdrCount];\r\n            t.id=tdrCount;\r\n            t.title=_title;\r\n            t.desc=_description;\r\n            t.startTime=_bidO;\r\n            t.endTime=_bidC;\r\n            t.mngr = msg.sender;\r\n            tdrCount++;\r\n        }\r\n\r\n        function bid (uint _tdrID, string memory _name)\r\n        public\r\n        payable\r\n        {\r\n            require(tdrs[_tdrID].startTime < block.timestamp, \"Bid has not started.\");\r\n            require(tdrs[_tdrID].endTime > block.timestamp, \"Bid has ended.\");\r\n            if(bidders[msg.sender].bidded){\r\n                amt=msg.value+bidders[msg.sender].bidAmt[_tdrID];\r\n            }else{\r\n                amt=msg.value;\r\n            }\r\n            \r\n            require(amt>tdrs[_tdrID].maxBid, \"Bid is lower than the current bid.\");\r\n            bidder storage b = bidders[msg.sender];\r\n            b.bidderName = _name;\r\n            b.bidded = true;\r\n            b.bidAmt[_tdrID] = amt;\r\n            tdrs[_tdrID].accBal += amt;\r\n            if(bidders[msg.sender].bidAmt[_tdrID] > tdrs[_tdrID].maxBid){\r\n                tdrs[_tdrID].maxBid = amt;\r\n                tdrs[_tdrID].highestBidder = msg.sender;\r\n            }\r\n\r\n            if(tdrs[_tdrID].endTime-block.timestamp < 600){\r\n                tdrs[_tdrID].endTime+= 600-(tdrs[_tdrID].endTime-block.timestamp);\r\n            }\r\n        }\r\n\r\n        function withdrawFunds (uint _tdrID) \r\n        public\r\n        payable\r\n        {\r\n                require(tdrs[_tdrID].endTime < block.timestamp, \"Bid has not ended.\");\r\n                require(bidders[msg.sender].bidAmt[_tdrID] > 0, \"You do not have anymore ether to withdraw from the contract.\");\r\n                bool sent = payable(msg.sender).send(bidders[msg.sender].bidAmt[_tdrID]);\r\n                require(sent,\"Error\");\r\n                tdrs[_tdrID].accBal-=bidders[msg.sender].bidAmt[_tdrID];\r\n                bidders[msg.sender].bidAmt[_tdrID]=0;\r\n        }\r\n\r\n        function payTdrMngr (uint _tdrID)\r\n        public\r\n        payable\r\n        onlyOfficial\r\n        {\r\n            require(tdrs[_tdrID].endTime < block.timestamp, \"Bid has not ended.\");\r\n            require(tdrs[_tdrID].maxBid > 0, \"No bids placed.\");\r\n            bool sent = payable(manager).send(tdrs[_tdrID].maxBid);\r\n            require(sent,\"Payment failed\");\r\n            tdrs[_tdrID].maxBid=0;\r\n        }\r\n\r\n        function getTdrCount ()\r\n        public\r\n        view \r\n        returns(uint count)\r\n        {\r\n            return tdrCount;\r\n        }\r\n        \r\n\r\n        function highestBidOfTdr (uint _tdrID)\r\n        public\r\n        view\r\n        returns(uint highestBid)\r\n        {\r\n            return tdrs[_tdrID].maxBid;\r\n        }\r\n\r\n        function highestBidderOfTdr (uint _tdrID)\r\n        public\r\n        view\r\n        returns(address highestBidderAdr)\r\n        {\r\n            return tdrs[_tdrID].highestBidder;\r\n        }\r\n\r\n        function getTdrInfo (uint _tdrID)\r\n        public\r\n        view\r\n        returns(uint id,string memory title, string memory desc, uint startTime, uint endTime, uint maxBid, uint currentTime)\r\n        {\r\n            return(tdrs[_tdrID].id ,tdrs[_tdrID].title, tdrs[_tdrID].desc, tdrs[_tdrID].startTime, tdrs[_tdrID].endTime, tdrs[_tdrID].maxBid, block.timestamp);\r\n        }\r\n\r\n        function getWinningBid (uint _tdrID)\r\n        public\r\n        view\r\n        returns(address winnerAddress, uint winningBidAmt)\r\n        {   \r\n            require(tdrs[_tdrID].endTime < block.timestamp, \"Bid has not ended.\");\r\n            return(tdrs[_tdrID].highestBidder, tdrs[_tdrID].maxBid);\r\n        }\r\n\r\n    }",
  "sourcePath": "C:\\Users\\akash\\OneDrive\\Documents\\project\\D-Ender-Ethereum-dApp\\src\\contracts\\openDender.sol",
  "compiler": {
    "name": "solc",
    "version": "0.8.17+commit.8df45f5f.Emscripten.clang"
  },
  "schemaVersion": "3.4.11",
  "updatedAt": "2023-03-10T17:34:48.329Z",
  "networkType": "ethereum",
  "devdoc": {
    "kind": "dev",
    "methods": {},
    "version": 1
  },
  "userdoc": {
    "kind": "user",
    "methods": {},
    "version": 1
  }
}