{
  "contractName": "selectiveDender",
  "abi": [
    {
      "inputs": [],
      "stateMutability": "payable",
      "type": "constructor",
      "payable": true
    },
    {
      "inputs": [
        {
          "internalType": "address",
          "name": "",
          "type": "address"
        }
      ],
      "name": "bidders",
      "outputs": [
        {
          "internalType": "string",
          "name": "bidderName",
          "type": "string"
        },
        {
          "internalType": "bool",
          "name": "bidded",
          "type": "bool"
        }
      ],
      "stateMutability": "view",
      "type": "function",
      "constant": true
    },
    {
      "inputs": [],
      "name": "manager",
      "outputs": [
        {
          "internalType": "address",
          "name": "",
          "type": "address"
        }
      ],
      "stateMutability": "view",
      "type": "function",
      "constant": true
    },
    {
      "inputs": [
        {
          "internalType": "uint256",
          "name": "",
          "type": "uint256"
        }
      ],
      "name": "tdrs",
      "outputs": [
        {
          "internalType": "uint256",
          "name": "id",
          "type": "uint256"
        },
        {
          "internalType": "string",
          "name": "title",
          "type": "string"
        },
        {
          "internalType": "string",
          "name": "desc",
          "type": "string"
        },
        {
          "internalType": "uint256",
          "name": "startTime",
          "type": "uint256"
        },
        {
          "internalType": "uint256",
          "name": "endTime",
          "type": "uint256"
        },
        {
          "internalType": "uint256",
          "name": "accBal",
          "type": "uint256"
        },
        {
          "internalType": "uint256",
          "name": "maxBid",
          "type": "uint256"
        },
        {
          "internalType": "uint256",
          "name": "bidCount",
          "type": "uint256"
        },
        {
          "internalType": "address",
          "name": "highestBidder",
          "type": "address"
        },
        {
          "internalType": "address",
          "name": "lowestBidder",
          "type": "address"
        },
        {
          "internalType": "uint256",
          "name": "winningBid",
          "type": "uint256"
        }
      ],
      "stateMutability": "view",
      "type": "function",
      "constant": true
    },
    {
      "inputs": [
        {
          "internalType": "string",
          "name": "_title",
          "type": "string"
        },
        {
          "internalType": "string",
          "name": "_desc",
          "type": "string"
        },
        {
          "internalType": "uint256",
          "name": "_bidO",
          "type": "uint256"
        },
        {
          "internalType": "uint256",
          "name": "_bidC",
          "type": "uint256"
        }
      ],
      "name": "createTender",
      "outputs": [],
      "stateMutability": "nonpayable",
      "type": "function"
    },
    {
      "inputs": [
        {
          "internalType": "string",
          "name": "_name",
          "type": "string"
        },
        {
          "internalType": "address",
          "name": "_addr",
          "type": "address"
        }
      ],
      "name": "addBidder",
      "outputs": [],
      "stateMutability": "nonpayable",
      "type": "function"
    },
    {
      "inputs": [
        {
          "internalType": "uint256",
          "name": "_tdrID",
          "type": "uint256"
        },
        {
          "internalType": "string",
          "name": "_name",
          "type": "string"
        }
      ],
      "name": "bid",
      "outputs": [],
      "stateMutability": "payable",
      "type": "function",
      "payable": true
    },
    {
      "inputs": [
        {
          "internalType": "uint256",
          "name": "_tdrID",
          "type": "uint256"
        }
      ],
      "name": "withdrawFunds",
      "outputs": [],
      "stateMutability": "payable",
      "type": "function",
      "payable": true
    },
    {
      "inputs": [
        {
          "internalType": "uint256",
          "name": "_tdrID",
          "type": "uint256"
        },
        {
          "internalType": "uint256",
          "name": "_bidID",
          "type": "uint256"
        }
      ],
      "name": "selectWinner",
      "outputs": [],
      "stateMutability": "payable",
      "type": "function",
      "payable": true
    },
    {
      "inputs": [],
      "name": "getTdrCount",
      "outputs": [
        {
          "internalType": "uint256",
          "name": "count",
          "type": "uint256"
        }
      ],
      "stateMutability": "view",
      "type": "function",
      "constant": true
    },
    {
      "inputs": [
        {
          "internalType": "uint256",
          "name": "_tdrID",
          "type": "uint256"
        }
      ],
      "name": "getTdrInfo",
      "outputs": [
        {
          "internalType": "uint256",
          "name": "id",
          "type": "uint256"
        },
        {
          "internalType": "string",
          "name": "title",
          "type": "string"
        },
        {
          "internalType": "string",
          "name": "desc",
          "type": "string"
        },
        {
          "internalType": "uint256",
          "name": "startTime",
          "type": "uint256"
        },
        {
          "internalType": "uint256",
          "name": "endTime",
          "type": "uint256"
        },
        {
          "internalType": "uint256",
          "name": "maxBid",
          "type": "uint256"
        },
        {
          "internalType": "uint256",
          "name": "currentTime",
          "type": "uint256"
        }
      ],
      "stateMutability": "view",
      "type": "function",
      "constant": true
    },
    {
      "inputs": [
        {
          "internalType": "uint256",
          "name": "_tdrID",
          "type": "uint256"
        }
      ],
      "name": "getWinningBid",
      "outputs": [
        {
          "internalType": "address",
          "name": "winnerAddress",
          "type": "address"
        },
        {
          "internalType": "uint256",
          "name": "winningBidAmt",
          "type": "uint256"
        }
      ],
      "stateMutability": "view",
      "type": "function",
      "constant": true
    },
    {
      "inputs": [
        {
          "internalType": "uint256",
          "name": "_tdrID",
          "type": "uint256"
        },
        {
          "internalType": "uint256",
          "name": "_bidID",
          "type": "uint256"
        }
      ],
      "name": "bidInfo",
      "outputs": [
        {
          "internalType": "address",
          "name": "bidderAddress",
          "type": "address"
        },
        {
          "internalType": "uint256",
          "name": "bidAmtt",
          "type": "uint256"
        }
      ],
      "stateMutability": "view",
      "type": "function",
      "constant": true
    },
    {
      "inputs": [
        {
          "internalType": "uint256",
          "name": "_tdrID",
          "type": "uint256"
        }
      ],
      "name": "highestBidOfTdr",
      "outputs": [
        {
          "internalType": "uint256",
          "name": "highestBid",
          "type": "uint256"
        }
      ],
      "stateMutability": "view",
      "type": "function",
      "constant": true
    },
    {
      "inputs": [
        {
          "internalType": "uint256",
          "name": "_tdrID",
          "type": "uint256"
        }
      ],
      "name": "highestBidderOfTdr",
      "outputs": [
        {
          "internalType": "address",
          "name": "highestBidder",
          "type": "address"
        }
      ],
      "stateMutability": "view",
      "type": "function",
      "constant": true
    },
    {
      "inputs": [
        {
          "internalType": "uint256",
          "name": "_tdrID",
          "type": "uint256"
        },
        {
          "internalType": "uint256",
          "name": "_bidID",
          "type": "uint256"
        }
      ],
      "name": "getBiddersOfTdr",
      "outputs": [
        {
          "internalType": "address",
          "name": "bidder",
          "type": "address"
        },
        {
          "internalType": "uint256",
          "name": "bidAmt",
          "type": "uint256"
        }
      ],
      "stateMutability": "view",
      "type": "function",
      "constant": true
    },
    {
      "inputs": [
        {
          "internalType": "uint256",
          "name": "_tdrID",
          "type": "uint256"
        }
      ],
      "name": "getBidderCountofTdr",
      "outputs": [
        {
          "internalType": "uint256",
          "name": "count",
          "type": "uint256"
        }
      ],
      "stateMutability": "view",
      "type": "function",
      "constant": true
    }
  ],
  "bytecode": "0x6080604052600060035533600260006101000a81548173ffffffffffffffffffffffffffffffffffffffff021916908373ffffffffffffffffffffffffffffffffffffffff160217905550612334806100596000396000f3fe6080604052600436106100f35760003560e01c806398bddce81161008a578063d927ee8811610059578063d927ee8814610363578063e6fa02091461038c578063ebaaa7f8146103a8578063fcc8f793146103ef576100f3565b806398bddce814610282578063a09bff41146102c0578063c1b80d44146102fd578063d1c1d8401461033a576100f3565b8063481c6a75116100c6578063481c6a75146101985780636891939d146101c35780637220a9a0146102015780637dfa159214610244576100f3565b80630fc55fd1146100f8578063155dd5ee14610114578063263b20bd1461013057806345ae5daf1461016d575b600080fd5b610112600480360381019061010d9190611735565b61042d565b005b61012e60048036038101906101299190611791565b6108d3565b005b34801561013c57600080fd5b5061015760048036038101906101529190611791565b610b68565b60405161016491906117cd565b60405180910390f35b34801561017957600080fd5b50610182610b87565b60405161018f91906117cd565b60405180910390f35b3480156101a457600080fd5b506101ad610b91565b6040516101ba9190611829565b60405180910390f35b3480156101cf57600080fd5b506101ea60048036038101906101e59190611791565b610bb7565b6040516101f8929190611844565b60405180910390f35b34801561020d57600080fd5b5061022860048036038101906102239190611791565b610d25565b60405161023b97969594939291906118ec565b60405180910390f35b34801561025057600080fd5b5061026b60048036038101906102669190611969565b610ee4565b604051610279929190611844565b60405180910390f35b34801561028e57600080fd5b506102a960048036038101906102a49190611969565b610fd3565b6040516102b7929190611844565b60405180910390f35b3480156102cc57600080fd5b506102e760048036038101906102e29190611791565b6110c2565b6040516102f491906117cd565b60405180910390f35b34801561030957600080fd5b50610324600480360381019061031f9190611791565b6110e1565b6040516103319190611829565b60405180910390f35b34801561034657600080fd5b50610361600480360381019061035c91906119d5565b611120565b005b34801561036f57600080fd5b5061038a60048036038101906103859190611a31565b6111f1565b005b6103a660048036038101906103a19190611969565b6112cd565b005b3480156103b457600080fd5b506103cf60048036038101906103ca9190611791565b611342565b6040516103e69b9a99989796959493929190611ad0565b60405180910390f35b3480156103fb57600080fd5b5061041660048036038101906104119190611b89565b6114ec565b604051610424929190611bd1565b60405180910390f35b426000808481526020019081526020016000206003015410610484576040517f08c379a000000000000000000000000000000000000000000000000000000000815260040161047b90611c4d565b60405180910390fd5b4260008084815260200190815260200160002060040154116104db576040517f08c379a00000000000000000000000000000000000000000000000000000000081526004016104d290611cb9565b60405180910390fd5b6000600160003373ffffffffffffffffffffffffffffffffffffffff1673ffffffffffffffffffffffffffffffffffffffff168152602001908152602001600020600001805461052a90611d08565b90500361056c576040517f08c379a000000000000000000000000000000000000000000000000000000000815260040161056390611d85565b60405180910390fd5b600160003373ffffffffffffffffffffffffffffffffffffffff1673ffffffffffffffffffffffffffffffffffffffff16815260200190815260200160002060010160009054906101000a900460ff161561062b57600160003373ffffffffffffffffffffffffffffffffffffffff1673ffffffffffffffffffffffffffffffffffffffff168152602001908152602001600020600201600083815260200190815260200160002054346106209190611dd4565b6005819055506106d8565b3460058190555033600080848152602001908152602001600020600b01600080600086815260200190815260200160002060070154815260200190815260200160002060006101000a81548173ffffffffffffffffffffffffffffffffffffffff021916908373ffffffffffffffffffffffffffffffffffffffff16021790555060008083815260200190815260200160002060070160008154809291906106d290611e08565b91905055505b6000808381526020019081526020016000206006015460055411610731576040517f08c379a000000000000000000000000000000000000000000000000000000000815260040161072890611ec2565b60405180910390fd5b6000600160003373ffffffffffffffffffffffffffffffffffffffff1673ffffffffffffffffffffffffffffffffffffffff168152602001908152602001600020905081816000019081610785919061208e565b5060018160010160006101000a81548160ff0219169083151502179055506005548160020160008581526020019081526020016000208190555060055460008085815260200190815260200160002060050160008282546107e69190611dd4565b9250508190555060008084815260200190815260200160002060060154600160003373ffffffffffffffffffffffffffffffffffffffff1673ffffffffffffffffffffffffffffffffffffffff16815260200190815260200160002060020160008581526020019081526020016000205411156108ce57600554600080858152602001908152602001600020600601819055503360008085815260200190815260200160002060080160006101000a81548173ffffffffffffffffffffffffffffffffffffffff021916908373ffffffffffffffffffffffffffffffffffffffff1602179055505b505050565b42600080838152602001908152602001600020600401541061092a576040517f08c379a0000000000000000000000000000000000000000000000000000000008152600401610921906121ac565b60405180910390fd5b6000600160003373ffffffffffffffffffffffffffffffffffffffff1673ffffffffffffffffffffffffffffffffffffffff168152602001908152602001600020600201600083815260200190815260200160002054116109c0576040517f08c379a00000000000000000000000000000000000000000000000000000000081526004016109b79061223e565b60405180910390fd5b60003373ffffffffffffffffffffffffffffffffffffffff166108fc600160003373ffffffffffffffffffffffffffffffffffffffff1673ffffffffffffffffffffffffffffffffffffffff1681526020019081526020016000206002016000858152602001908152602001600020549081150290604051600060405180830381858888f19350505050905080610a8c576040517f08c379a0000000000000000000000000000000000000000000000000000000008152600401610a83906122aa565b60405180910390fd5b600160003373ffffffffffffffffffffffffffffffffffffffff1673ffffffffffffffffffffffffffffffffffffffff1681526020019081526020016000206002016000838152602001908152602001600020546000808481526020019081526020016000206005016000828254610b0491906122ca565b925050819055506000600160003373ffffffffffffffffffffffffffffffffffffffff1673ffffffffffffffffffffffffffffffffffffffff1681526020019081526020016000206002016000848152602001908152602001600020819055505050565b6000806000838152602001908152602001600020600701549050919050565b6000600354905090565b600260009054906101000a900473ffffffffffffffffffffffffffffffffffffffff1681565b600080426000808581526020019081526020016000206004015410610c11576040517f08c379a0000000000000000000000000000000000000000000000000000000008152600401610c08906121ac565b60405180910390fd5b600080848152602001908152602001600020600b016000806000868152602001908152602001600020600a0154815260200190815260200160002060009054906101000a900473ffffffffffffffffffffffffffffffffffffffff1660016000806000878152602001908152602001600020600b016000806000898152602001908152602001600020600a0154815260200190815260200160002060009054906101000a900473ffffffffffffffffffffffffffffffffffffffff1673ffffffffffffffffffffffffffffffffffffffff1673ffffffffffffffffffffffffffffffffffffffff16815260200190815260200160002060020160008581526020019081526020016000205491509150915091565b6000606080600080600080600080898152602001908152602001600020600001546000808a81526020019081526020016000206001016000808b81526020019081526020016000206002016000808c8152602001908152602001600020600301546000808d8152602001908152602001600020600401546000808e81526020019081526020016000206006015442858054610dbf90611d08565b80601f0160208091040260200160405190810160405280929190818152602001828054610deb90611d08565b8015610e385780601f10610e0d57610100808354040283529160200191610e38565b820191906000526020600020905b815481529060010190602001808311610e1b57829003601f168201915b50505050509550848054610e4b90611d08565b80601f0160208091040260200160405190810160405280929190818152602001828054610e7790611d08565b8015610ec45780601f10610e9957610100808354040283529160200191610ec4565b820191906000526020600020905b815481529060010190602001808311610ea757829003601f168201915b505050505094509650965096509650965096509650919395979092949650565b600080600080858152602001908152602001600020600b01600084815260200190815260200160002060009054906101000a900473ffffffffffffffffffffffffffffffffffffffff1660016000806000888152602001908152602001600020600b01600087815260200190815260200160002060009054906101000a900473ffffffffffffffffffffffffffffffffffffffff1673ffffffffffffffffffffffffffffffffffffffff1673ffffffffffffffffffffffffffffffffffffffff168152602001908152602001600020600201600086815260200190815260200160002054915091509250929050565b600080600080858152602001908152602001600020600b01600084815260200190815260200160002060009054906101000a900473ffffffffffffffffffffffffffffffffffffffff1660016000806000888152602001908152602001600020600b01600087815260200190815260200160002060009054906101000a900473ffffffffffffffffffffffffffffffffffffffff1673ffffffffffffffffffffffffffffffffffffffff1673ffffffffffffffffffffffffffffffffffffffff168152602001908152602001600020600201600086815260200190815260200160002054915091509250929050565b6000806000838152602001908152602001600020600601549050919050565b600080600083815260200190815260200160002060080160009054906101000a900473ffffffffffffffffffffffffffffffffffffffff169050919050565b600260009054906101000a900473ffffffffffffffffffffffffffffffffffffffff1673ffffffffffffffffffffffffffffffffffffffff163373ffffffffffffffffffffffffffffffffffffffff161461117a57600080fd5b6000600160008373ffffffffffffffffffffffffffffffffffffffff1673ffffffffffffffffffffffffffffffffffffffff1681526020019081526020016000209050828160000190816111ce919061208e565b5060008160010160006101000a81548160ff021916908315150217905550505050565b600260009054906101000a900473ffffffffffffffffffffffffffffffffffffffff1673ffffffffffffffffffffffffffffffffffffffff163373ffffffffffffffffffffffffffffffffffffffff161461124b57600080fd5b60008060006003548152602001908152602001600020905060035481600001819055508481600101908161127f919061208e565b5083816002019081611291919061208e565b5082816003018190555081816004018190555060008160070181905550600360008154809291906112c190611e08565b91905055505050505050565b426000808481526020019081526020016000206004015410611324576040517f08c379a000000000000000000000000000000000000000000000000000000000815260040161131b906121ac565b60405180910390fd5b80600080848152602001908152602001600020600a01819055505050565b600060205280600052604060002060009150905080600001549080600101805461136b90611d08565b80601f016020809104026020016040519081016040528092919081815260200182805461139790611d08565b80156113e45780601f106113b9576101008083540402835291602001916113e4565b820191906000526020600020905b8154815290600101906020018083116113c757829003601f168201915b5050505050908060020180546113f990611d08565b80601f016020809104026020016040519081016040528092919081815260200182805461142590611d08565b80156114725780601f1061144757610100808354040283529160200191611472565b820191906000526020600020905b81548152906001019060200180831161145557829003601f168201915b5050505050908060030154908060040154908060050154908060060154908060070154908060080160009054906101000a900473ffffffffffffffffffffffffffffffffffffffff16908060090160009054906101000a900473ffffffffffffffffffffffffffffffffffffffff169080600a015490508b565b600160205280600052604060002060009150905080600001805461150f90611d08565b80601f016020809104026020016040519081016040528092919081815260200182805461153b90611d08565b80156115885780601f1061155d57610100808354040283529160200191611588565b820191906000526020600020905b81548152906001019060200180831161156b57829003601f168201915b5050505050908060010160009054906101000a900460ff16905082565b6000604051905090565b600080fd5b600080fd5b6000819050919050565b6115cc816115b9565b81146115d757600080fd5b50565b6000813590506115e9816115c3565b92915050565b600080fd5b600080fd5b6000601f19601f8301169050919050565b7f4e487b7100000000000000000000000000000000000000000000000000000000600052604160045260246000fd5b611642826115f9565b810181811067ffffffffffffffff821117156116615761166061160a565b5b80604052505050565b60006116746115a5565b90506116808282611639565b919050565b600067ffffffffffffffff8211156116a05761169f61160a565b5b6116a9826115f9565b9050602081019050919050565b82818337600083830152505050565b60006116d86116d384611685565b61166a565b9050828152602081018484840111156116f4576116f36115f4565b5b6116ff8482856116b6565b509392505050565b600082601f83011261171c5761171b6115ef565b5b813561172c8482602086016116c5565b91505092915050565b6000806040838503121561174c5761174b6115af565b5b600061175a858286016115da565b925050602083013567ffffffffffffffff81111561177b5761177a6115b4565b5b61178785828601611707565b9150509250929050565b6000602082840312156117a7576117a66115af565b5b60006117b5848285016115da565b91505092915050565b6117c7816115b9565b82525050565b60006020820190506117e260008301846117be565b92915050565b600073ffffffffffffffffffffffffffffffffffffffff82169050919050565b6000611813826117e8565b9050919050565b61182381611808565b82525050565b600060208201905061183e600083018461181a565b92915050565b6000604082019050611859600083018561181a565b61186660208301846117be565b9392505050565b600081519050919050565b600082825260208201905092915050565b60005b838110156118a757808201518184015260208101905061188c565b60008484015250505050565b60006118be8261186d565b6118c88185611878565b93506118d8818560208601611889565b6118e1816115f9565b840191505092915050565b600060e082019050611901600083018a6117be565b818103602083015261191381896118b3565b9050818103604083015261192781886118b3565b905061193660608301876117be565b61194360808301866117be565b61195060a08301856117be565b61195d60c08301846117be565b98975050505050505050565b600080604083850312156119805761197f6115af565b5b600061198e858286016115da565b925050602061199f858286016115da565b9150509250929050565b6119b281611808565b81146119bd57600080fd5b50565b6000813590506119cf816119a9565b92915050565b600080604083850312156119ec576119eb6115af565b5b600083013567ffffffffffffffff811115611a0a57611a096115b4565b5b611a1685828601611707565b9250506020611a27858286016119c0565b9150509250929050565b60008060008060808587031215611a4b57611a4a6115af565b5b600085013567ffffffffffffffff811115611a6957611a686115b4565b5b611a7587828801611707565b945050602085013567ffffffffffffffff811115611a9657611a956115b4565b5b611aa287828801611707565b9350506040611ab3878288016115da565b9250506060611ac4878288016115da565b91505092959194509250565b600061016082019050611ae6600083018e6117be565b8181036020830152611af8818d6118b3565b90508181036040830152611b0c818c6118b3565b9050611b1b606083018b6117be565b611b28608083018a6117be565b611b3560a08301896117be565b611b4260c08301886117be565b611b4f60e08301876117be565b611b5d61010083018661181a565b611b6b61012083018561181a565b611b796101408301846117be565b9c9b505050505050505050505050565b600060208284031215611b9f57611b9e6115af565b5b6000611bad848285016119c0565b91505092915050565b60008115159050919050565b611bcb81611bb6565b82525050565b60006040820190508181036000830152611beb81856118b3565b9050611bfa6020830184611bc2565b9392505050565b7f42696420686173206e6f7420737461727465642e000000000000000000000000600082015250565b6000611c37601483611878565b9150611c4282611c01565b602082019050919050565b60006020820190508181036000830152611c6681611c2a565b9050919050565b7f4269642068617320656e6465642e000000000000000000000000000000000000600082015250565b6000611ca3600e83611878565b9150611cae82611c6d565b602082019050919050565b60006020820190508181036000830152611cd281611c96565b9050919050565b7f4e487b7100000000000000000000000000000000000000000000000000000000600052602260045260246000fd5b60006002820490506001821680611d2057607f821691505b602082108103611d3357611d32611cd9565b5b50919050565b7f4e6f7420696e2062696464657273206c69737400000000000000000000000000600082015250565b6000611d6f601383611878565b9150611d7a82611d39565b602082019050919050565b60006020820190508181036000830152611d9e81611d62565b9050919050565b7f4e487b7100000000000000000000000000000000000000000000000000000000600052601160045260246000fd5b6000611ddf826115b9565b9150611dea836115b9565b9250828201905080821115611e0257611e01611da5565b5b92915050565b6000611e13826115b9565b91507fffffffffffffffffffffffffffffffffffffffffffffffffffffffffffffffff8203611e4557611e44611da5565b5b600182019050919050565b7f426964206973206c6f776572207468616e207468652063757272656e7420626960008201527f642e000000000000000000000000000000000000000000000000000000000000602082015250565b6000611eac602283611878565b9150611eb782611e50565b604082019050919050565b60006020820190508181036000830152611edb81611e9f565b9050919050565b60008190508160005260206000209050919050565b60006020601f8301049050919050565b600082821b905092915050565b600060088302611f447fffffffffffffffffffffffffffffffffffffffffffffffffffffffffffffffff82611f07565b611f4e8683611f07565b95508019841693508086168417925050509392505050565b6000819050919050565b6000611f8b611f86611f81846115b9565b611f66565b6115b9565b9050919050565b6000819050919050565b611fa583611f70565b611fb9611fb182611f92565b848454611f14565b825550505050565b600090565b611fce611fc1565b611fd9818484611f9c565b505050565b5b81811015611ffd57611ff2600082611fc6565b600181019050611fdf565b5050565b601f8211156120425761201381611ee2565b61201c84611ef7565b8101602085101561202b578190505b61203f61203785611ef7565b830182611fde565b50505b505050565b600082821c905092915050565b600061206560001984600802612047565b1980831691505092915050565b600061207e8383612054565b9150826002028217905092915050565b6120978261186d565b67ffffffffffffffff8111156120b0576120af61160a565b5b6120ba8254611d08565b6120c5828285612001565b600060209050601f8311600181146120f857600084156120e6578287015190505b6120f08582612072565b865550612158565b601f19841661210686611ee2565b60005b8281101561212e57848901518255600182019150602085019450602081019050612109565b8683101561214b5784890151612147601f891682612054565b8355505b6001600288020188555050505b505050505050565b7f42696420686173206e6f7420656e6465642e0000000000000000000000000000600082015250565b6000612196601283611878565b91506121a182612160565b602082019050919050565b600060208201905081810360008301526121c581612189565b9050919050565b7f596f7520646f206e6f74206861766520616e796d6f726520657468657220746f60008201527f2077697468647261772066726f6d2074686520636f6e74726163742e00000000602082015250565b6000612228603c83611878565b9150612233826121cc565b604082019050919050565b600060208201905081810360008301526122578161221b565b9050919050565b7f4572726f72000000000000000000000000000000000000000000000000000000600082015250565b6000612294600583611878565b915061229f8261225e565b602082019050919050565b600060208201905081810360008301526122c381612287565b9050919050565b60006122d5826115b9565b91506122e0836115b9565b92508282039050818111156122f8576122f7611da5565b5b9291505056fea2646970667358221220877fa81efbcab6c95908f92c1c8c556be58f1f7d7f7b674cae60188bbe2536d564736f6c63430008110033",
  "immutableReferences": {},
  "source": "// SPDX-License-Identifier: GPL-3.0\r\npragma solidity ^0.8.11;\r\n\r\ncontract selectiveDender {\r\n    struct tdr {\r\n        uint id;\r\n        string title;\r\n        string desc;\r\n        uint startTime;\r\n        uint endTime;\r\n        uint accBal;\r\n        uint maxBid;\r\n        uint bidCount;\r\n        address highestBidder;\r\n        address lowestBidder;\r\n        uint winningBid;\r\n        mapping(uint => address) bidders;\r\n    } \r\n\r\n     struct bidder {\r\n        string bidderName;\r\n        bool bidded;\r\n        mapping(uint => uint) bidAmt;\r\n    }\r\n\r\n    mapping(uint => tdr) public tdrs;\r\n    mapping(address => bidder) public bidders;\r\n\r\n    address public manager;\r\n    uint tdrCount=0;\r\n    uint time;\r\n    uint amt;\r\n\r\n    modifier onlyOfficial(){\r\n        require(msg.sender == manager);\r\n        _; \r\n    }\r\n\r\n    constructor()\r\n    payable\r\n    {\r\n        manager= msg.sender;\r\n    }\r\n\r\n    function createTender (string memory _title, \r\n    string memory _desc, \r\n    uint _bidO, \r\n    uint _bidC) \r\n    public\r\n    onlyOfficial\r\n    {\r\n        tdr storage t = tdrs[tdrCount];\r\n        t.id=tdrCount;\r\n        t.title=_title;\r\n        t.desc=_desc;\r\n        t.startTime=_bidO;\r\n        t.endTime=_bidC;\r\n        t.bidCount=0;\r\n        tdrCount++;\r\n    }\r\n\r\n    function addBidder (string memory _name, address _addr) \r\n    public\r\n    onlyOfficial\r\n    {\r\n        bidder storage b = bidders[_addr];\r\n        b.bidderName = _name;\r\n        b.bidded = false;\r\n    }\r\n\r\n    function bid (uint _tdrID, string memory _name)\r\n    public\r\n    payable\r\n    {\r\n        require(tdrs[_tdrID].startTime < block.timestamp, \"Bid has not started.\");\r\n        require(tdrs[_tdrID].endTime > block.timestamp, \"Bid has ended.\");\r\n        require(bytes(bidders[msg.sender].bidderName).length != 0, \"Not in bidders list\");\r\n        if(bidders[msg.sender].bidded){\r\n            amt=msg.value+bidders[msg.sender].bidAmt[_tdrID];\r\n        }else{\r\n            amt=msg.value;\r\n            tdrs[_tdrID].bidders[tdrs[_tdrID].bidCount]=msg.sender;\r\n            tdrs[_tdrID].bidCount++;\r\n        }\r\n        \r\n        require(amt>tdrs[_tdrID].maxBid, \"Bid is lower than the current bid.\");\r\n        bidder storage b = bidders[msg.sender];\r\n        b.bidderName = _name;\r\n        b.bidded = true;\r\n        b.bidAmt[_tdrID] = amt;\r\n        tdrs[_tdrID].accBal += amt;\r\n        if(bidders[msg.sender].bidAmt[_tdrID] > tdrs[_tdrID].maxBid){\r\n            tdrs[_tdrID].maxBid = amt;\r\n            tdrs[_tdrID].highestBidder = msg.sender;\r\n        }\r\n    }\r\n\r\n    function withdrawFunds (uint _tdrID) \r\n    public\r\n    payable\r\n    {\r\n            require(tdrs[_tdrID].endTime < block.timestamp, \"Bid has not ended.\");\r\n            require(bidders[msg.sender].bidAmt[_tdrID] > 0, \"You do not have anymore ether to withdraw from the contract.\");\r\n            bool sent = payable(msg.sender).send(bidders[msg.sender].bidAmt[_tdrID]);\r\n            require(sent,\"Error\");\r\n            tdrs[_tdrID].accBal-=bidders[msg.sender].bidAmt[_tdrID];\r\n            bidders[msg.sender].bidAmt[_tdrID]=0;\r\n\r\n    }\r\n\r\n    function selectWinner (uint _tdrID, uint _bidID)\r\n    public\r\n    payable\r\n    {\r\n        require(tdrs[_tdrID].endTime < block.timestamp, \"Bid has not ended.\");\r\n        tdrs[_tdrID].winningBid = _bidID;\r\n    }\r\n\r\n    function getTdrCount () \r\n    public\r\n    view\r\n    returns( uint count)\r\n    {\r\n        return tdrCount;\r\n    }\r\n\r\n    function getTdrInfo (uint _tdrID)\r\n    public\r\n    view\r\n    returns (uint id,\r\n    string memory title, \r\n    string memory desc, \r\n    uint startTime, \r\n    uint endTime, \r\n    uint maxBid, \r\n    uint currentTime)\r\n    {\r\n        return(tdrs[_tdrID].id ,\r\n        tdrs[_tdrID].title, \r\n        tdrs[_tdrID].desc, \r\n        tdrs[_tdrID].startTime, \r\n        tdrs[_tdrID].endTime,\r\n         tdrs[_tdrID].maxBid, block.timestamp);\r\n    }\r\n\r\n    function getWinningBid ( uint _tdrID )\r\n    public\r\n    view\r\n    returns(address winnerAddress, uint winningBidAmt)\r\n    {\r\n        require(tdrs[_tdrID].endTime < block.timestamp, \"Bid has not ended.\");\r\n        return(tdrs[_tdrID].bidders[tdrs[_tdrID].winningBid], \r\n        bidders[tdrs[_tdrID].bidders[tdrs[_tdrID].winningBid]].bidAmt[_tdrID] );\r\n    }\r\n\r\n    function bidInfo (uint _tdrID, uint _bidID) \r\n    public\r\n    view\r\n    returns(address bidderAddress, uint bidAmtt)\r\n    {\r\n        return(tdrs[_tdrID].bidders[_bidID],bidders[tdrs[_tdrID].bidders[_bidID]].bidAmt[_tdrID]);\r\n    }\r\n\r\n    function highestBidOfTdr (uint _tdrID)\r\n    public\r\n    view\r\n    returns(uint highestBid)\r\n    {\r\n        return tdrs[_tdrID].maxBid;\r\n    }\r\n\r\n    function highestBidderOfTdr (uint _tdrID)\r\n    public\r\n    view\r\n    returns(address highestBidder)\r\n    {\r\n        return tdrs[_tdrID].highestBidder;\r\n    }\r\n\r\n    function getBiddersOfTdr (uint _tdrID, uint _bidID)\r\n    public\r\n    view\r\n    returns(address bidder, uint bidAmt)\r\n    {\r\n        return(tdrs[_tdrID].bidders[_bidID], bidders[tdrs[_tdrID].bidders[_bidID]].bidAmt[_tdrID]);\r\n    }\r\n   \r\n    function getBidderCountofTdr (uint _tdrID) \r\n    public\r\n    view\r\n    returns(uint count)\r\n    {\r\n        return tdrs[_tdrID].bidCount;\r\n    }\r\n\r\n}",
  "sourcePath": "C:\\Users\\akash\\OneDrive\\Documents\\project\\D-Ender-Ethereum-dApp\\src\\contracts\\selectiveDender.sol",
  "compiler": {
    "name": "solc",
    "version": "0.8.17+commit.8df45f5f.Emscripten.clang"
  },
  "schemaVersion": "3.4.11",
  "updatedAt": "2023-03-16T12:21:21.676Z",
  "networkType": "ethereum",
  "devdoc": {
    "kind": "dev",
    "methods": {},
    "version": 1
  },
  "userdoc": {
    "kind": "user",
    "methods": {},
    "version": 1
  }
}