{
  "contractName": "selectiveDender",
  "abi": [
    {
      "inputs": [],
      "stateMutability": "payable",
      "type": "constructor",
      "payable": true
    },
    {
      "inputs": [
        {
          "internalType": "address",
          "name": "",
          "type": "address"
        }
      ],
      "name": "bidders",
      "outputs": [
        {
          "internalType": "string",
          "name": "bidderName",
          "type": "string"
        },
        {
          "internalType": "bool",
          "name": "bidded",
          "type": "bool"
        }
      ],
      "stateMutability": "view",
      "type": "function",
      "constant": true
    },
    {
      "inputs": [],
      "name": "manager",
      "outputs": [
        {
          "internalType": "address",
          "name": "",
          "type": "address"
        }
      ],
      "stateMutability": "view",
      "type": "function",
      "constant": true
    },
    {
      "inputs": [
        {
          "internalType": "uint256",
          "name": "",
          "type": "uint256"
        }
      ],
      "name": "tdrs",
      "outputs": [
        {
          "internalType": "uint256",
          "name": "id",
          "type": "uint256"
        },
        {
          "internalType": "string",
          "name": "title",
          "type": "string"
        },
        {
          "internalType": "string",
          "name": "desc",
          "type": "string"
        },
        {
          "internalType": "uint256",
          "name": "startTime",
          "type": "uint256"
        },
        {
          "internalType": "uint256",
          "name": "endTime",
          "type": "uint256"
        },
        {
          "internalType": "uint256",
          "name": "accBal",
          "type": "uint256"
        },
        {
          "internalType": "uint256",
          "name": "maxBid",
          "type": "uint256"
        },
        {
          "internalType": "uint256",
          "name": "bidCount",
          "type": "uint256"
        },
        {
          "internalType": "address",
          "name": "highestBidder",
          "type": "address"
        },
        {
          "internalType": "address",
          "name": "lowestBidder",
          "type": "address"
        },
        {
          "internalType": "uint256",
          "name": "winningBid",
          "type": "uint256"
        }
      ],
      "stateMutability": "view",
      "type": "function",
      "constant": true
    },
    {
      "inputs": [
        {
          "internalType": "string",
          "name": "_title",
          "type": "string"
        },
        {
          "internalType": "string",
          "name": "_desc",
          "type": "string"
        },
        {
          "internalType": "uint256",
          "name": "_bidO",
          "type": "uint256"
        },
        {
          "internalType": "uint256",
          "name": "_bidC",
          "type": "uint256"
        }
      ],
      "name": "createTender",
      "outputs": [],
      "stateMutability": "nonpayable",
      "type": "function"
    },
    {
      "inputs": [
        {
          "internalType": "string",
          "name": "_name",
          "type": "string"
        },
        {
          "internalType": "address",
          "name": "_addr",
          "type": "address"
        }
      ],
      "name": "addBidder",
      "outputs": [],
      "stateMutability": "nonpayable",
      "type": "function"
    },
    {
      "inputs": [
        {
          "internalType": "uint256",
          "name": "_tdrID",
          "type": "uint256"
        },
        {
          "internalType": "string",
          "name": "_name",
          "type": "string"
        }
      ],
      "name": "bid",
      "outputs": [],
      "stateMutability": "payable",
      "type": "function",
      "payable": true
    },
    {
      "inputs": [
        {
          "internalType": "uint256",
          "name": "_tdrID",
          "type": "uint256"
        }
      ],
      "name": "withdrawFunds",
      "outputs": [],
      "stateMutability": "payable",
      "type": "function",
      "payable": true
    },
    {
      "inputs": [
        {
          "internalType": "uint256",
          "name": "_tdrID",
          "type": "uint256"
        },
        {
          "internalType": "uint256",
          "name": "_bidID",
          "type": "uint256"
        }
      ],
      "name": "selectWinner",
      "outputs": [],
      "stateMutability": "payable",
      "type": "function",
      "payable": true
    },
    {
      "inputs": [],
      "name": "getTdrCount",
      "outputs": [
        {
          "internalType": "uint256",
          "name": "count",
          "type": "uint256"
        }
      ],
      "stateMutability": "view",
      "type": "function",
      "constant": true
    },
    {
      "inputs": [
        {
          "internalType": "uint256",
          "name": "_tdrID",
          "type": "uint256"
        }
      ],
      "name": "getTdrInfo",
      "outputs": [
        {
          "internalType": "uint256",
          "name": "id",
          "type": "uint256"
        },
        {
          "internalType": "string",
          "name": "title",
          "type": "string"
        },
        {
          "internalType": "string",
          "name": "desc",
          "type": "string"
        },
        {
          "internalType": "uint256",
          "name": "startTime",
          "type": "uint256"
        },
        {
          "internalType": "uint256",
          "name": "endTime",
          "type": "uint256"
        },
        {
          "internalType": "uint256",
          "name": "maxBid",
          "type": "uint256"
        },
        {
          "internalType": "uint256",
          "name": "currentTime",
          "type": "uint256"
        }
      ],
      "stateMutability": "view",
      "type": "function",
      "constant": true
    },
    {
      "inputs": [
        {
          "internalType": "uint256",
          "name": "_tdrID",
          "type": "uint256"
        }
      ],
      "name": "getWinningBid",
      "outputs": [
        {
          "internalType": "address",
          "name": "winnerAddress",
          "type": "address"
        },
        {
          "internalType": "uint256",
          "name": "winningBidAmt",
          "type": "uint256"
        }
      ],
      "stateMutability": "view",
      "type": "function",
      "constant": true
    },
    {
      "inputs": [
        {
          "internalType": "uint256",
          "name": "_tdrID",
          "type": "uint256"
        },
        {
          "internalType": "uint256",
          "name": "_bidID",
          "type": "uint256"
        }
      ],
      "name": "bidInfo",
      "outputs": [
        {
          "internalType": "address",
          "name": "bidderAddress",
          "type": "address"
        },
        {
          "internalType": "uint256",
          "name": "bidAmtt",
          "type": "uint256"
        }
      ],
      "stateMutability": "view",
      "type": "function",
      "constant": true
    },
    {
      "inputs": [
        {
          "internalType": "uint256",
          "name": "_tdrID",
          "type": "uint256"
        }
      ],
      "name": "highestBidOfTdr",
      "outputs": [
        {
          "internalType": "uint256",
          "name": "highestBid",
          "type": "uint256"
        }
      ],
      "stateMutability": "view",
      "type": "function",
      "constant": true
    },
    {
      "inputs": [
        {
          "internalType": "uint256",
          "name": "_tdrID",
          "type": "uint256"
        }
      ],
      "name": "highestBidderOfTdr",
      "outputs": [
        {
          "internalType": "address",
          "name": "highestBidder",
          "type": "address"
        }
      ],
      "stateMutability": "view",
      "type": "function",
      "constant": true
    },
    {
      "inputs": [
        {
          "internalType": "uint256",
          "name": "_tdrID",
          "type": "uint256"
        },
        {
          "internalType": "uint256",
          "name": "_bidID",
          "type": "uint256"
        }
      ],
      "name": "getBiddersOfTdr",
      "outputs": [
        {
          "internalType": "address",
          "name": "bidder",
          "type": "address"
        },
        {
          "internalType": "uint256",
          "name": "bidAmt",
          "type": "uint256"
        }
      ],
      "stateMutability": "view",
      "type": "function",
      "constant": true
    },
    {
      "inputs": [
        {
          "internalType": "uint256",
          "name": "_tdrID",
          "type": "uint256"
        }
      ],
      "name": "getBidderCountofTdr",
      "outputs": [
        {
          "internalType": "uint256",
          "name": "count",
          "type": "uint256"
        }
      ],
      "stateMutability": "view",
      "type": "function",
      "constant": true
    }
  ],
  "bytecode": "0x6080604052600060035533600260006101000a81548173ffffffffffffffffffffffffffffffffffffffff021916908373ffffffffffffffffffffffffffffffffffffffff160217905550612435806100596000396000f3fe6080604052600436106100f35760003560e01c806398bddce81161008a578063d927ee8811610059578063d927ee8814610363578063e6fa02091461038c578063ebaaa7f8146103a8578063fcc8f793146103ef576100f3565b806398bddce814610282578063a09bff41146102c0578063c1b80d44146102fd578063d1c1d8401461033a576100f3565b8063481c6a75116100c6578063481c6a75146101985780636891939d146101c35780637220a9a0146102015780637dfa159214610244576100f3565b80630fc55fd1146100f8578063155dd5ee14610114578063263b20bd1461013057806345ae5daf1461016d575b600080fd5b610112600480360381019061010d9190611836565b61042d565b005b61012e60048036038101906101299190611892565b6109d4565b005b34801561013c57600080fd5b5061015760048036038101906101529190611892565b610c69565b60405161016491906118ce565b60405180910390f35b34801561017957600080fd5b50610182610c88565b60405161018f91906118ce565b60405180910390f35b3480156101a457600080fd5b506101ad610c92565b6040516101ba919061192a565b60405180910390f35b3480156101cf57600080fd5b506101ea60048036038101906101e59190611892565b610cb8565b6040516101f8929190611945565b60405180910390f35b34801561020d57600080fd5b5061022860048036038101906102239190611892565b610e26565b60405161023b97969594939291906119ed565b60405180910390f35b34801561025057600080fd5b5061026b60048036038101906102669190611a6a565b610fe5565b604051610279929190611945565b60405180910390f35b34801561028e57600080fd5b506102a960048036038101906102a49190611a6a565b6110d4565b6040516102b7929190611945565b60405180910390f35b3480156102cc57600080fd5b506102e760048036038101906102e29190611892565b6111c3565b6040516102f491906118ce565b60405180910390f35b34801561030957600080fd5b50610324600480360381019061031f9190611892565b6111e2565b604051610331919061192a565b60405180910390f35b34801561034657600080fd5b50610361600480360381019061035c9190611ad6565b611221565b005b34801561036f57600080fd5b5061038a60048036038101906103859190611b32565b6112f2565b005b6103a660048036038101906103a19190611a6a565b6113ce565b005b3480156103b457600080fd5b506103cf60048036038101906103ca9190611892565b611443565b6040516103e69b9a99989796959493929190611bd1565b60405180910390f35b3480156103fb57600080fd5b5061041660048036038101906104119190611c8a565b6115ed565b604051610424929190611cd2565b60405180910390f35b426000808481526020019081526020016000206003015410610484576040517f08c379a000000000000000000000000000000000000000000000000000000000815260040161047b90611d4e565b60405180910390fd5b4260008084815260200190815260200160002060040154116104db576040517f08c379a00000000000000000000000000000000000000000000000000000000081526004016104d290611dba565b60405180910390fd5b6000600160003373ffffffffffffffffffffffffffffffffffffffff1673ffffffffffffffffffffffffffffffffffffffff168152602001908152602001600020600001805461052a90611e09565b90500361056c576040517f08c379a000000000000000000000000000000000000000000000000000000000815260040161056390611e86565b60405180910390fd5b600160003373ffffffffffffffffffffffffffffffffffffffff1673ffffffffffffffffffffffffffffffffffffffff16815260200190815260200160002060010160009054906101000a900460ff161561072c57600160003373ffffffffffffffffffffffffffffffffffffffff1673ffffffffffffffffffffffffffffffffffffffff168152602001908152602001600020600201600083815260200190815260200160002054346106209190611ed5565b6005819055506000600160003373ffffffffffffffffffffffffffffffffffffffff1673ffffffffffffffffffffffffffffffffffffffff168152602001908152602001600020600201600084815260200190815260200160002054036107275733600080848152602001908152602001600020600b01600080600086815260200190815260200160002060070154815260200190815260200160002060006101000a81548173ffffffffffffffffffffffffffffffffffffffff021916908373ffffffffffffffffffffffffffffffffffffffff160217905550600080838152602001908152602001600020600701600081548092919061072190611f09565b91905055505b6107d9565b3460058190555033600080848152602001908152602001600020600b01600080600086815260200190815260200160002060070154815260200190815260200160002060006101000a81548173ffffffffffffffffffffffffffffffffffffffff021916908373ffffffffffffffffffffffffffffffffffffffff16021790555060008083815260200190815260200160002060070160008154809291906107d390611f09565b91905055505b6000808381526020019081526020016000206006015460055411610832576040517f08c379a000000000000000000000000000000000000000000000000000000000815260040161082990611fc3565b60405180910390fd5b6000600160003373ffffffffffffffffffffffffffffffffffffffff1673ffffffffffffffffffffffffffffffffffffffff168152602001908152602001600020905081816000019081610886919061218f565b5060018160010160006101000a81548160ff0219169083151502179055506005548160020160008581526020019081526020016000208190555060055460008085815260200190815260200160002060050160008282546108e79190611ed5565b9250508190555060008084815260200190815260200160002060060154600160003373ffffffffffffffffffffffffffffffffffffffff1673ffffffffffffffffffffffffffffffffffffffff16815260200190815260200160002060020160008581526020019081526020016000205411156109cf57600554600080858152602001908152602001600020600601819055503360008085815260200190815260200160002060080160006101000a81548173ffffffffffffffffffffffffffffffffffffffff021916908373ffffffffffffffffffffffffffffffffffffffff1602179055505b505050565b426000808381526020019081526020016000206004015410610a2b576040517f08c379a0000000000000000000000000000000000000000000000000000000008152600401610a22906122ad565b60405180910390fd5b6000600160003373ffffffffffffffffffffffffffffffffffffffff1673ffffffffffffffffffffffffffffffffffffffff16815260200190815260200160002060020160008381526020019081526020016000205411610ac1576040517f08c379a0000000000000000000000000000000000000000000000000000000008152600401610ab89061233f565b60405180910390fd5b60003373ffffffffffffffffffffffffffffffffffffffff166108fc600160003373ffffffffffffffffffffffffffffffffffffffff1673ffffffffffffffffffffffffffffffffffffffff1681526020019081526020016000206002016000858152602001908152602001600020549081150290604051600060405180830381858888f19350505050905080610b8d576040517f08c379a0000000000000000000000000000000000000000000000000000000008152600401610b84906123ab565b60405180910390fd5b600160003373ffffffffffffffffffffffffffffffffffffffff1673ffffffffffffffffffffffffffffffffffffffff1681526020019081526020016000206002016000838152602001908152602001600020546000808481526020019081526020016000206005016000828254610c0591906123cb565b925050819055506000600160003373ffffffffffffffffffffffffffffffffffffffff1673ffffffffffffffffffffffffffffffffffffffff1681526020019081526020016000206002016000848152602001908152602001600020819055505050565b6000806000838152602001908152602001600020600701549050919050565b6000600354905090565b600260009054906101000a900473ffffffffffffffffffffffffffffffffffffffff1681565b600080426000808581526020019081526020016000206004015410610d12576040517f08c379a0000000000000000000000000000000000000000000000000000000008152600401610d09906122ad565b60405180910390fd5b600080848152602001908152602001600020600b016000806000868152602001908152602001600020600a0154815260200190815260200160002060009054906101000a900473ffffffffffffffffffffffffffffffffffffffff1660016000806000878152602001908152602001600020600b016000806000898152602001908152602001600020600a0154815260200190815260200160002060009054906101000a900473ffffffffffffffffffffffffffffffffffffffff1673ffffffffffffffffffffffffffffffffffffffff1673ffffffffffffffffffffffffffffffffffffffff16815260200190815260200160002060020160008581526020019081526020016000205491509150915091565b6000606080600080600080600080898152602001908152602001600020600001546000808a81526020019081526020016000206001016000808b81526020019081526020016000206002016000808c8152602001908152602001600020600301546000808d8152602001908152602001600020600401546000808e81526020019081526020016000206006015442858054610ec090611e09565b80601f0160208091040260200160405190810160405280929190818152602001828054610eec90611e09565b8015610f395780601f10610f0e57610100808354040283529160200191610f39565b820191906000526020600020905b815481529060010190602001808311610f1c57829003601f168201915b50505050509550848054610f4c90611e09565b80601f0160208091040260200160405190810160405280929190818152602001828054610f7890611e09565b8015610fc55780601f10610f9a57610100808354040283529160200191610fc5565b820191906000526020600020905b815481529060010190602001808311610fa857829003601f168201915b505050505094509650965096509650965096509650919395979092949650565b600080600080858152602001908152602001600020600b01600084815260200190815260200160002060009054906101000a900473ffffffffffffffffffffffffffffffffffffffff1660016000806000888152602001908152602001600020600b01600087815260200190815260200160002060009054906101000a900473ffffffffffffffffffffffffffffffffffffffff1673ffffffffffffffffffffffffffffffffffffffff1673ffffffffffffffffffffffffffffffffffffffff168152602001908152602001600020600201600086815260200190815260200160002054915091509250929050565b600080600080858152602001908152602001600020600b01600084815260200190815260200160002060009054906101000a900473ffffffffffffffffffffffffffffffffffffffff1660016000806000888152602001908152602001600020600b01600087815260200190815260200160002060009054906101000a900473ffffffffffffffffffffffffffffffffffffffff1673ffffffffffffffffffffffffffffffffffffffff1673ffffffffffffffffffffffffffffffffffffffff168152602001908152602001600020600201600086815260200190815260200160002054915091509250929050565b6000806000838152602001908152602001600020600601549050919050565b600080600083815260200190815260200160002060080160009054906101000a900473ffffffffffffffffffffffffffffffffffffffff169050919050565b600260009054906101000a900473ffffffffffffffffffffffffffffffffffffffff1673ffffffffffffffffffffffffffffffffffffffff163373ffffffffffffffffffffffffffffffffffffffff161461127b57600080fd5b6000600160008373ffffffffffffffffffffffffffffffffffffffff1673ffffffffffffffffffffffffffffffffffffffff1681526020019081526020016000209050828160000190816112cf919061218f565b5060008160010160006101000a81548160ff021916908315150217905550505050565b600260009054906101000a900473ffffffffffffffffffffffffffffffffffffffff1673ffffffffffffffffffffffffffffffffffffffff163373ffffffffffffffffffffffffffffffffffffffff161461134c57600080fd5b600080600060035481526020019081526020016000209050600354816000018190555084816001019081611380919061218f565b5083816002019081611392919061218f565b5082816003018190555081816004018190555060008160070181905550600360008154809291906113c290611f09565b91905055505050505050565b426000808481526020019081526020016000206004015410611425576040517f08c379a000000000000000000000000000000000000000000000000000000000815260040161141c906122ad565b60405180910390fd5b80600080848152602001908152602001600020600a01819055505050565b600060205280600052604060002060009150905080600001549080600101805461146c90611e09565b80601f016020809104026020016040519081016040528092919081815260200182805461149890611e09565b80156114e55780601f106114ba576101008083540402835291602001916114e5565b820191906000526020600020905b8154815290600101906020018083116114c857829003601f168201915b5050505050908060020180546114fa90611e09565b80601f016020809104026020016040519081016040528092919081815260200182805461152690611e09565b80156115735780601f1061154857610100808354040283529160200191611573565b820191906000526020600020905b81548152906001019060200180831161155657829003601f168201915b5050505050908060030154908060040154908060050154908060060154908060070154908060080160009054906101000a900473ffffffffffffffffffffffffffffffffffffffff16908060090160009054906101000a900473ffffffffffffffffffffffffffffffffffffffff169080600a015490508b565b600160205280600052604060002060009150905080600001805461161090611e09565b80601f016020809104026020016040519081016040528092919081815260200182805461163c90611e09565b80156116895780601f1061165e57610100808354040283529160200191611689565b820191906000526020600020905b81548152906001019060200180831161166c57829003601f168201915b5050505050908060010160009054906101000a900460ff16905082565b6000604051905090565b600080fd5b600080fd5b6000819050919050565b6116cd816116ba565b81146116d857600080fd5b50565b6000813590506116ea816116c4565b92915050565b600080fd5b600080fd5b6000601f19601f8301169050919050565b7f4e487b7100000000000000000000000000000000000000000000000000000000600052604160045260246000fd5b611743826116fa565b810181811067ffffffffffffffff821117156117625761176161170b565b5b80604052505050565b60006117756116a6565b9050611781828261173a565b919050565b600067ffffffffffffffff8211156117a1576117a061170b565b5b6117aa826116fa565b9050602081019050919050565b82818337600083830152505050565b60006117d96117d484611786565b61176b565b9050828152602081018484840111156117f5576117f46116f5565b5b6118008482856117b7565b509392505050565b600082601f83011261181d5761181c6116f0565b5b813561182d8482602086016117c6565b91505092915050565b6000806040838503121561184d5761184c6116b0565b5b600061185b858286016116db565b925050602083013567ffffffffffffffff81111561187c5761187b6116b5565b5b61188885828601611808565b9150509250929050565b6000602082840312156118a8576118a76116b0565b5b60006118b6848285016116db565b91505092915050565b6118c8816116ba565b82525050565b60006020820190506118e360008301846118bf565b92915050565b600073ffffffffffffffffffffffffffffffffffffffff82169050919050565b6000611914826118e9565b9050919050565b61192481611909565b82525050565b600060208201905061193f600083018461191b565b92915050565b600060408201905061195a600083018561191b565b61196760208301846118bf565b9392505050565b600081519050919050565b600082825260208201905092915050565b60005b838110156119a857808201518184015260208101905061198d565b60008484015250505050565b60006119bf8261196e565b6119c98185611979565b93506119d981856020860161198a565b6119e2816116fa565b840191505092915050565b600060e082019050611a02600083018a6118bf565b8181036020830152611a1481896119b4565b90508181036040830152611a2881886119b4565b9050611a3760608301876118bf565b611a4460808301866118bf565b611a5160a08301856118bf565b611a5e60c08301846118bf565b98975050505050505050565b60008060408385031215611a8157611a806116b0565b5b6000611a8f858286016116db565b9250506020611aa0858286016116db565b9150509250929050565b611ab381611909565b8114611abe57600080fd5b50565b600081359050611ad081611aaa565b92915050565b60008060408385031215611aed57611aec6116b0565b5b600083013567ffffffffffffffff811115611b0b57611b0a6116b5565b5b611b1785828601611808565b9250506020611b2885828601611ac1565b9150509250929050565b60008060008060808587031215611b4c57611b4b6116b0565b5b600085013567ffffffffffffffff811115611b6a57611b696116b5565b5b611b7687828801611808565b945050602085013567ffffffffffffffff811115611b9757611b966116b5565b5b611ba387828801611808565b9350506040611bb4878288016116db565b9250506060611bc5878288016116db565b91505092959194509250565b600061016082019050611be7600083018e6118bf565b8181036020830152611bf9818d6119b4565b90508181036040830152611c0d818c6119b4565b9050611c1c606083018b6118bf565b611c29608083018a6118bf565b611c3660a08301896118bf565b611c4360c08301886118bf565b611c5060e08301876118bf565b611c5e61010083018661191b565b611c6c61012083018561191b565b611c7a6101408301846118bf565b9c9b505050505050505050505050565b600060208284031215611ca057611c9f6116b0565b5b6000611cae84828501611ac1565b91505092915050565b60008115159050919050565b611ccc81611cb7565b82525050565b60006040820190508181036000830152611cec81856119b4565b9050611cfb6020830184611cc3565b9392505050565b7f42696420686173206e6f7420737461727465642e000000000000000000000000600082015250565b6000611d38601483611979565b9150611d4382611d02565b602082019050919050565b60006020820190508181036000830152611d6781611d2b565b9050919050565b7f4269642068617320656e6465642e000000000000000000000000000000000000600082015250565b6000611da4600e83611979565b9150611daf82611d6e565b602082019050919050565b60006020820190508181036000830152611dd381611d97565b9050919050565b7f4e487b7100000000000000000000000000000000000000000000000000000000600052602260045260246000fd5b60006002820490506001821680611e2157607f821691505b602082108103611e3457611e33611dda565b5b50919050565b7f4e6f7420696e2062696464657273206c69737400000000000000000000000000600082015250565b6000611e70601383611979565b9150611e7b82611e3a565b602082019050919050565b60006020820190508181036000830152611e9f81611e63565b9050919050565b7f4e487b7100000000000000000000000000000000000000000000000000000000600052601160045260246000fd5b6000611ee0826116ba565b9150611eeb836116ba565b9250828201905080821115611f0357611f02611ea6565b5b92915050565b6000611f14826116ba565b91507fffffffffffffffffffffffffffffffffffffffffffffffffffffffffffffffff8203611f4657611f45611ea6565b5b600182019050919050565b7f426964206973206c6f776572207468616e207468652063757272656e7420626960008201527f642e000000000000000000000000000000000000000000000000000000000000602082015250565b6000611fad602283611979565b9150611fb882611f51565b604082019050919050565b60006020820190508181036000830152611fdc81611fa0565b9050919050565b60008190508160005260206000209050919050565b60006020601f8301049050919050565b600082821b905092915050565b6000600883026120457fffffffffffffffffffffffffffffffffffffffffffffffffffffffffffffffff82612008565b61204f8683612008565b95508019841693508086168417925050509392505050565b6000819050919050565b600061208c612087612082846116ba565b612067565b6116ba565b9050919050565b6000819050919050565b6120a683612071565b6120ba6120b282612093565b848454612015565b825550505050565b600090565b6120cf6120c2565b6120da81848461209d565b505050565b5b818110156120fe576120f36000826120c7565b6001810190506120e0565b5050565b601f8211156121435761211481611fe3565b61211d84611ff8565b8101602085101561212c578190505b61214061213885611ff8565b8301826120df565b50505b505050565b600082821c905092915050565b600061216660001984600802612148565b1980831691505092915050565b600061217f8383612155565b9150826002028217905092915050565b6121988261196e565b67ffffffffffffffff8111156121b1576121b061170b565b5b6121bb8254611e09565b6121c6828285612102565b600060209050601f8311600181146121f957600084156121e7578287015190505b6121f18582612173565b865550612259565b601f19841661220786611fe3565b60005b8281101561222f5784890151825560018201915060208501945060208101905061220a565b8683101561224c5784890151612248601f891682612155565b8355505b6001600288020188555050505b505050505050565b7f42696420686173206e6f7420656e6465642e0000000000000000000000000000600082015250565b6000612297601283611979565b91506122a282612261565b602082019050919050565b600060208201905081810360008301526122c68161228a565b9050919050565b7f596f7520646f206e6f74206861766520616e796d6f726520657468657220746f60008201527f2077697468647261772066726f6d2074686520636f6e74726163742e00000000602082015250565b6000612329603c83611979565b9150612334826122cd565b604082019050919050565b600060208201905081810360008301526123588161231c565b9050919050565b7f4572726f72000000000000000000000000000000000000000000000000000000600082015250565b6000612395600583611979565b91506123a08261235f565b602082019050919050565b600060208201905081810360008301526123c481612388565b9050919050565b60006123d6826116ba565b91506123e1836116ba565b92508282039050818111156123f9576123f8611ea6565b5b9291505056fea2646970667358221220f895677dd231ae08ec454fda4fa9030693c397be26286f76a22a8dfa8eb3d71a64736f6c63430008110033",
  "immutableReferences": {},
  "source": "// SPDX-License-Identifier: GPL-3.0\r\npragma solidity ^0.8.11;\r\n\r\ncontract selectiveDender {\r\n    struct tdr {\r\n        uint id;\r\n        string title;\r\n        string desc;\r\n        uint startTime;\r\n        uint endTime;\r\n        uint accBal;\r\n        uint maxBid;\r\n        uint bidCount;\r\n        address highestBidder;\r\n        address lowestBidder;\r\n        uint winningBid;\r\n        mapping(uint => address) bidders;\r\n    } \r\n\r\n     struct bidder {\r\n        string bidderName;\r\n        bool bidded;\r\n        mapping(uint => uint) bidAmt;\r\n    }\r\n\r\n    mapping(uint => tdr) public tdrs;\r\n    mapping(address => bidder) public bidders;\r\n\r\n    address public manager;\r\n    uint tdrCount=0;\r\n    uint time;\r\n    uint amt;\r\n\r\n    modifier onlyOfficial(){\r\n        require(msg.sender == manager);\r\n        _; \r\n    }\r\n\r\n    constructor()\r\n    payable\r\n    {\r\n        manager= msg.sender;\r\n    }\r\n\r\n    function createTender (string memory _title, \r\n    string memory _desc, \r\n    uint _bidO, \r\n    uint _bidC) \r\n    public\r\n    onlyOfficial\r\n    {\r\n        tdr storage t = tdrs[tdrCount];\r\n        t.id=tdrCount;\r\n        t.title=_title;\r\n        t.desc=_desc;\r\n        t.startTime=_bidO;\r\n        t.endTime=_bidC;\r\n        t.bidCount=0;\r\n        tdrCount++;\r\n    }\r\n\r\n    function addBidder (string memory _name, address _addr) \r\n    public\r\n    onlyOfficial\r\n    {\r\n        bidder storage b = bidders[_addr];\r\n        b.bidderName = _name;\r\n        b.bidded = false;\r\n    }\r\n\r\n    function bid (uint _tdrID, string memory _name)\r\n    public\r\n    payable\r\n    {\r\n        require(tdrs[_tdrID].startTime < block.timestamp, \"Bid has not started.\");\r\n        require(tdrs[_tdrID].endTime > block.timestamp, \"Bid has ended.\");\r\n        require(bytes(bidders[msg.sender].bidderName).length != 0, \"Not in bidders list\");\r\n        if(bidders[msg.sender].bidded){\r\n            amt=msg.value+bidders[msg.sender].bidAmt[_tdrID];\r\n            if(bidders[msg.sender].bidAmt[_tdrID]==0){\r\n                    tdrs[_tdrID].bidders[tdrs[_tdrID].bidCount]=msg.sender;\r\n                    tdrs[_tdrID].bidCount++;\r\n                }\r\n        }else{\r\n            amt=msg.value;\r\n            tdrs[_tdrID].bidders[tdrs[_tdrID].bidCount]=msg.sender;\r\n            tdrs[_tdrID].bidCount++;\r\n        }\r\n        \r\n        require(amt>tdrs[_tdrID].maxBid, \"Bid is lower than the current bid.\");\r\n        bidder storage b = bidders[msg.sender];\r\n        b.bidderName = _name;\r\n        b.bidded = true;\r\n        b.bidAmt[_tdrID] = amt;\r\n        tdrs[_tdrID].accBal += amt;\r\n        if(bidders[msg.sender].bidAmt[_tdrID] > tdrs[_tdrID].maxBid){\r\n            tdrs[_tdrID].maxBid = amt;\r\n            tdrs[_tdrID].highestBidder = msg.sender;\r\n        }\r\n    }\r\n\r\n    function withdrawFunds (uint _tdrID) \r\n    public\r\n    payable\r\n    {\r\n            require(tdrs[_tdrID].endTime < block.timestamp, \"Bid has not ended.\");\r\n            require(bidders[msg.sender].bidAmt[_tdrID] > 0, \"You do not have anymore ether to withdraw from the contract.\");\r\n            bool sent = payable(msg.sender).send(bidders[msg.sender].bidAmt[_tdrID]);\r\n            require(sent,\"Error\");\r\n            tdrs[_tdrID].accBal-=bidders[msg.sender].bidAmt[_tdrID];\r\n            bidders[msg.sender].bidAmt[_tdrID]=0;\r\n\r\n    }\r\n\r\n    function selectWinner (uint _tdrID, uint _bidID)\r\n    public\r\n    payable\r\n    {\r\n        require(tdrs[_tdrID].endTime < block.timestamp, \"Bid has not ended.\");\r\n        tdrs[_tdrID].winningBid = _bidID;\r\n    }\r\n\r\n    function getTdrCount () \r\n    public\r\n    view\r\n    returns( uint count)\r\n    {\r\n        return tdrCount;\r\n    }\r\n\r\n    function getTdrInfo (uint _tdrID)\r\n    public\r\n    view\r\n    returns (uint id,\r\n    string memory title, \r\n    string memory desc, \r\n    uint startTime, \r\n    uint endTime, \r\n    uint maxBid, \r\n    uint currentTime)\r\n    {\r\n        return(tdrs[_tdrID].id ,\r\n        tdrs[_tdrID].title, \r\n        tdrs[_tdrID].desc, \r\n        tdrs[_tdrID].startTime, \r\n        tdrs[_tdrID].endTime,\r\n         tdrs[_tdrID].maxBid, block.timestamp);\r\n    }\r\n\r\n    function getWinningBid ( uint _tdrID )\r\n    public\r\n    view\r\n    returns(address winnerAddress, uint winningBidAmt)\r\n    {\r\n        require(tdrs[_tdrID].endTime < block.timestamp, \"Bid has not ended.\");\r\n        return(tdrs[_tdrID].bidders[tdrs[_tdrID].winningBid], \r\n        bidders[tdrs[_tdrID].bidders[tdrs[_tdrID].winningBid]].bidAmt[_tdrID] );\r\n    }\r\n\r\n    function bidInfo (uint _tdrID, uint _bidID) \r\n    public\r\n    view\r\n    returns(address bidderAddress, uint bidAmtt)\r\n    {\r\n        return(tdrs[_tdrID].bidders[_bidID],bidders[tdrs[_tdrID].bidders[_bidID]].bidAmt[_tdrID]);\r\n    }\r\n\r\n    function highestBidOfTdr (uint _tdrID)\r\n    public\r\n    view\r\n    returns(uint highestBid)\r\n    {\r\n        return tdrs[_tdrID].maxBid;\r\n    }\r\n\r\n    function highestBidderOfTdr (uint _tdrID)\r\n    public\r\n    view\r\n    returns(address highestBidder)\r\n    {\r\n        return tdrs[_tdrID].highestBidder;\r\n    }\r\n\r\n    function getBiddersOfTdr (uint _tdrID, uint _bidID)\r\n    public\r\n    view\r\n    returns(address bidder, uint bidAmt)\r\n    {\r\n        return(tdrs[_tdrID].bidders[_bidID], bidders[tdrs[_tdrID].bidders[_bidID]].bidAmt[_tdrID]);\r\n    }\r\n   \r\n    function getBidderCountofTdr (uint _tdrID) \r\n    public\r\n    view\r\n    returns(uint count)\r\n    {\r\n        return tdrs[_tdrID].bidCount;\r\n    }\r\n\r\n}",
  "sourcePath": "C:\\Users\\akash\\OneDrive\\Documents\\project\\D-Ender-Ethereum-dApp\\src\\contracts\\selectiveDender.sol",
  "compiler": {
    "name": "solc",
    "version": "0.8.17+commit.8df45f5f.Emscripten.clang"
  },
  "schemaVersion": "3.4.11",
  "updatedAt": "2023-05-20T21:03:10.598Z",
  "networkType": "ethereum",
  "devdoc": {
    "kind": "dev",
    "methods": {},
    "version": 1
  },
  "userdoc": {
    "kind": "user",
    "methods": {},
    "version": 1
  }
}