{
  "contractName": "selectiveDender",
  "abi": [
    {
      "inputs": [],
      "stateMutability": "payable",
      "type": "constructor",
      "payable": true
    },
    {
      "inputs": [
        {
          "internalType": "address",
          "name": "",
          "type": "address"
        }
      ],
      "name": "bidders",
      "outputs": [
        {
          "internalType": "string",
          "name": "bidderName",
          "type": "string"
        },
        {
          "internalType": "bool",
          "name": "bidded",
          "type": "bool"
        }
      ],
      "stateMutability": "view",
      "type": "function",
      "constant": true
    },
    {
      "inputs": [],
      "name": "manager",
      "outputs": [
        {
          "internalType": "address",
          "name": "",
          "type": "address"
        }
      ],
      "stateMutability": "view",
      "type": "function",
      "constant": true
    },
    {
      "inputs": [
        {
          "internalType": "uint256",
          "name": "",
          "type": "uint256"
        }
      ],
      "name": "tdrs",
      "outputs": [
        {
          "internalType": "uint256",
          "name": "id",
          "type": "uint256"
        },
        {
          "internalType": "string",
          "name": "title",
          "type": "string"
        },
        {
          "internalType": "string",
          "name": "desc",
          "type": "string"
        },
        {
          "internalType": "uint256",
          "name": "startTime",
          "type": "uint256"
        },
        {
          "internalType": "uint256",
          "name": "endTime",
          "type": "uint256"
        },
        {
          "internalType": "uint256",
          "name": "accBal",
          "type": "uint256"
        },
        {
          "internalType": "uint256",
          "name": "maxBid",
          "type": "uint256"
        },
        {
          "internalType": "uint256",
          "name": "bidCount",
          "type": "uint256"
        },
        {
          "internalType": "address",
          "name": "highestBidder",
          "type": "address"
        },
        {
          "internalType": "address",
          "name": "lowestBidder",
          "type": "address"
        },
        {
          "internalType": "uint256",
          "name": "winningBid",
          "type": "uint256"
        }
      ],
      "stateMutability": "view",
      "type": "function",
      "constant": true
    },
    {
      "inputs": [
        {
          "internalType": "string",
          "name": "_title",
          "type": "string"
        },
        {
          "internalType": "string",
          "name": "_desc",
          "type": "string"
        },
        {
          "internalType": "uint256",
          "name": "_bidO",
          "type": "uint256"
        },
        {
          "internalType": "uint256",
          "name": "_bidC",
          "type": "uint256"
        }
      ],
      "name": "createTender",
      "outputs": [],
      "stateMutability": "nonpayable",
      "type": "function"
    },
    {
      "inputs": [
        {
          "internalType": "string",
          "name": "_name",
          "type": "string"
        },
        {
          "internalType": "address",
          "name": "_addr",
          "type": "address"
        }
      ],
      "name": "addBidder",
      "outputs": [],
      "stateMutability": "nonpayable",
      "type": "function"
    },
    {
      "inputs": [
        {
          "internalType": "uint256",
          "name": "_tdrID",
          "type": "uint256"
        },
        {
          "internalType": "string",
          "name": "_name",
          "type": "string"
        }
      ],
      "name": "bid",
      "outputs": [],
      "stateMutability": "payable",
      "type": "function",
      "payable": true
    },
    {
      "inputs": [
        {
          "internalType": "uint256",
          "name": "_tdrID",
          "type": "uint256"
        }
      ],
      "name": "withdrawFunds",
      "outputs": [],
      "stateMutability": "payable",
      "type": "function",
      "payable": true
    },
    {
      "inputs": [
        {
          "internalType": "uint256",
          "name": "_tdrID",
          "type": "uint256"
        },
        {
          "internalType": "uint256",
          "name": "_bidID",
          "type": "uint256"
        }
      ],
      "name": "selectWinner",
      "outputs": [],
      "stateMutability": "payable",
      "type": "function",
      "payable": true
    },
    {
      "inputs": [],
      "name": "getTdrCount",
      "outputs": [
        {
          "internalType": "uint256",
          "name": "count",
          "type": "uint256"
        }
      ],
      "stateMutability": "view",
      "type": "function",
      "constant": true
    },
    {
      "inputs": [
        {
          "internalType": "uint256",
          "name": "_tdrID",
          "type": "uint256"
        }
      ],
      "name": "getTdrInfo",
      "outputs": [
        {
          "internalType": "uint256",
          "name": "id",
          "type": "uint256"
        },
        {
          "internalType": "string",
          "name": "title",
          "type": "string"
        },
        {
          "internalType": "string",
          "name": "desc",
          "type": "string"
        },
        {
          "internalType": "uint256",
          "name": "startTime",
          "type": "uint256"
        },
        {
          "internalType": "uint256",
          "name": "endTime",
          "type": "uint256"
        },
        {
          "internalType": "uint256",
          "name": "maxBid",
          "type": "uint256"
        },
        {
          "internalType": "uint256",
          "name": "currentTime",
          "type": "uint256"
        }
      ],
      "stateMutability": "view",
      "type": "function",
      "constant": true
    },
    {
      "inputs": [
        {
          "internalType": "uint256",
          "name": "_tdrID",
          "type": "uint256"
        }
      ],
      "name": "getWinningBid",
      "outputs": [
        {
          "internalType": "address",
          "name": "winnerAddress",
          "type": "address"
        },
        {
          "internalType": "uint256",
          "name": "winningBidAmt",
          "type": "uint256"
        }
      ],
      "stateMutability": "view",
      "type": "function",
      "constant": true
    },
    {
      "inputs": [
        {
          "internalType": "uint256",
          "name": "_tdrID",
          "type": "uint256"
        },
        {
          "internalType": "uint256",
          "name": "_bidID",
          "type": "uint256"
        }
      ],
      "name": "bidInfo",
      "outputs": [
        {
          "internalType": "address",
          "name": "bidderAddress",
          "type": "address"
        },
        {
          "internalType": "uint256",
          "name": "bidAmtt",
          "type": "uint256"
        }
      ],
      "stateMutability": "view",
      "type": "function",
      "constant": true
    },
    {
      "inputs": [
        {
          "internalType": "uint256",
          "name": "_tdrID",
          "type": "uint256"
        }
      ],
      "name": "highestBidOfTdr",
      "outputs": [
        {
          "internalType": "uint256",
          "name": "highestBid",
          "type": "uint256"
        }
      ],
      "stateMutability": "view",
      "type": "function",
      "constant": true
    },
    {
      "inputs": [
        {
          "internalType": "uint256",
          "name": "_tdrID",
          "type": "uint256"
        }
      ],
      "name": "highestBidderOfTdr",
      "outputs": [
        {
          "internalType": "address",
          "name": "highestBidder",
          "type": "address"
        }
      ],
      "stateMutability": "view",
      "type": "function",
      "constant": true
    },
    {
      "inputs": [
        {
          "internalType": "uint256",
          "name": "_id",
          "type": "uint256"
        }
      ],
      "name": "testbids",
      "outputs": [
        {
          "internalType": "uint256",
          "name": "",
          "type": "uint256"
        },
        {
          "internalType": "string",
          "name": "",
          "type": "string"
        }
      ],
      "stateMutability": "view",
      "type": "function",
      "constant": true
    }
  ],
  "bytecode": "0x6080604052600060035533600260006101000a81548173ffffffffffffffffffffffffffffffffffffffff021916908373ffffffffffffffffffffffffffffffffffffffff160217905550612310806100596000396000f3fe6080604052600436106100e85760003560e01c80637dfa15921161008a578063d927ee8811610059578063d927ee881461031b578063e6fa020914610344578063ebaaa7f814610360578063fcc8f793146103a7576100e8565b80637dfa15921461023a578063a09bff4114610278578063c1b80d44146102b5578063d1c1d840146102f2576100e8565b806345ae5daf116100c657806345ae5daf14610163578063481c6a751461018e5780636891939d146101b95780637220a9a0146101f7576100e8565b80630fc55fd1146100ed578063155dd5ee146101095780631fa0d67914610125575b600080fd5b610107600480360381019061010291906116e1565b6103e5565b005b610123600480360381019061011e919061173d565b61088b565b005b34801561013157600080fd5b5061014c6004803603810190610147919061173d565b610b20565b60405161015a9291906117f8565b60405180910390f35b34801561016f57600080fd5b50610178610c22565b6040516101859190611828565b60405180910390f35b34801561019a57600080fd5b506101a3610c2c565b6040516101b09190611884565b60405180910390f35b3480156101c557600080fd5b506101e060048036038101906101db919061173d565b610c52565b6040516101ee92919061189f565b60405180910390f35b34801561020357600080fd5b5061021e6004803603810190610219919061173d565b610dc0565b60405161023197969594939291906118c8565b60405180910390f35b34801561024657600080fd5b50610261600480360381019061025c9190611945565b610f7f565b60405161026f92919061189f565b60405180910390f35b34801561028457600080fd5b5061029f600480360381019061029a919061173d565b61106e565b6040516102ac9190611828565b60405180910390f35b3480156102c157600080fd5b506102dc60048036038101906102d7919061173d565b61108d565b6040516102e99190611884565b60405180910390f35b3480156102fe57600080fd5b50610319600480360381019061031491906119b1565b6110cc565b005b34801561032757600080fd5b50610342600480360381019061033d9190611a0d565b61119d565b005b61035e60048036038101906103599190611945565b611279565b005b34801561036c57600080fd5b506103876004803603810190610382919061173d565b6112ee565b60405161039e9b9a99989796959493929190611aac565b60405180910390f35b3480156103b357600080fd5b506103ce60048036038101906103c99190611b65565b611498565b6040516103dc929190611bad565b60405180910390f35b42600080848152602001908152602001600020600301541061043c576040517f08c379a000000000000000000000000000000000000000000000000000000000815260040161043390611c29565b60405180910390fd5b426000808481526020019081526020016000206004015411610493576040517f08c379a000000000000000000000000000000000000000000000000000000000815260040161048a90611c95565b60405180910390fd5b6000600160003373ffffffffffffffffffffffffffffffffffffffff1673ffffffffffffffffffffffffffffffffffffffff16815260200190815260200160002060000180546104e290611ce4565b905003610524576040517f08c379a000000000000000000000000000000000000000000000000000000000815260040161051b90611d61565b60405180910390fd5b600160003373ffffffffffffffffffffffffffffffffffffffff1673ffffffffffffffffffffffffffffffffffffffff16815260200190815260200160002060010160009054906101000a900460ff16156105e357600160003373ffffffffffffffffffffffffffffffffffffffff1673ffffffffffffffffffffffffffffffffffffffff168152602001908152602001600020600201600083815260200190815260200160002054346105d89190611db0565b600581905550610690565b3460058190555033600080848152602001908152602001600020600b01600080600086815260200190815260200160002060070154815260200190815260200160002060006101000a81548173ffffffffffffffffffffffffffffffffffffffff021916908373ffffffffffffffffffffffffffffffffffffffff160217905550600080838152602001908152602001600020600701600081548092919061068a90611de4565b91905055505b60008083815260200190815260200160002060060154600554116106e9576040517f08c379a00000000000000000000000000000000000000000000000000000000081526004016106e090611e9e565b60405180910390fd5b6000600160003373ffffffffffffffffffffffffffffffffffffffff1673ffffffffffffffffffffffffffffffffffffffff16815260200190815260200160002090508181600001908161073d919061206a565b5060018160010160006101000a81548160ff02191690831515021790555060055481600201600085815260200190815260200160002081905550600554600080858152602001908152602001600020600501600082825461079e9190611db0565b9250508190555060008084815260200190815260200160002060060154600160003373ffffffffffffffffffffffffffffffffffffffff1673ffffffffffffffffffffffffffffffffffffffff168152602001908152602001600020600201600085815260200190815260200160002054111561088657600554600080858152602001908152602001600020600601819055503360008085815260200190815260200160002060080160006101000a81548173ffffffffffffffffffffffffffffffffffffffff021916908373ffffffffffffffffffffffffffffffffffffffff1602179055505b505050565b4260008083815260200190815260200160002060040154106108e2576040517f08c379a00000000000000000000000000000000000000000000000000000000081526004016108d990612188565b60405180910390fd5b6000600160003373ffffffffffffffffffffffffffffffffffffffff1673ffffffffffffffffffffffffffffffffffffffff16815260200190815260200160002060020160008381526020019081526020016000205411610978576040517f08c379a000000000000000000000000000000000000000000000000000000000815260040161096f9061221a565b60405180910390fd5b60003373ffffffffffffffffffffffffffffffffffffffff166108fc600160003373ffffffffffffffffffffffffffffffffffffffff1673ffffffffffffffffffffffffffffffffffffffff1681526020019081526020016000206002016000858152602001908152602001600020549081150290604051600060405180830381858888f19350505050905080610a44576040517f08c379a0000000000000000000000000000000000000000000000000000000008152600401610a3b90612286565b60405180910390fd5b600160003373ffffffffffffffffffffffffffffffffffffffff1673ffffffffffffffffffffffffffffffffffffffff1681526020019081526020016000206002016000838152602001908152602001600020546000808481526020019081526020016000206005016000828254610abc91906122a6565b925050819055506000600160003373ffffffffffffffffffffffffffffffffffffffff1673ffffffffffffffffffffffffffffffffffffffff1681526020019081526020016000206002016000848152602001908152602001600020819055505050565b60006060600160003373ffffffffffffffffffffffffffffffffffffffff1673ffffffffffffffffffffffffffffffffffffffff168152602001908152602001600020600201600084815260200190815260200160002054600080858152602001908152602001600020600101808054610b9990611ce4565b80601f0160208091040260200160405190810160405280929190818152602001828054610bc590611ce4565b8015610c125780601f10610be757610100808354040283529160200191610c12565b820191906000526020600020905b815481529060010190602001808311610bf557829003601f168201915b5050505050905091509150915091565b6000600354905090565b600260009054906101000a900473ffffffffffffffffffffffffffffffffffffffff1681565b600080426000808581526020019081526020016000206004015410610cac576040517f08c379a0000000000000000000000000000000000000000000000000000000008152600401610ca390612188565b60405180910390fd5b600080848152602001908152602001600020600b016000806000868152602001908152602001600020600a0154815260200190815260200160002060009054906101000a900473ffffffffffffffffffffffffffffffffffffffff1660016000806000878152602001908152602001600020600b016000806000898152602001908152602001600020600a0154815260200190815260200160002060009054906101000a900473ffffffffffffffffffffffffffffffffffffffff1673ffffffffffffffffffffffffffffffffffffffff1673ffffffffffffffffffffffffffffffffffffffff16815260200190815260200160002060020160008581526020019081526020016000205491509150915091565b6000606080600080600080600080898152602001908152602001600020600001546000808a81526020019081526020016000206001016000808b81526020019081526020016000206002016000808c8152602001908152602001600020600301546000808d8152602001908152602001600020600401546000808e81526020019081526020016000206006015442858054610e5a90611ce4565b80601f0160208091040260200160405190810160405280929190818152602001828054610e8690611ce4565b8015610ed35780601f10610ea857610100808354040283529160200191610ed3565b820191906000526020600020905b815481529060010190602001808311610eb657829003601f168201915b50505050509550848054610ee690611ce4565b80601f0160208091040260200160405190810160405280929190818152602001828054610f1290611ce4565b8015610f5f5780601f10610f3457610100808354040283529160200191610f5f565b820191906000526020600020905b815481529060010190602001808311610f4257829003601f168201915b505050505094509650965096509650965096509650919395979092949650565b600080600080858152602001908152602001600020600b01600084815260200190815260200160002060009054906101000a900473ffffffffffffffffffffffffffffffffffffffff1660016000806000888152602001908152602001600020600b01600087815260200190815260200160002060009054906101000a900473ffffffffffffffffffffffffffffffffffffffff1673ffffffffffffffffffffffffffffffffffffffff1673ffffffffffffffffffffffffffffffffffffffff168152602001908152602001600020600201600086815260200190815260200160002054915091509250929050565b6000806000838152602001908152602001600020600601549050919050565b600080600083815260200190815260200160002060080160009054906101000a900473ffffffffffffffffffffffffffffffffffffffff169050919050565b600260009054906101000a900473ffffffffffffffffffffffffffffffffffffffff1673ffffffffffffffffffffffffffffffffffffffff163373ffffffffffffffffffffffffffffffffffffffff161461112657600080fd5b6000600160008373ffffffffffffffffffffffffffffffffffffffff1673ffffffffffffffffffffffffffffffffffffffff16815260200190815260200160002090508281600001908161117a919061206a565b5060008160010160006101000a81548160ff021916908315150217905550505050565b600260009054906101000a900473ffffffffffffffffffffffffffffffffffffffff1673ffffffffffffffffffffffffffffffffffffffff163373ffffffffffffffffffffffffffffffffffffffff16146111f757600080fd5b60008060006003548152602001908152602001600020905060035481600001819055508481600101908161122b919061206a565b508381600201908161123d919061206a565b50828160030181905550818160040181905550600081600701819055506003600081548092919061126d90611de4565b91905055505050505050565b4260008084815260200190815260200160002060040154106112d0576040517f08c379a00000000000000000000000000000000000000000000000000000000081526004016112c790612188565b60405180910390fd5b80600080848152602001908152602001600020600a01819055505050565b600060205280600052604060002060009150905080600001549080600101805461131790611ce4565b80601f016020809104026020016040519081016040528092919081815260200182805461134390611ce4565b80156113905780601f1061136557610100808354040283529160200191611390565b820191906000526020600020905b81548152906001019060200180831161137357829003601f168201915b5050505050908060020180546113a590611ce4565b80601f01602080910402602001604051908101604052809291908181526020018280546113d190611ce4565b801561141e5780601f106113f35761010080835404028352916020019161141e565b820191906000526020600020905b81548152906001019060200180831161140157829003601f168201915b5050505050908060030154908060040154908060050154908060060154908060070154908060080160009054906101000a900473ffffffffffffffffffffffffffffffffffffffff16908060090160009054906101000a900473ffffffffffffffffffffffffffffffffffffffff169080600a015490508b565b60016020528060005260406000206000915090508060000180546114bb90611ce4565b80601f01602080910402602001604051908101604052809291908181526020018280546114e790611ce4565b80156115345780601f1061150957610100808354040283529160200191611534565b820191906000526020600020905b81548152906001019060200180831161151757829003601f168201915b5050505050908060010160009054906101000a900460ff16905082565b6000604051905090565b600080fd5b600080fd5b6000819050919050565b61157881611565565b811461158357600080fd5b50565b6000813590506115958161156f565b92915050565b600080fd5b600080fd5b6000601f19601f8301169050919050565b7f4e487b7100000000000000000000000000000000000000000000000000000000600052604160045260246000fd5b6115ee826115a5565b810181811067ffffffffffffffff8211171561160d5761160c6115b6565b5b80604052505050565b6000611620611551565b905061162c82826115e5565b919050565b600067ffffffffffffffff82111561164c5761164b6115b6565b5b611655826115a5565b9050602081019050919050565b82818337600083830152505050565b600061168461167f84611631565b611616565b9050828152602081018484840111156116a05761169f6115a0565b5b6116ab848285611662565b509392505050565b600082601f8301126116c8576116c761159b565b5b81356116d8848260208601611671565b91505092915050565b600080604083850312156116f8576116f761155b565b5b600061170685828601611586565b925050602083013567ffffffffffffffff81111561172757611726611560565b5b611733858286016116b3565b9150509250929050565b6000602082840312156117535761175261155b565b5b600061176184828501611586565b91505092915050565b61177381611565565b82525050565b600081519050919050565b600082825260208201905092915050565b60005b838110156117b3578082015181840152602081019050611798565b60008484015250505050565b60006117ca82611779565b6117d48185611784565b93506117e4818560208601611795565b6117ed816115a5565b840191505092915050565b600060408201905061180d600083018561176a565b818103602083015261181f81846117bf565b90509392505050565b600060208201905061183d600083018461176a565b92915050565b600073ffffffffffffffffffffffffffffffffffffffff82169050919050565b600061186e82611843565b9050919050565b61187e81611863565b82525050565b60006020820190506118996000830184611875565b92915050565b60006040820190506118b46000830185611875565b6118c1602083018461176a565b9392505050565b600060e0820190506118dd600083018a61176a565b81810360208301526118ef81896117bf565b9050818103604083015261190381886117bf565b9050611912606083018761176a565b61191f608083018661176a565b61192c60a083018561176a565b61193960c083018461176a565b98975050505050505050565b6000806040838503121561195c5761195b61155b565b5b600061196a85828601611586565b925050602061197b85828601611586565b9150509250929050565b61198e81611863565b811461199957600080fd5b50565b6000813590506119ab81611985565b92915050565b600080604083850312156119c8576119c761155b565b5b600083013567ffffffffffffffff8111156119e6576119e5611560565b5b6119f2858286016116b3565b9250506020611a038582860161199c565b9150509250929050565b60008060008060808587031215611a2757611a2661155b565b5b600085013567ffffffffffffffff811115611a4557611a44611560565b5b611a51878288016116b3565b945050602085013567ffffffffffffffff811115611a7257611a71611560565b5b611a7e878288016116b3565b9350506040611a8f87828801611586565b9250506060611aa087828801611586565b91505092959194509250565b600061016082019050611ac2600083018e61176a565b8181036020830152611ad4818d6117bf565b90508181036040830152611ae8818c6117bf565b9050611af7606083018b61176a565b611b04608083018a61176a565b611b1160a083018961176a565b611b1e60c083018861176a565b611b2b60e083018761176a565b611b39610100830186611875565b611b47610120830185611875565b611b5561014083018461176a565b9c9b505050505050505050505050565b600060208284031215611b7b57611b7a61155b565b5b6000611b898482850161199c565b91505092915050565b60008115159050919050565b611ba781611b92565b82525050565b60006040820190508181036000830152611bc781856117bf565b9050611bd66020830184611b9e565b9392505050565b7f42696420686173206e6f7420737461727465642e000000000000000000000000600082015250565b6000611c13601483611784565b9150611c1e82611bdd565b602082019050919050565b60006020820190508181036000830152611c4281611c06565b9050919050565b7f4269642068617320656e6465642e000000000000000000000000000000000000600082015250565b6000611c7f600e83611784565b9150611c8a82611c49565b602082019050919050565b60006020820190508181036000830152611cae81611c72565b9050919050565b7f4e487b7100000000000000000000000000000000000000000000000000000000600052602260045260246000fd5b60006002820490506001821680611cfc57607f821691505b602082108103611d0f57611d0e611cb5565b5b50919050565b7f4e6f7420696e2062696464657273206c69737400000000000000000000000000600082015250565b6000611d4b601383611784565b9150611d5682611d15565b602082019050919050565b60006020820190508181036000830152611d7a81611d3e565b9050919050565b7f4e487b7100000000000000000000000000000000000000000000000000000000600052601160045260246000fd5b6000611dbb82611565565b9150611dc683611565565b9250828201905080821115611dde57611ddd611d81565b5b92915050565b6000611def82611565565b91507fffffffffffffffffffffffffffffffffffffffffffffffffffffffffffffffff8203611e2157611e20611d81565b5b600182019050919050565b7f426964206973206c6f776572207468616e207468652063757272656e7420626960008201527f642e000000000000000000000000000000000000000000000000000000000000602082015250565b6000611e88602283611784565b9150611e9382611e2c565b604082019050919050565b60006020820190508181036000830152611eb781611e7b565b9050919050565b60008190508160005260206000209050919050565b60006020601f8301049050919050565b600082821b905092915050565b600060088302611f207fffffffffffffffffffffffffffffffffffffffffffffffffffffffffffffffff82611ee3565b611f2a8683611ee3565b95508019841693508086168417925050509392505050565b6000819050919050565b6000611f67611f62611f5d84611565565b611f42565b611565565b9050919050565b6000819050919050565b611f8183611f4c565b611f95611f8d82611f6e565b848454611ef0565b825550505050565b600090565b611faa611f9d565b611fb5818484611f78565b505050565b5b81811015611fd957611fce600082611fa2565b600181019050611fbb565b5050565b601f82111561201e57611fef81611ebe565b611ff884611ed3565b81016020851015612007578190505b61201b61201385611ed3565b830182611fba565b50505b505050565b600082821c905092915050565b600061204160001984600802612023565b1980831691505092915050565b600061205a8383612030565b9150826002028217905092915050565b61207382611779565b67ffffffffffffffff81111561208c5761208b6115b6565b5b6120968254611ce4565b6120a1828285611fdd565b600060209050601f8311600181146120d457600084156120c2578287015190505b6120cc858261204e565b865550612134565b601f1984166120e286611ebe565b60005b8281101561210a578489015182556001820191506020850194506020810190506120e5565b868310156121275784890151612123601f891682612030565b8355505b6001600288020188555050505b505050505050565b7f42696420686173206e6f7420656e6465642e0000000000000000000000000000600082015250565b6000612172601283611784565b915061217d8261213c565b602082019050919050565b600060208201905081810360008301526121a181612165565b9050919050565b7f596f7520646f206e6f74206861766520616e796d6f726520657468657220746f60008201527f2077697468647261772066726f6d2074686520636f6e74726163742e00000000602082015250565b6000612204603c83611784565b915061220f826121a8565b604082019050919050565b60006020820190508181036000830152612233816121f7565b9050919050565b7f4572726f72000000000000000000000000000000000000000000000000000000600082015250565b6000612270600583611784565b915061227b8261223a565b602082019050919050565b6000602082019050818103600083015261229f81612263565b9050919050565b60006122b182611565565b91506122bc83611565565b92508282039050818111156122d4576122d3611d81565b5b9291505056fea2646970667358221220a272ecd5b66e516fa6d0251d5a7f634aca07c1207dffa126a2659a94f6d2884a64736f6c63430008110033",
  "immutableReferences": {},
  "source": "// SPDX-License-Identifier: GPL-3.0\r\npragma solidity ^0.8.11;\r\n\r\ncontract selectiveDender {\r\n    struct tdr {\r\n        uint id;\r\n        string title;\r\n        string desc;\r\n        uint startTime;\r\n        uint endTime;\r\n        uint accBal;\r\n        uint maxBid;\r\n        uint bidCount;\r\n        address highestBidder;\r\n        address lowestBidder;\r\n        uint winningBid;\r\n        mapping(uint => address) bidders;\r\n    } \r\n\r\n     struct bidder {\r\n        string bidderName;\r\n        bool bidded;\r\n        mapping(uint => uint) bidAmt;\r\n    }\r\n\r\n    mapping(uint => tdr) public tdrs;\r\n    mapping(address => bidder) public bidders;\r\n\r\n    address public manager;\r\n    uint tdrCount=0;\r\n    uint time;\r\n    uint amt;\r\n\r\n    modifier onlyOfficial(){\r\n        require(msg.sender == manager);\r\n        _; \r\n    }\r\n\r\n    constructor()\r\n    payable\r\n    {\r\n        manager= msg.sender;\r\n    }\r\n\r\n    function createTender (string memory _title, string memory _desc, uint _bidO, uint _bidC) \r\n    public\r\n    onlyOfficial\r\n    {\r\n        tdr storage t = tdrs[tdrCount];\r\n        t.id=tdrCount;\r\n        t.title=_title;\r\n        t.desc=_desc;\r\n        t.startTime=_bidO;\r\n        t.endTime=_bidC;\r\n        t.bidCount=0;\r\n        tdrCount++;\r\n    }\r\n\r\n    function addBidder (string memory _name, address _addr) \r\n    public\r\n    onlyOfficial\r\n    {\r\n        bidder storage b = bidders[_addr];\r\n        b.bidderName = _name;\r\n        b.bidded = false;\r\n    }\r\n\r\n    function bid (uint _tdrID, string memory _name)\r\n    public\r\n    payable\r\n    {\r\n        require(tdrs[_tdrID].startTime < block.timestamp, \"Bid has not started.\");\r\n        require(tdrs[_tdrID].endTime > block.timestamp, \"Bid has ended.\");\r\n        require(bytes(bidders[msg.sender].bidderName).length != 0, \"Not in bidders list\");\r\n        if(bidders[msg.sender].bidded){\r\n            amt=msg.value+bidders[msg.sender].bidAmt[_tdrID];\r\n        }else{\r\n            amt=msg.value;\r\n            tdrs[_tdrID].bidders[tdrs[_tdrID].bidCount]=msg.sender;\r\n            tdrs[_tdrID].bidCount++;\r\n        }\r\n        \r\n        require(amt>tdrs[_tdrID].maxBid, \"Bid is lower than the current bid.\");\r\n        bidder storage b = bidders[msg.sender];\r\n        b.bidderName = _name;\r\n        b.bidded = true;\r\n        b.bidAmt[_tdrID] = amt;\r\n        tdrs[_tdrID].accBal += amt;\r\n        if(bidders[msg.sender].bidAmt[_tdrID] > tdrs[_tdrID].maxBid){\r\n            tdrs[_tdrID].maxBid = amt;\r\n            tdrs[_tdrID].highestBidder = msg.sender;\r\n        }\r\n    }\r\n\r\n    function withdrawFunds (uint _tdrID) \r\n    public\r\n    payable\r\n    {\r\n            require(tdrs[_tdrID].endTime < block.timestamp, \"Bid has not ended.\");\r\n            require(bidders[msg.sender].bidAmt[_tdrID] > 0, \"You do not have anymore ether to withdraw from the contract.\");\r\n            bool sent = payable(msg.sender).send(bidders[msg.sender].bidAmt[_tdrID]);\r\n            require(sent,\"Error\");\r\n            tdrs[_tdrID].accBal-=bidders[msg.sender].bidAmt[_tdrID];\r\n            bidders[msg.sender].bidAmt[_tdrID]=0;\r\n\r\n    }\r\n\r\n    function selectWinner (uint _tdrID, uint _bidID)\r\n    public\r\n    payable\r\n    {\r\n        require(tdrs[_tdrID].endTime < block.timestamp, \"Bid has not ended.\");\r\n        tdrs[_tdrID].winningBid = _bidID;\r\n    }\r\n\r\n    function getTdrCount () \r\n    public\r\n    view\r\n    returns( uint count)\r\n    {\r\n        return tdrCount;\r\n    }\r\n\r\n    function getTdrInfo (uint _tdrID)\r\n    public\r\n    view\r\n    returns (uint id,string memory title, string memory desc, uint startTime, uint endTime, uint maxBid, uint currentTime)\r\n    {\r\n        return(tdrs[_tdrID].id ,tdrs[_tdrID].title, tdrs[_tdrID].desc, tdrs[_tdrID].startTime, tdrs[_tdrID].endTime, tdrs[_tdrID].maxBid, block.timestamp);\r\n    }\r\n\r\n    function getWinningBid ( uint _tdrID )\r\n    public\r\n    view\r\n    returns(address winnerAddress, uint winningBidAmt)\r\n    {\r\n        require(tdrs[_tdrID].endTime < block.timestamp, \"Bid has not ended.\");\r\n        return(tdrs[_tdrID].bidders[tdrs[_tdrID].winningBid], bidders[tdrs[_tdrID].bidders[tdrs[_tdrID].winningBid]].bidAmt[_tdrID] );\r\n    }\r\n\r\n    function bidInfo (uint _tdrID, uint _bidID) \r\n    public\r\n    view\r\n    returns(address bidderAddress, uint bidAmtt)\r\n    {\r\n        return(tdrs[_tdrID].bidders[_bidID],bidders[tdrs[_tdrID].bidders[_bidID]].bidAmt[_tdrID]);\r\n    }\r\n\r\n    function highestBidOfTdr (uint _tdrID)\r\n    public\r\n    view\r\n    returns(uint highestBid)\r\n    {\r\n        return tdrs[_tdrID].maxBid;\r\n    }\r\n\r\n    function highestBidderOfTdr (uint _tdrID)\r\n    public\r\n    view\r\n    returns(address highestBidder)\r\n    {\r\n        return tdrs[_tdrID].highestBidder;\r\n    }\r\n\r\n\r\n    function testbids (uint _id) \r\n    public\r\n    view\r\n    returns(uint, string memory)\r\n    {\r\n        return (bidders[msg.sender].bidAmt[_id], tdrs[_id].title);\r\n    }\r\n\r\n}\r\n\r\n",
  "sourcePath": "C:\\Users\\akash\\OneDrive\\Documents\\project\\D-Ender-Ethereum-dApp\\src\\contracts\\selectiveDender.sol",
  "compiler": {
    "name": "solc",
    "version": "0.8.17+commit.8df45f5f.Emscripten.clang"
  },
  "schemaVersion": "3.4.11",
  "updatedAt": "2023-03-10T17:34:48.353Z",
  "networkType": "ethereum",
  "devdoc": {
    "kind": "dev",
    "methods": {},
    "version": 1
  },
  "userdoc": {
    "kind": "user",
    "methods": {},
    "version": 1
  }
}