{
  "contractName": "selectiveDender",
  "abi": [
    {
      "inputs": [],
      "stateMutability": "payable",
      "type": "constructor",
      "payable": true
    },
    {
      "inputs": [
        {
          "internalType": "address",
          "name": "",
          "type": "address"
        }
      ],
      "name": "bidders",
      "outputs": [
        {
          "internalType": "string",
          "name": "bidderName",
          "type": "string"
        },
        {
          "internalType": "bool",
          "name": "bidded",
          "type": "bool"
        }
      ],
      "stateMutability": "view",
      "type": "function",
      "constant": true
    },
    {
      "inputs": [],
      "name": "manager",
      "outputs": [
        {
          "internalType": "address",
          "name": "",
          "type": "address"
        }
      ],
      "stateMutability": "view",
      "type": "function",
      "constant": true
    },
    {
      "inputs": [
        {
          "internalType": "uint256",
          "name": "",
          "type": "uint256"
        }
      ],
      "name": "tdrs",
      "outputs": [
        {
          "internalType": "uint256",
          "name": "id",
          "type": "uint256"
        },
        {
          "internalType": "string",
          "name": "title",
          "type": "string"
        },
        {
          "internalType": "string",
          "name": "desc",
          "type": "string"
        },
        {
          "internalType": "uint256",
          "name": "startTime",
          "type": "uint256"
        },
        {
          "internalType": "uint256",
          "name": "endTime",
          "type": "uint256"
        },
        {
          "internalType": "uint256",
          "name": "accBal",
          "type": "uint256"
        },
        {
          "internalType": "uint256",
          "name": "maxBid",
          "type": "uint256"
        },
        {
          "internalType": "uint256",
          "name": "bidCount",
          "type": "uint256"
        },
        {
          "internalType": "address",
          "name": "highestBidder",
          "type": "address"
        },
        {
          "internalType": "address",
          "name": "lowestBidder",
          "type": "address"
        },
        {
          "internalType": "uint256",
          "name": "winningBid",
          "type": "uint256"
        }
      ],
      "stateMutability": "view",
      "type": "function",
      "constant": true
    },
    {
      "inputs": [
        {
          "internalType": "string",
          "name": "_title",
          "type": "string"
        },
        {
          "internalType": "string",
          "name": "_desc",
          "type": "string"
        },
        {
          "internalType": "uint256",
          "name": "_bidO",
          "type": "uint256"
        },
        {
          "internalType": "uint256",
          "name": "_bidC",
          "type": "uint256"
        }
      ],
      "name": "createTender",
      "outputs": [],
      "stateMutability": "nonpayable",
      "type": "function"
    },
    {
      "inputs": [
        {
          "internalType": "string",
          "name": "_name",
          "type": "string"
        },
        {
          "internalType": "address",
          "name": "_addr",
          "type": "address"
        }
      ],
      "name": "addBidder",
      "outputs": [],
      "stateMutability": "nonpayable",
      "type": "function"
    },
    {
      "inputs": [
        {
          "internalType": "uint256",
          "name": "_tdrID",
          "type": "uint256"
        },
        {
          "internalType": "string",
          "name": "_name",
          "type": "string"
        }
      ],
      "name": "bid",
      "outputs": [],
      "stateMutability": "payable",
      "type": "function",
      "payable": true
    },
    {
      "inputs": [
        {
          "internalType": "uint256",
          "name": "_tdrID",
          "type": "uint256"
        }
      ],
      "name": "withdrawFunds",
      "outputs": [],
      "stateMutability": "payable",
      "type": "function",
      "payable": true
    },
    {
      "inputs": [
        {
          "internalType": "uint256",
          "name": "_tdrID",
          "type": "uint256"
        },
        {
          "internalType": "uint256",
          "name": "_bidID",
          "type": "uint256"
        }
      ],
      "name": "selectWinner",
      "outputs": [],
      "stateMutability": "payable",
      "type": "function",
      "payable": true
    },
    {
      "inputs": [
        {
          "internalType": "uint256",
          "name": "_tdrID",
          "type": "uint256"
        }
      ],
      "name": "getWinningBid",
      "outputs": [
        {
          "internalType": "address",
          "name": "winnerAddress",
          "type": "address"
        },
        {
          "internalType": "uint256",
          "name": "winningBidAmt",
          "type": "uint256"
        }
      ],
      "stateMutability": "view",
      "type": "function",
      "constant": true
    },
    {
      "inputs": [
        {
          "internalType": "uint256",
          "name": "_tdrID",
          "type": "uint256"
        },
        {
          "internalType": "uint256",
          "name": "_bidID",
          "type": "uint256"
        }
      ],
      "name": "bidInfo",
      "outputs": [
        {
          "internalType": "address",
          "name": "bidderAddress",
          "type": "address"
        },
        {
          "internalType": "uint256",
          "name": "bidAmtt",
          "type": "uint256"
        }
      ],
      "stateMutability": "view",
      "type": "function",
      "constant": true
    },
    {
      "inputs": [
        {
          "internalType": "uint256",
          "name": "_tdrID",
          "type": "uint256"
        }
      ],
      "name": "highestBidOfTdr",
      "outputs": [
        {
          "internalType": "uint256",
          "name": "highestBid",
          "type": "uint256"
        }
      ],
      "stateMutability": "view",
      "type": "function",
      "constant": true
    },
    {
      "inputs": [
        {
          "internalType": "uint256",
          "name": "_tdrID",
          "type": "uint256"
        }
      ],
      "name": "highestBidderOfTdr",
      "outputs": [
        {
          "internalType": "address",
          "name": "highestBidder",
          "type": "address"
        }
      ],
      "stateMutability": "view",
      "type": "function",
      "constant": true
    },
    {
      "inputs": [
        {
          "internalType": "uint256",
          "name": "_id",
          "type": "uint256"
        }
      ],
      "name": "testbids",
      "outputs": [
        {
          "internalType": "uint256",
          "name": "",
          "type": "uint256"
        },
        {
          "internalType": "string",
          "name": "",
          "type": "string"
        }
      ],
      "stateMutability": "view",
      "type": "function",
      "constant": true
    }
  ],
  "bytecode": "0x6080604052600060035533600260006101000a81548173ffffffffffffffffffffffffffffffffffffffff021916908373ffffffffffffffffffffffffffffffffffffffff160217905550612036806100596000396000f3fe6080604052600436106100c25760003560e01c8063a09bff411161007f578063d927ee8811610059578063d927ee8814610287578063e6fa0209146102b0578063ebaaa7f8146102cc578063fcc8f79314610313576100c2565b8063a09bff41146101e4578063c1b80d4414610221578063d1c1d8401461025e576100c2565b80630fc55fd1146100c7578063155dd5ee146100e35780631fa0d679146100ff578063481c6a751461013d5780636891939d146101685780637dfa1592146101a6575b600080fd5b6100e160048036038101906100dc9190611484565b610351565b005b6100fd60048036038101906100f891906114e0565b6107f7565b005b34801561010b57600080fd5b50610126600480360381019061012191906114e0565b610a8c565b60405161013492919061159b565b60405180910390f35b34801561014957600080fd5b50610152610b8e565b60405161015f919061160c565b60405180910390f35b34801561017457600080fd5b5061018f600480360381019061018a91906114e0565b610bb4565b60405161019d929190611627565b60405180910390f35b3480156101b257600080fd5b506101cd60048036038101906101c89190611650565b610d22565b6040516101db929190611627565b60405180910390f35b3480156101f057600080fd5b5061020b600480360381019061020691906114e0565b610e11565b6040516102189190611690565b60405180910390f35b34801561022d57600080fd5b50610248600480360381019061024391906114e0565b610e30565b604051610255919061160c565b60405180910390f35b34801561026a57600080fd5b50610285600480360381019061028091906116d7565b610e6f565b005b34801561029357600080fd5b506102ae60048036038101906102a99190611733565b610f40565b005b6102ca60048036038101906102c59190611650565b61101c565b005b3480156102d857600080fd5b506102f360048036038101906102ee91906114e0565b611091565b60405161030a9b9a999897969594939291906117d2565b60405180910390f35b34801561031f57600080fd5b5061033a6004803603810190610335919061188b565b61123b565b6040516103489291906118d3565b60405180910390f35b4260008084815260200190815260200160002060030154106103a8576040517f08c379a000000000000000000000000000000000000000000000000000000000815260040161039f9061194f565b60405180910390fd5b4260008084815260200190815260200160002060040154116103ff576040517f08c379a00000000000000000000000000000000000000000000000000000000081526004016103f6906119bb565b60405180910390fd5b6000600160003373ffffffffffffffffffffffffffffffffffffffff1673ffffffffffffffffffffffffffffffffffffffff168152602001908152602001600020600001805461044e90611a0a565b905003610490576040517f08c379a000000000000000000000000000000000000000000000000000000000815260040161048790611a87565b60405180910390fd5b600160003373ffffffffffffffffffffffffffffffffffffffff1673ffffffffffffffffffffffffffffffffffffffff16815260200190815260200160002060010160009054906101000a900460ff161561054f57600160003373ffffffffffffffffffffffffffffffffffffffff1673ffffffffffffffffffffffffffffffffffffffff168152602001908152602001600020600201600083815260200190815260200160002054346105449190611ad6565b6005819055506105fc565b3460058190555033600080848152602001908152602001600020600b01600080600086815260200190815260200160002060070154815260200190815260200160002060006101000a81548173ffffffffffffffffffffffffffffffffffffffff021916908373ffffffffffffffffffffffffffffffffffffffff16021790555060008083815260200190815260200160002060070160008154809291906105f690611b0a565b91905055505b6000808381526020019081526020016000206006015460055411610655576040517f08c379a000000000000000000000000000000000000000000000000000000000815260040161064c90611bc4565b60405180910390fd5b6000600160003373ffffffffffffffffffffffffffffffffffffffff1673ffffffffffffffffffffffffffffffffffffffff1681526020019081526020016000209050818160000190816106a99190611d90565b5060018160010160006101000a81548160ff02191690831515021790555060055481600201600085815260200190815260200160002081905550600554600080858152602001908152602001600020600501600082825461070a9190611ad6565b9250508190555060008084815260200190815260200160002060060154600160003373ffffffffffffffffffffffffffffffffffffffff1673ffffffffffffffffffffffffffffffffffffffff16815260200190815260200160002060020160008581526020019081526020016000205411156107f257600554600080858152602001908152602001600020600601819055503360008085815260200190815260200160002060080160006101000a81548173ffffffffffffffffffffffffffffffffffffffff021916908373ffffffffffffffffffffffffffffffffffffffff1602179055505b505050565b42600080838152602001908152602001600020600401541061084e576040517f08c379a000000000000000000000000000000000000000000000000000000000815260040161084590611eae565b60405180910390fd5b6000600160003373ffffffffffffffffffffffffffffffffffffffff1673ffffffffffffffffffffffffffffffffffffffff168152602001908152602001600020600201600083815260200190815260200160002054116108e4576040517f08c379a00000000000000000000000000000000000000000000000000000000081526004016108db90611f40565b60405180910390fd5b60003373ffffffffffffffffffffffffffffffffffffffff166108fc600160003373ffffffffffffffffffffffffffffffffffffffff1673ffffffffffffffffffffffffffffffffffffffff1681526020019081526020016000206002016000858152602001908152602001600020549081150290604051600060405180830381858888f193505050509050806109b0576040517f08c379a00000000000000000000000000000000000000000000000000000000081526004016109a790611fac565b60405180910390fd5b600160003373ffffffffffffffffffffffffffffffffffffffff1673ffffffffffffffffffffffffffffffffffffffff1681526020019081526020016000206002016000838152602001908152602001600020546000808481526020019081526020016000206005016000828254610a289190611fcc565b925050819055506000600160003373ffffffffffffffffffffffffffffffffffffffff1673ffffffffffffffffffffffffffffffffffffffff1681526020019081526020016000206002016000848152602001908152602001600020819055505050565b60006060600160003373ffffffffffffffffffffffffffffffffffffffff1673ffffffffffffffffffffffffffffffffffffffff168152602001908152602001600020600201600084815260200190815260200160002054600080858152602001908152602001600020600101808054610b0590611a0a565b80601f0160208091040260200160405190810160405280929190818152602001828054610b3190611a0a565b8015610b7e5780601f10610b5357610100808354040283529160200191610b7e565b820191906000526020600020905b815481529060010190602001808311610b6157829003601f168201915b5050505050905091509150915091565b600260009054906101000a900473ffffffffffffffffffffffffffffffffffffffff1681565b600080426000808581526020019081526020016000206004015410610c0e576040517f08c379a0000000000000000000000000000000000000000000000000000000008152600401610c0590611eae565b60405180910390fd5b600080848152602001908152602001600020600b016000806000868152602001908152602001600020600a0154815260200190815260200160002060009054906101000a900473ffffffffffffffffffffffffffffffffffffffff1660016000806000878152602001908152602001600020600b016000806000898152602001908152602001600020600a0154815260200190815260200160002060009054906101000a900473ffffffffffffffffffffffffffffffffffffffff1673ffffffffffffffffffffffffffffffffffffffff1673ffffffffffffffffffffffffffffffffffffffff16815260200190815260200160002060020160008581526020019081526020016000205491509150915091565b600080600080858152602001908152602001600020600b01600084815260200190815260200160002060009054906101000a900473ffffffffffffffffffffffffffffffffffffffff1660016000806000888152602001908152602001600020600b01600087815260200190815260200160002060009054906101000a900473ffffffffffffffffffffffffffffffffffffffff1673ffffffffffffffffffffffffffffffffffffffff1673ffffffffffffffffffffffffffffffffffffffff168152602001908152602001600020600201600086815260200190815260200160002054915091509250929050565b6000806000838152602001908152602001600020600601549050919050565b600080600083815260200190815260200160002060080160009054906101000a900473ffffffffffffffffffffffffffffffffffffffff169050919050565b600260009054906101000a900473ffffffffffffffffffffffffffffffffffffffff1673ffffffffffffffffffffffffffffffffffffffff163373ffffffffffffffffffffffffffffffffffffffff1614610ec957600080fd5b6000600160008373ffffffffffffffffffffffffffffffffffffffff1673ffffffffffffffffffffffffffffffffffffffff168152602001908152602001600020905082816000019081610f1d9190611d90565b5060008160010160006101000a81548160ff021916908315150217905550505050565b600260009054906101000a900473ffffffffffffffffffffffffffffffffffffffff1673ffffffffffffffffffffffffffffffffffffffff163373ffffffffffffffffffffffffffffffffffffffff1614610f9a57600080fd5b600080600060035481526020019081526020016000209050600354816000018190555084816001019081610fce9190611d90565b5083816002019081610fe09190611d90565b50828160030181905550818160040181905550600081600701819055506003600081548092919061101090611b0a565b91905055505050505050565b426000808481526020019081526020016000206004015410611073576040517f08c379a000000000000000000000000000000000000000000000000000000000815260040161106a90611eae565b60405180910390fd5b80600080848152602001908152602001600020600a01819055505050565b60006020528060005260406000206000915090508060000154908060010180546110ba90611a0a565b80601f01602080910402602001604051908101604052809291908181526020018280546110e690611a0a565b80156111335780601f1061110857610100808354040283529160200191611133565b820191906000526020600020905b81548152906001019060200180831161111657829003601f168201915b50505050509080600201805461114890611a0a565b80601f016020809104026020016040519081016040528092919081815260200182805461117490611a0a565b80156111c15780601f10611196576101008083540402835291602001916111c1565b820191906000526020600020905b8154815290600101906020018083116111a457829003601f168201915b5050505050908060030154908060040154908060050154908060060154908060070154908060080160009054906101000a900473ffffffffffffffffffffffffffffffffffffffff16908060090160009054906101000a900473ffffffffffffffffffffffffffffffffffffffff169080600a015490508b565b600160205280600052604060002060009150905080600001805461125e90611a0a565b80601f016020809104026020016040519081016040528092919081815260200182805461128a90611a0a565b80156112d75780601f106112ac576101008083540402835291602001916112d7565b820191906000526020600020905b8154815290600101906020018083116112ba57829003601f168201915b5050505050908060010160009054906101000a900460ff16905082565b6000604051905090565b600080fd5b600080fd5b6000819050919050565b61131b81611308565b811461132657600080fd5b50565b60008135905061133881611312565b92915050565b600080fd5b600080fd5b6000601f19601f8301169050919050565b7f4e487b7100000000000000000000000000000000000000000000000000000000600052604160045260246000fd5b61139182611348565b810181811067ffffffffffffffff821117156113b0576113af611359565b5b80604052505050565b60006113c36112f4565b90506113cf8282611388565b919050565b600067ffffffffffffffff8211156113ef576113ee611359565b5b6113f882611348565b9050602081019050919050565b82818337600083830152505050565b6000611427611422846113d4565b6113b9565b90508281526020810184848401111561144357611442611343565b5b61144e848285611405565b509392505050565b600082601f83011261146b5761146a61133e565b5b813561147b848260208601611414565b91505092915050565b6000806040838503121561149b5761149a6112fe565b5b60006114a985828601611329565b925050602083013567ffffffffffffffff8111156114ca576114c9611303565b5b6114d685828601611456565b9150509250929050565b6000602082840312156114f6576114f56112fe565b5b600061150484828501611329565b91505092915050565b61151681611308565b82525050565b600081519050919050565b600082825260208201905092915050565b60005b8381101561155657808201518184015260208101905061153b565b60008484015250505050565b600061156d8261151c565b6115778185611527565b9350611587818560208601611538565b61159081611348565b840191505092915050565b60006040820190506115b0600083018561150d565b81810360208301526115c28184611562565b90509392505050565b600073ffffffffffffffffffffffffffffffffffffffff82169050919050565b60006115f6826115cb565b9050919050565b611606816115eb565b82525050565b600060208201905061162160008301846115fd565b92915050565b600060408201905061163c60008301856115fd565b611649602083018461150d565b9392505050565b60008060408385031215611667576116666112fe565b5b600061167585828601611329565b925050602061168685828601611329565b9150509250929050565b60006020820190506116a5600083018461150d565b92915050565b6116b4816115eb565b81146116bf57600080fd5b50565b6000813590506116d1816116ab565b92915050565b600080604083850312156116ee576116ed6112fe565b5b600083013567ffffffffffffffff81111561170c5761170b611303565b5b61171885828601611456565b9250506020611729858286016116c2565b9150509250929050565b6000806000806080858703121561174d5761174c6112fe565b5b600085013567ffffffffffffffff81111561176b5761176a611303565b5b61177787828801611456565b945050602085013567ffffffffffffffff81111561179857611797611303565b5b6117a487828801611456565b93505060406117b587828801611329565b92505060606117c687828801611329565b91505092959194509250565b6000610160820190506117e8600083018e61150d565b81810360208301526117fa818d611562565b9050818103604083015261180e818c611562565b905061181d606083018b61150d565b61182a608083018a61150d565b61183760a083018961150d565b61184460c083018861150d565b61185160e083018761150d565b61185f6101008301866115fd565b61186d6101208301856115fd565b61187b61014083018461150d565b9c9b505050505050505050505050565b6000602082840312156118a1576118a06112fe565b5b60006118af848285016116c2565b91505092915050565b60008115159050919050565b6118cd816118b8565b82525050565b600060408201905081810360008301526118ed8185611562565b90506118fc60208301846118c4565b9392505050565b7f42696420686173206e6f7420737461727465642e000000000000000000000000600082015250565b6000611939601483611527565b915061194482611903565b602082019050919050565b600060208201905081810360008301526119688161192c565b9050919050565b7f4269642068617320656e6465642e000000000000000000000000000000000000600082015250565b60006119a5600e83611527565b91506119b08261196f565b602082019050919050565b600060208201905081810360008301526119d481611998565b9050919050565b7f4e487b7100000000000000000000000000000000000000000000000000000000600052602260045260246000fd5b60006002820490506001821680611a2257607f821691505b602082108103611a3557611a346119db565b5b50919050565b7f4e6f7420696e2062696464657273206c69737400000000000000000000000000600082015250565b6000611a71601383611527565b9150611a7c82611a3b565b602082019050919050565b60006020820190508181036000830152611aa081611a64565b9050919050565b7f4e487b7100000000000000000000000000000000000000000000000000000000600052601160045260246000fd5b6000611ae182611308565b9150611aec83611308565b9250828201905080821115611b0457611b03611aa7565b5b92915050565b6000611b1582611308565b91507fffffffffffffffffffffffffffffffffffffffffffffffffffffffffffffffff8203611b4757611b46611aa7565b5b600182019050919050565b7f426964206973206c6f776572207468616e207468652063757272656e7420626960008201527f642e000000000000000000000000000000000000000000000000000000000000602082015250565b6000611bae602283611527565b9150611bb982611b52565b604082019050919050565b60006020820190508181036000830152611bdd81611ba1565b9050919050565b60008190508160005260206000209050919050565b60006020601f8301049050919050565b600082821b905092915050565b600060088302611c467fffffffffffffffffffffffffffffffffffffffffffffffffffffffffffffffff82611c09565b611c508683611c09565b95508019841693508086168417925050509392505050565b6000819050919050565b6000611c8d611c88611c8384611308565b611c68565b611308565b9050919050565b6000819050919050565b611ca783611c72565b611cbb611cb382611c94565b848454611c16565b825550505050565b600090565b611cd0611cc3565b611cdb818484611c9e565b505050565b5b81811015611cff57611cf4600082611cc8565b600181019050611ce1565b5050565b601f821115611d4457611d1581611be4565b611d1e84611bf9565b81016020851015611d2d578190505b611d41611d3985611bf9565b830182611ce0565b50505b505050565b600082821c905092915050565b6000611d6760001984600802611d49565b1980831691505092915050565b6000611d808383611d56565b9150826002028217905092915050565b611d998261151c565b67ffffffffffffffff811115611db257611db1611359565b5b611dbc8254611a0a565b611dc7828285611d03565b600060209050601f831160018114611dfa5760008415611de8578287015190505b611df28582611d74565b865550611e5a565b601f198416611e0886611be4565b60005b82811015611e3057848901518255600182019150602085019450602081019050611e0b565b86831015611e4d5784890151611e49601f891682611d56565b8355505b6001600288020188555050505b505050505050565b7f42696420686173206e6f7420656e6465642e0000000000000000000000000000600082015250565b6000611e98601283611527565b9150611ea382611e62565b602082019050919050565b60006020820190508181036000830152611ec781611e8b565b9050919050565b7f596f7520646f206e6f74206861766520616e796d6f726520657468657220746f60008201527f2077697468647261772066726f6d2074686520636f6e74726163742e00000000602082015250565b6000611f2a603c83611527565b9150611f3582611ece565b604082019050919050565b60006020820190508181036000830152611f5981611f1d565b9050919050565b7f4572726f72000000000000000000000000000000000000000000000000000000600082015250565b6000611f96600583611527565b9150611fa182611f60565b602082019050919050565b60006020820190508181036000830152611fc581611f89565b9050919050565b6000611fd782611308565b9150611fe283611308565b9250828203905081811115611ffa57611ff9611aa7565b5b9291505056fea264697066735822122040f30736557ab9746ca94ee547ebdaf7ae92d3a43471dc4d5df5c68b9d2947c864736f6c63430008110033",
  "immutableReferences": {},
  "source": "// SPDX-License-Identifier: GPL-3.0\r\npragma solidity ^0.8.11;\r\n\r\ncontract selectiveDender {\r\n    struct tdr {\r\n        uint id;\r\n        string title;\r\n        string desc;\r\n        uint startTime;\r\n        uint endTime;\r\n        uint accBal;\r\n        uint maxBid;\r\n        uint bidCount;\r\n        address highestBidder;\r\n        address lowestBidder;\r\n        uint winningBid;\r\n        mapping(uint => address) bidders;\r\n    } \r\n\r\n     struct bidder {\r\n        string bidderName;\r\n        bool bidded;\r\n        mapping(uint => uint) bidAmt;\r\n    }\r\n\r\n    mapping(uint => tdr) public tdrs;\r\n    mapping(address => bidder) public bidders;\r\n\r\n    address public manager;\r\n    uint tdrCount=0;\r\n    uint time;\r\n    uint amt;\r\n\r\n    modifier onlyOfficial(){\r\n        require(msg.sender == manager);\r\n        _; \r\n    }\r\n\r\n    constructor()\r\n    payable\r\n    {\r\n        manager= msg.sender;\r\n    }\r\n\r\n    function createTender (string memory _title, string memory _desc, uint _bidO, uint _bidC) \r\n    public\r\n    onlyOfficial\r\n    {\r\n        tdr storage t = tdrs[tdrCount];\r\n        t.id=tdrCount;\r\n        t.title=_title;\r\n        t.desc=_desc;\r\n        t.startTime=_bidO;\r\n        t.endTime=_bidC;\r\n        t.bidCount=0;\r\n        tdrCount++;\r\n    }\r\n\r\n    function addBidder (string memory _name, address _addr) \r\n    public\r\n    onlyOfficial\r\n    {\r\n        bidder storage b = bidders[_addr];\r\n        b.bidderName = _name;\r\n        b.bidded = false;\r\n    }\r\n\r\n    function bid (uint _tdrID, string memory _name)\r\n    public\r\n    payable\r\n    {\r\n        require(tdrs[_tdrID].startTime < block.timestamp, \"Bid has not started.\");\r\n        require(tdrs[_tdrID].endTime > block.timestamp, \"Bid has ended.\");\r\n        require(bytes(bidders[msg.sender].bidderName).length != 0, \"Not in bidders list\");\r\n        if(bidders[msg.sender].bidded){\r\n            amt=msg.value+bidders[msg.sender].bidAmt[_tdrID];\r\n        }else{\r\n            amt=msg.value;\r\n            tdrs[_tdrID].bidders[tdrs[_tdrID].bidCount]=msg.sender;\r\n            tdrs[_tdrID].bidCount++;\r\n        }\r\n        \r\n        require(amt>tdrs[_tdrID].maxBid, \"Bid is lower than the current bid.\");\r\n        bidder storage b = bidders[msg.sender];\r\n        b.bidderName = _name;\r\n        b.bidded = true;\r\n        b.bidAmt[_tdrID] = amt;\r\n        tdrs[_tdrID].accBal += amt;\r\n        if(bidders[msg.sender].bidAmt[_tdrID] > tdrs[_tdrID].maxBid){\r\n            tdrs[_tdrID].maxBid = amt;\r\n            tdrs[_tdrID].highestBidder = msg.sender;\r\n        }\r\n    }\r\n\r\n    function withdrawFunds (uint _tdrID) \r\n    public\r\n    payable\r\n    {\r\n            require(tdrs[_tdrID].endTime < block.timestamp, \"Bid has not ended.\");\r\n            require(bidders[msg.sender].bidAmt[_tdrID] > 0, \"You do not have anymore ether to withdraw from the contract.\");\r\n            bool sent = payable(msg.sender).send(bidders[msg.sender].bidAmt[_tdrID]);\r\n            require(sent,\"Error\");\r\n            tdrs[_tdrID].accBal-=bidders[msg.sender].bidAmt[_tdrID];\r\n            bidders[msg.sender].bidAmt[_tdrID]=0;\r\n\r\n    }\r\n\r\n    function selectWinner (uint _tdrID, uint _bidID)\r\n    public\r\n    payable\r\n    {\r\n        require(tdrs[_tdrID].endTime < block.timestamp, \"Bid has not ended.\");\r\n        tdrs[_tdrID].winningBid = _bidID;\r\n    }\r\n\r\n    function getWinningBid ( uint _tdrID )\r\n    public\r\n    view\r\n    returns(address winnerAddress, uint winningBidAmt)\r\n    {\r\n        require(tdrs[_tdrID].endTime < block.timestamp, \"Bid has not ended.\");\r\n        return(tdrs[_tdrID].bidders[tdrs[_tdrID].winningBid], bidders[tdrs[_tdrID].bidders[tdrs[_tdrID].winningBid]].bidAmt[_tdrID] );\r\n    }\r\n\r\n    function bidInfo (uint _tdrID, uint _bidID) \r\n    public\r\n    view\r\n    returns(address bidderAddress, uint bidAmtt)\r\n    {\r\n        return(tdrs[_tdrID].bidders[_bidID],bidders[tdrs[_tdrID].bidders[_bidID]].bidAmt[_tdrID]);\r\n    }\r\n\r\n    function highestBidOfTdr (uint _tdrID)\r\n    public\r\n    view\r\n    returns(uint highestBid)\r\n    {\r\n        return tdrs[_tdrID].maxBid;\r\n    }\r\n\r\n    function highestBidderOfTdr (uint _tdrID)\r\n    public\r\n    view\r\n    returns(address highestBidder)\r\n    {\r\n        return tdrs[_tdrID].highestBidder;\r\n    }\r\n\r\n\r\n    function testbids (uint _id) \r\n    public\r\n    view\r\n    returns(uint, string memory)\r\n    {\r\n        return (bidders[msg.sender].bidAmt[_id], tdrs[_id].title);\r\n    }\r\n\r\n}\r\n\r\n",
  "sourcePath": "C:\\Users\\akash\\OneDrive\\Documents\\project\\D-Ender-Ethereum-dApp\\src\\contracts\\selectiveDender.sol",
  "compiler": {
    "name": "solc",
    "version": "0.8.17+commit.8df45f5f.Emscripten.clang"
  },
  "schemaVersion": "3.4.11",
  "updatedAt": "2023-03-05T15:59:19.786Z",
  "networkType": "ethereum",
  "devdoc": {
    "kind": "dev",
    "methods": {},
    "version": 1
  },
  "userdoc": {
    "kind": "user",
    "methods": {},
    "version": 1
  }
}